:03220000022206B1
:03225F0002220355
:032203000223941F
:1022620090000022AF83E5829013A0F0EFA3F0303C
:1022720099FD9013A0E0FEA3E0FF8E99C2998E8291
:102282008F832210980280FBAE997F008E828F830B
:1022920022AFF0AE83E5829013A2F0EEA3F0EFA39B
:1022A200F09013A2E0FDA3E0FEA3E0FF7B007C0020
:1022B2008D828E838FF012364EFA60360DBD00018C
:1022C2000E9013A2EDF0EEA3F0EFA3F08A017A00D4
:1022D20089828A83C007C006C005C004C0031222D7
:1022E20066D003D004D005D006D0070BBB00C10CCA
:1022F20080BE9013A2EDF0EEA3F0EFA3F00BBB00B3
:10230200010C8B828C83227E007F00C3EE9404EF4B
:10231200648094805049C007C006122285AC82AD09
:1023220083D006D007BC0D148E02EFFB3395E0FD7F
:102332008A828B838DF0E41229FE8023BC30004018
:102342001EEC24C640198E02EFFB3395E0FD8A8213
:102352008B838DF0EC1229FE0EBE00AF0F80AC9085
:10236200000075F0001228DEAE82AF83C007C006FF
:10237200C006C007746CC0E07436C0E07480C0E070
:10238200122C2CE58124FBF581D006D0078E828F9A
:10239200832290367575F080122293122309AE8241
:1023A200AF83C007C006C006C00774B3C0E074366E
:1023B200C0E07480C0E0122C2CE58124FBF581D0B2
:1023C20006D007740F5EFC7D008E028F03C3EA9471
:1023D20081EB940CE433F50A8E018F02C3E994D0A9
:1023E200EA9407E433FA8E008F01C3741F98E499CC
:1023F200E433F9E970030224A2E50A70030224A27D
:10240200EC4D60030224A2C0028E828F83C007C0FB
:1024120006C005C004C001122A75A882AA83D00191
:10242200D004D005D006D00788088A099013A5E504
:1024320008F0E509A3F0D002E508450970239036BB
:10244200CF75F080C007C006C005C004C002C0013D
:10245200122293D001D002D004D005D006D007803A
:1024620060C002A808AA097B00C007C006C005C058
:1024720004C002C001C000C002C00374F1C0E07415
:1024820036C0E07480C0E0122C2CE58124FAF5817C
:10249200D001D002D004D005D006D007D0028021CE
:1024A20090373475F080C007C006C005C004C00272
:1024B200C001122293D001D002D004D005D006D0A0
:1024C20007EA70030225588E828F83C007C006C0B8
:1024D20005C004C002C001122A75A882AB83D001D4
:1024E200D002D004D005D006D0079013A7E8F0EBB5
:1024F200A3F0E84B702390377475F080C007C006D4
:10250200C005C004C002C001122293D001D002D083
:1025120004D005D006D0078075C0028B027B00C0B4
:1025220007C006C005C004C002C001C000C002C08E
:10253200037496C0E07437C0E07480C0E0122C2CA3
:10254200E58124FAF581D001D002D004D005D0066D
:10255200D007D0028038C0029013A5E0F8A3E0FAB9
:102562007B0088828A838BF0C007C006C005C00446
:10257200C002C0011227879037D575F080122293CE
:10258200D001D002D004D005D006D007D0029013DB
:10259200A5E0F8A3E0FB9013A5E0F5F0A3E045F079
:1025A20070030223F59013A7E0F5F0A3E045F07065
:1025B200030223F588068B077D0090380B75F080A7
:1025C200C007C006C005122293122285AB828B027D
:1025D2007C008A828C83C004C003C002122266D0AF
:1025E20002D003D004D005D006D007BB610040471B
:1025F200EB24854042C0058E828F83EBF0A3AE822E
:10260200AF838E008F017D00C007C006C005C000E9
:10261200C001C005C002C0047424C0E07438C0E028
:102622007480C0E0122C2CE58124F8F581D005D00D
:1026320006D007D0058083BB2B0280030225BC9005
:10264200384B75F080C007C006C0051222931223D2
:1026520009AB82AC83D005D006D0078B018C02C3B4
:10266200741D99E49A400302275A8B018C02C3E934
:10267200942DEA9401400302275A8B828C83C0076F
:10268200C006C005122A75AB82AC83D005D006D035
:1026920007EB4C701890386C75F080C007C006C00C
:1026A20005122293D005D006D00702276FC006C0BC
:1026B200078B018C028A007A008D067F00C007C05A
:1026C20006C005C004C003C001C000C002C006C0ED
:1026D20007748CC0E07438C0E07480C0E0122C2C07
:1026E200E58124F8F581D003D004D005D006D007C7
:1026F200ED75F004A424A9F508741335F0F5098BDF
:10270200828C83E0F879007A007F0085088285094F
:1027120083E8F0E9A3F0EAA3F0EFA3F08B828C83C5
:10272200E0FF7E007A00C007C006C005C007C006F1
:10273200C003C004C00274D0C0E07438C0E074802A
:10274200C0E0122C2CE58124F8F581D005D006D00A
:10275200070DD007D00680159038D675F080C007D7
:10276200C006C005122293D005D006D0079038F1DA
:1027720075F080C007C006C005122293D005D006AE
:05278200D0070225BC98
:10366A00A00F0A200D202564200A000A200D2045FB
:10367A006E746572206E756D626572206F66206267
:10368A007974657320666F7220627566666572204A
:10369A00696E2072616E6765206F66203332206121
:1036AA006E6420333230300A000A200D20546865D7
:1036BA002056616C756520656E7465726564206953
:1036CA0073202564000A200D2042554646455220A3
:1036DA00302063616E6E6F7420626520616C6C6F5E
:1036EA0063617465640A000A0D20425546464552D4
:1036FA002030206973207375636365737366756C14
:10370A006C7920616C6C6F63617465642075736990
:10371A006E67206D616C6C6F6320617420616464F4
:10372A00726573732025700A0D000A200D205265F8
:10373A002D656E746572206E756D626572206F6696
:10374A0020627974657320666F7220627566666599
:10375A007220696E2072616E6765206F662033324F
:10376A0020616E642033323030000A200D204D650E
:10377A006D6F7279206E6F7420616C6C6F63617407
:10378A00656420696E20686561700A000A0D4275D9
:10379A006666657220312073756363657373667537
:1037AA006C6C7920616C6C6F6361746564207573ED
:1037BA00696E67206D616C6C6F632061742061644F
:1037CA0064726573732025700A0D000A200D204269
:1037DA007566666572203020636C65617265642C5B
:1037EA00706C6561736520656E74657220736D61B6
:1037FA006C6C6572206275666665722073697A659B
:10380A00000A200D20456E7465722061206368618C
:10381A00726163746572200A20000A200D204275C5
:10382A00666665725F302073746F726573207468A0
:10383A00652076616C75652025632061742025708A
:10384A00000A200D20456E74657220746865207325
:10385A00697A6520666F72206275666665720A20EB
:10386A000D000A200D204255464645522063616EDE
:10387A006E6F7420626520616C6C6F63617465643D
:10388A000A000A0D20425546464552202564206901
:10389A0073207375636365737366756C6C792061E5
:1038AA006C6C6F6361746564207573696E67206DF3
:1038BA00616C6C6F632061742061646472657373F8
:1038CA002025700A0D002570202564004275666661
:1038DA0065722063616E6E6F7420626520616C6C24
:1038EA006F6361746564000A200D20656E746572E9
:1038FA00206E6578742063686172616374657220F2
:04390A000A200D0082
:0139190000AD
:10278700AFF0AE83E582901539F0EEA3F0EFA3F03A
:10279700901539E0FDA3E0FEA3E0901539E0F5F0D0
:1027A700A3E045F070012290153EE4F0A3F09015E8
:1027B7004BE0FBA3E0FC90153CEBF0ECA3F090158D
:1027C70040744BF07415A3F090153CE0FBA3E0FCBC
:1027D7004B60418B018C02C003C0048D008E04C383
:1027E700E998EA9CD004D003502A90153EEBF0EC10
:1027F700A3F074022BFBE43CFC901540EBF0ECA338
:10280700F08B828C83E0FBA3E0FC90153CEBF0ECB3
:10281700A3F080B490153CE0FEA3E0FF901539E0EB
:10282700FBA3E0FCA3E0EB24FEFBEC34FFFC74020B
:102837002BFAE43CFD8A828D83EEF0EFA3F090152E
:1028470040E0F8A3E0F988828983EBF0ECA3F08BF2
:10285700828C83E0F8A3E0F9EEB50033EFB5012FE2
:1028670088828983A3A3E0FEA3E0FF8A828D83EE9B
:10287700F0EFA3F08B828C83E0FEA3E0FF8E828FC4
:1028870083E0FEA3E0FF8B828C83EEF0EFA3F09052
:10289700153EE0FEA3E0FF4E603C8E828F83E0F89A
:1028A700A3E0F9E8B5032FE9B5042B8B828C83E00D
:1028B700FBA3E0FC8E828F83EBF0ECA3F074022E77
:1028C700FEE43FFF8A828D83E0FAA3E0FD8E828FCC
:0728D70083EAF0EDA3F022FB
:06223500E478FFF6D8FD7D
:1028DE00AFF0AE83E582901542F0EEA3F0EFA3F0D9
:1028EE00901545E4F0A3F0901542E0FDA3E0FEA3A1
:1028FE00E0FF8D828E838FF012364EFCBC2002805C
:10290E0003BC09120DBD00010E901542EDF0EEA3B1
:10291E00F0EFA3F080DC901542EDF0EEA3F0EFA304
:10292E00F08D828E838FF012364EFC901547E4BCEC
:10293E002D0104F0BC2D028003BC2B0E90154274A9
:10294E00012DF0E43EA3F0EFA3F0901542E0FDA3BD
:10295E00E0FEA3E0FF8D828E838FF012364EFCBC1C
:10296E003000405DEC24C64058901545E0FBA3E0D6
:10297E00FC901549EBF0ECA3F090000AC007C006DE
:10298E00C005122A19AB82AC83D005D006D0078DB4
:10299E00828E838FF012364EFAA3AD82AE839015DF
:1029AE0042EDF0EEA3F0EFA3F08A017A00E924D015
:1029BE00F9EA34FFFA901545E92BF0EA3CA3F080D2
:1029CE0094901542EDF0EEA3F0EFA3F0901547E0D2
:1029DE006011901545E0FEA3E0FFC3E49EFEE49F68
:1029EE00FF8008901545E0FEA3E0FF8E828F8322C4
:102213007901E94400601B7A01903919788A75A025
:1022230015E493F2A308B8000205A0D9F4DAF27515
:02223300A0FF0A
:1029FE0020F71130F6138883A88220F509F6A883F4
:102A0E007583002280FEF280F5F022AA83AB828BC2
:102A1E00F0901549E0A4F8A9F08AF0E0A429F98B0A
:102A2E00F0A3E0A429F5838882222290154B74002E
:102A3E00F07404A3F090366AE493FE740193FF1EC3
:102A4E00BEFF011FEE2400FEEF3404FF900400EEE3
:102A5E00F0EFA3F090154BE0FEA3E0FF8E828F8384
:102A6E00A3A3E4F0A3F022AF83E58290154DF0EF1F
:102A7E00A3F090154BE0F5F0A3E045F07003122A99
:102A8E003990154DE0FEA3E0FF4E600E74022EFC51
:102A9E00E43FFDC3EC9EED9F500490000022901584
:102AAE004D74022EF0E43FA3F090154DE0FEA3E02E
:102ABE00FFC3EE9404EF9400500990154D7404F08A
:102ACE00E4A3F090154BE0FEA3E0FF90154FEEF05F
:102ADE00EFA3F0901551744BF07415A3F090154FB1
:102AEE00E0FEA3E0FF4E7003022BDA8E828F83E0AE
:102AFE00FCA3E0FD8C028D038E008F01EAC398FAD1
:102B0E00EB99FB8A008B0190154DE0F50BA3E0F5D8
:102B1E000CC3E8950BE9950C5003022BB7740425F2
:102B2E000BF8E4350CF9C3EA98EB99404C8E028F02
:102B3E0003E50B2AFAE50C3BFB8A828B83ECF0ED66
:102B4E00A3F074022AFCE43BFD8E828F83A3A3E0E4
:102B5E00F8A3E0F98C828D83E8F0E9A3F09015518B
:102B6E00E0FCA3E0FD8C828D83EAF0EBA3F08E8275
:102B7E008F83EAF0EBA3F0801C901551E0FCA3E0EC
:102B8E00FD8E828F83A3A3E0FAA3E0FB8C828D835C
:102B9E00EAF0EBA3F090154FE0FCA3E0FD74022CDD
:102BAE00FCE43DFD8C828D832274022EFEE43FFFF9
:102BBE00901551EEF0EFA3F08E828F83E0FEA3E02E
:102BCE00FF90154FEEF0EFA3F0022AEB90000022DB
:10223B007800E84400600A790075A004E4F309D83B
:10224B00FC788AE84411600C7912900400E4F0A346
:04225B00D8FCD9FAD8
:102BDE00C0178581177E008E83122266D01722AF12
:102BEE00F0AE83E582901554F0EEA3F0EFA3F090D3
:102BFE001554E0FDA3E0FEA3E0FF901553E0FC901A
:102C0E001568E4F0A3F0A3F090156BEDF0EEA3F0D1
:102C1E00EFA3F090156EECF0902BDE022D35C01761
:102C2E00E581F51724FBFF901568E4F0A3F0A3F0FF
:102C3E00E51724FBF890156BE6F008E6A3F008E61E
:102C4E00A3F090156EEFF0902BDE122D35D01722DB
:102C5E00E582901564F0E0FF90155AE0C0E0A3E025
:102C6E00C0E0A3E0C0E0122C79800D901558E0C0B2
:102C7E00E0A3E0C0E08F82221581158115819015A9
:102C8E0062E02401F0A3E03400F022E582901565A5
:102C9E00F0E02430FF24C6500D74072FFF90155717
:102CAE00E060034307208F82022C5EE5829015665A
:102CBE00F0E0FFC4540FF582C007122C99D00753D1
:102CCE00070F8F82022C99E582901567F090155DA3
:102CDE00E0FCA3E0FDA3E0FEA3E0FF901561E0FBA6
:102CEE00751820901567E0F98B00E828F8EF23544B
:102CFE000148FBEC2CFCED33FDEE33FEEF33FFC34E
:102D0E00EB994007EBC399FB430401E51814FA8ACB
:102D1E001870D590155DECF0EDA3F0EEA3F0EFA3D7
:102D2E00F0901561EBF022AF83E58290156FF0EF16
:102D3E00A3F090156FE0FEA3E0FF901558EEF0EFB4
:102D4E00A3F0901568E0FDA3E0FEA3E0FF90155AF6
:102D5E00EDF0EEA3F0EFA3F0901562E4F0A3F09087
:102D6E00156BE0FDA3E0FEA3E0FF8D828E838FF056
:102D7E0012364EFC90156B74012DF0E43EA3F0EF6D
:102D8E00A3F0EC700302362ABC2502800302362221
:102D9E00901571E4F0901572F0901573F090157413
:102DAE00F0901575F0901576F0901577F0901578E7
:102DBE00F090157AF090157BF0A3F090157D14F03D
:102DCE00A3F090156BE0FDA3E0FEA3E0FF8D828ED5
:102DDE00838FF012364EFBA3AD82AE8390156BED52
:102DEE00F0EEA3F0EFA3F0901581EBF0BB25088B6E
:102DFE0082122C5E022D6DBB30005003022ECEEBE4
:102E0E0024C65003022ECE90157DE0F50DA3E0F5FD
:102E1E000E74FFB50D63B50E60C005C006C00790F9
:102E2E00157BE0FAA3E0FF901549EAF0EFA3F090CE
:102E3E00000AC005C003122A19AE82AF83D003D098
:102E4E00058B027D00EA2EFEED3FFFEE24D0FEEF55
:102E5E0034FFFF90157BEEF0EFA3F0D007D006D035
:102E6E000590157BE0F5F0A3E045F06003022DDB45
:102E7E009015727401F0022DDBC005C006C00790DC
:102E8E001549E50DF0E50EA3F090000AC006C00549
:102E9E00C003122A19AA82AF83D003D005D0067EB2
:102EAE0000EB2AFAEE3FFFEA24D0FAEF34FFFF9050
:102EBE00157DEAF0EFA3F0D007D006D005022DDB8A
:102ECE00901581E0FBBB2E2FC005C006C0079015E4
:102EDE007DE0FAA3E0FFBAFF05BFFF028009D0072D
:102EEE00D006D005022DDBD007D006D00590157D7B
:102EFE00E4F0A3F0022DDBBB61004014EB2485400F
:102F0E000F90158174DF5BF09015577401F08005FA
:102F1E00901557E4F0901581E0FBBB20028075BB45
:102F2E002B028067BB2D028059BB4202806FBB43D0
:102F3E0002807CBB44030231C5BB46030231EBBBAE
:102F4E004803022DDBBB49030231C5BB4A03022DE8
:102F5E00DBBB4C028050BB4F030231D3BB5003028C
:102F6E003133BB53028077BB5403022DDBBB5503B9
:102F7E000231DBBB58030231E3BB5A03022DDB02E5
:102F8E0031F39015717401F0022DDB9015737401FD
:102F9E00F0022DDB9015747401F0022DDB90157686
:102FAE007401F0022DDB9015777401F0022DDB9089
:102FBE001576E0600E90156EE014F9F0901581E72D
:102FCE00F0800F90156EE024FEFFF08F01901581BA
:102FDE00E7F0901581E0F582122C5E023202901518
:102FEE006EE024FDFFF08F0187050987060987072C
:102FFE00191990155DEDF0EEA3F0EFA3F08D828E12
:10300E00838FF012363685820D85830E90157DE006
:10301E00FAA3E0FDBAFF0DBDFF0A90157DE50DF098
:10302E00E50EA3F0901571E0704B90157BE0FAA3BE
:10303E00E0FDC3E50D9AE50E9D503A90157BEAC36F
:10304E00950DF0ED950EA3F090157BE0FAA3E0FD43
:10305E008A068D071ABAFF011DEE4F601075822089
:10306E00C005C002122C5ED002D00580E390157B05
:10307E00EAF0EDA3F090157DE0F510A3E0F51190C8
:10308E00155DE0FAA3E0FDA3E0FF8A828D838FF049
:10309E0012364EF50F603CC3E4951074808511F026
:1030AE0063F08095F0502C151074FFB510021511B9
:1030BE00850F82122C5E90155DE0FAA3E0FDA3E071
:1030CE00FF0ABA00010D90155DEAF0EDA3F0EFA333
:1030DE00F080AC901571E0700302320290157BE027
:1030EE00FEA3E0FFC3E50D9EE50E9F4003023202F4
:1030FE0090157BEEC3950DF0EF950EA3F090157B1A
:10310E00E0FEA3E0FF8E028F051EBEFF011FEA4DFB
:10311E0070030231FA758220C007C006122C5ED0F1
:10312E0006D00780E090156EE024FDFDF08D01873E
:10313E0012098713098714191990155DE512F0E528
:10314E0013A3F0E514A3F090155FE0FDBD800040E1
:10315E00089015817443F08020BD600040089015E2
:10316E00817450F08013BD40004008901581744961
:10317E00F080069015817458F0901581E0FDF5826F
:10318E00C005122C5E75823A122C5E758230122C9E
:10319E005E758278122C5ED005BD4902800EBD5040
:1031AE0002800990155EE0F582122CB990155DE053
:1031BE00F582122CB9803D9015757401F090157A38
:1031CE00740AF0802F90157A7408F0802790157A83
:1031DE00740AF0801F90157A7410F080179015788D
:1031EE007401F0800F8B82122C5E800890157BEE9E
:1031FE00F0EFA3F0901578E0607190156EE024FC6E
:10320E00FFF08F01870309870509870609870719CC
:10321E00191990155DEBF0EDA3F0EEA3F0EFA3F00E
:10322E0090155D740EF07439A3F07480A3F09015B0
:10323E005DE0F512A3E0F513A3E0F5147401251279
:10324E00FAE43513FBAF1490155DEAF0EBA3F0EF43
:10325E00A3F08512828513838514F012364EFF700B
:10326E0003022D6D8F82122C5E80C390157AE07052
:10327E0003022D6D901576E0604790156EE014F9FF
:10328E00F087077E007D007B0090155DEFF0EEA3CA
:10329E00F0EDA3F0EBA3F0901575E060030233455B
:1032AE0090155DE0FBA3E0A3E0A3E07D007E007F30
:1032BE000090155DEBF0EDA3F0EEA3F0EFA3F08020
:1032CE0076901577E0602890156EE024FCFFF08F65
:1032DE0001870309870509870609870719191990B8
:1032EE00155DEBF0EDA3F0EEA3F0EFA3F0804890A8
:1032FE00156EE024FEFFF08F01870609870719EF90
:10330E003395E0FDFB90155DEEF0EFA3F0EDA3F02D
:10331E00EBA3F0901575E0701E90155DE0FBA3E039
:10332E00FDA3E0A3E07E007F0090155DEBF0EDA322
:10333E00F0EEA3F0EFA3F0901575E0604190155DEF
:10334E00E0FBA3E0FDA3E0FEA3E0FF30E72B90152A
:10335E005DE0FBA3E0FDA3E0FEA3E0FFC3E49BFB67
:10336E00E49DFDE49EFEE49FFF90155DEBF0EDA362
:10337E00F0EEA3F0EFA3F08005901575E4F0901534
:10338E00797401F090157AE0F5107515877516159C
:10339E00E4F50DF50E901561E4F0851082122CD532
:1033AE00901579E07026901561E0C4F512851582AE
:1033BE00851683E0FFE5124207851582851683EF99
:1033CE00F0151574FFB515021516800C901561E0F9
:1033DE00FF851582851683F0050DE4B50D02050EE9
:1033EE00901579E0B40100E433F090155DE0FAA396
:1033FE00E0FBA3E0FEA3E0FFEA4B4E4F7097901563
:10340E0088E515F0E516A3F090157FE50DF0E50EB5
:10341E00A3F090157BE0F5F0A3E045F07009901550
:10342E007B7401F0E4A3F0901572E0FFE07047901A
:10343E001571E07041850D15850E1690157BE0FA1D
:10344E00A3E0FBC007AF150F8F067F00C3EE9AEF08
:10345E009BD0075019758220C007C003C002122CE2
:10346E005ED002D003D0071ABAFF011B80D590158B
:10347E007BEAF0EBA3F0901575E0602075822DC00D
:10348E0007122C5ED00790157BE024FFFDA3E034DD
:10349E00FFFE90157BEDF0EEA3F0805690157FE0C9
:1034AE00F5F0A3E045F0604A901573E06020758258
:1034BE002BC007122C5ED00790157BE024FFFDA3D6
:1034CE00E034FFFE90157BEDF0EEA3F08024901516
:1034DE0074E0601E758220C007122C5ED007901516
:1034EE007BE024FFFDA3E034FFFE90157BEDF0EEB4
:1034FE00A3F0901571E0704890157FE0F515A3E0EC
:10350E00F51690157BE0FAA3E0FBC0078A068B0741
:10351E001ABAFF011BC3E5159EE5169FD00750533F
:10352E00EF60067D307E0080047D207E008D82C09F
:10353E0007C003C002122C5ED002D003D00780CA8F
:10354E0090157BE0FEA3E0FF90157FE0F515A3E05C
:10355E00F516C3E5159EE5169F500F90157BEEC32D
:10356E009515F0EF9516A3F0801190157BE4F0A35E
:10357E00F0800890157BEAF0EBA3F0901588E0FE42
:10358E00A3E0FF90157FE0F515A3E0F516AA15ADA3
:10359E0016151574FFB515021516EA4D60459015F2
:1035AE0079E0B40100E433F0901579E070140EBEAA
:1035BE0000010F8E828F83E0C4540FFD901561F0D1
:1035CE00800E8E828F83E0FD53050F901561EDF016
:1035DE00901561E0F582C007C006122C99D006D076
:1035EE000780AA901571E07003022D6D90157BE097
:1035FE00FEA3E0FF8E038F051EBEFF011FEB4D7075
:10360E0003022D6D758220C007C006122C5ED006F7
:10361E00D00780E08C82122C5E022D6D901562E038
:08362E00FEA3E08E82F5832269
:0B390E003C4E4F20464C4F41543E0001
:10363600AA82AB8312364E6003A380F8C3E5829A52
:08364600F582E5839BF5832268
:0D220600758118122262E582600302220336
:10364E0020F71430F6148883A88220F507E6A883A5
:0C365E0075830022E280F7E49322E02252
:00000001FF
