:03220000022206B1
:03225F0002220355
:0322030002239023
:20226200AF83E5829013A0F0EFA3F03099FD9013A0E0FEA3E0FF8E99C2998E828F832210CF
:20228200980280FBAE997F008E828F8322AFF0AE83E5829013A2F0EEA3F0EFA3F09013A269
:2022A200E0FDA3E0FEA3E0FF7B007C008D828E838FF0123F89FA60360DBD00010E9013A21E
:2022C200EDF0EEA3F0EFA3F08A017A0089828A83C007C006C005C004C003122262D003D0ED
:2022E20004D005D006D0070BBB00C10C80BE9013A2EDF0EEA3F0EFA3F00BBB00010C8B8280
:202302008C83227E007F00C3EE9404EF648094805049C007C006122281AC82AD83D006D07E
:2023220007BC0D148E02EFFB3395E0FD8A828B838DF0E412311C8023BC3000401EEC24C6FB
:2023420040198E02EFFB3395E0FD8A828B838DF0EC12311C0EBE00AF0F80AC90000075F076
:2023620000122FFCAE82AF83C007C006C006C00774ABC0E0743FC0E07480C0E0123567E569
:202382008124FBF581D006D0078E828F832274B4C0E0743FC0E07480C0E01235671581152C
:2023A2008115819013A5E4F0A3F09013A7F0A3F09013A9E0F508A3E0F509903FBC75F0806E
:2023C20012228F122305AC82AD83C005C004C004C00574FAC0E0743FC0E07480C0E0123552
:2023E20067E58124FBF581D004D0058C028D03C3741F9AE49B40030225028C028D03C3EA0C
:202402009481EB940C40030225028C028D03EA540F60030225028C828D83C005C0041232CC
:202422007CAA82AB83D004D0059013A5EAF0EBA3F08A008B017F009013ABE8F0E9A3F0EF55
:20244200A3F0EC2AFEED3BFF8E0A8F0B750C008A828B83E075F002A4250AF8E50B35F0FEBA
:20246200AF0C901617E8F0EEA3F0EFA3F090154FECF0EDA3F08A068B078F017F00C004C002
:2024820005A808AC097D00C005C004C003C002C006C001C007C000C004C0057416C0E07410
:2024A20040C0E07480C0E0123567E58124F7F581D002D003D004D005D005D004EA4B701352
:2024C20090401C75F080C005C00412228FD004D005803E7F00C005C004C00AC00BC00CC04D
:2024E20002C003C007743EC0E07440C0E07480C0E0123567E58124F7F581D004D005801135
:2025020090409775F080C005C00412228FD004D0058C068D07C3EE94D0EF94074003022549
:20252200C98C828D83C005C00412327CAE82AF83D004D0059013A7EEF0EFA3F08E028F0392
:202542008B017B009013AEEAF0E9A3F0EBA3F0EE4F70149040D775F080C005C00412228FB4
:20256200D004D0050225EDEC2EFAED3FFB8A0A8B0B750C008E828F83E075F002A4250AF882
:20258200E50B35F0FAAB0C90161AE8F0EAA3F0EBA3F0901551ECF0EDA3F07B00C005C0048A
:2025A200C00AC00BC00CC006C007C00374F9C0E07440C0E07480C0E0123567E58124F7F54F
:2025C20081D004D00580249013A5E0FEA3E0FF7B008E828F838BF0C005C004122EA590412C
:2025E2004F75F08012228FD004D0059013A5E0F5F0A3E045F070030223BC9013A7E0F5F011
:20260200A3E045F070030223BC9017437402F0E4A3F07F00F5188C0F8D1075110290418840
:2026220075F080C007C005C00412228F9041F675F08012228F90424B75F08012228F90429A
:20264200B975F08012228F90431775F08012228F90437675F08012228F9043D575F08012F5
:20266200228F90443575F08012228F90449575F08012228F9044F475F08012228F122281C0
:20268200A882880A850A08750900850882850983122262D004D005D007749F250A400302AA
:2026A200273BE50A2485500302273B8C0D8D0EAA187B00C3EA950DEB950E505F9013A5E042
:2026C200F8A3E0F9EF28F582E439F583E50AF00FAA187B00EF28F582E439F583E0F87900C2
:2026E200C007C005C004C002C003C000C001C008C0097464C0E07445C0E07480C0E0123545
:2027020067E58124F7F581D004D005D0070518150F74FFB50F02151002261FC007C005C0A7
:2027220004749BC0E07445C0E012313715811581D004D005D00702261F742BB50A0280033B
:202742000228D4C0079045C475F080C007C005C00412228F122305AA82AB83D004D005D014
:20276200078A008B07C3741D98E49FD00740030228BCC0078A008B07C3E8942DEF9401D022
:202782000740030228BCC0078A828B83C005C004C003C00212327CA882AF83D002D003D087
:2027A20004D005880D8F0ED007E50D450E701890460075F080C007C005C00412228FD004C6
:2027C200D005D00702261FC007A80DAF0E88128F13751400A90DAF0E89158F16751700A91B
:2027E200117F00C007C005C004C003C002C012C013C014C015C016C017C001C0077420C09B
:20280200E07446C0E07480C0E0123567E58124F5F581D002D003D004D005D007E51175F0C5
:2028220003A4F51585F01624ABF582E5163413F583A80DAF0E88128F13751400E512F0E557
:2028420013A3F0E514A3F0E5152417F582E5163416F583EA250DF9EB350EF87F00E9F0E860
:20286200A3F0EFA3F0E51175F002A4244FF582741535F0F583EAF0EBA3F0901743E02401E9
:20288200F0A3E03400F0C007C005C004C001C000C007C012C013C0147475C0E07446C0E0AB
:2028A2007480C0E0123567E58124F7F581D004D005D0070511D00702261F90468D75F080E1
:2028C200C007C005C00412228FD004D005D00702261F742DB50A028003022A899046C37574
:2028E200F080C007C005C00412228F122305AA82AB83D004D005D007C3E5119A5003022A6D
:2029020071C007EA75F003A424ABF515741335F0F516851582851683E0F8A3E0FBA3E0FFE5
:2029220088828B838FF0C007C005C004C002122EA5D002D004D005D007851582851683E09B
:20294200F9A3E0FBA3E0FFC007C005C004C002C001C003C00774F3C0E07446C0E07480C00A
:20296200E0123567E58124FAF581D002D004D005D007901743E024FFFBA3E034FFFF901737
:2029820043EBF0EFA3F0901743E0F515A3E0F5168A12D007AA127B00C3EA9515EB9516405C
:2029A2000302261FC007E51275F003A4FAABF024ABF50DEB3413F50EAE127F0074012EF58F
:2029C20019E43FF51A90175DE519F0E51AA3F0900003C007C005C004C003C0021233E5850F
:2029E2008208858309D002D003D004D005D007E50824ABF582E5093413F583E0F8A3E0F9E1
:202A0200A3E0FF850D82850E83E8F0E9A3F0EFA3F0EA2417FAEB3416FBE5082417F582E55F
:202A2200093416F583E0F9A3E0FEA3E0FF8A828B83E9F0EEA3F0EFA3F0E51275F002A424D1
:202A42004FFE741535F0FFE5192519FAE51A33FBEA244FF582EB3415F583E0FAA3E0FB8EB1
:202A6200828F83EAF0EBA3F00512D00702299690471575F080C007C005C00412228FD00401
:202A8200D005D00702261F743DB50A028003022BEFC007C005C0047446C0E07447C0E074B7
:202AA20080C0E0123567158115811581D004D005D007E518F5157003022BD19013A5E0FA6A
:202AC200A3E0FB8A008B01751900C3E5199515400302261FC007AE197F0090175F7411F055
:202AE200E4A3F08E828F83C007C005C004C003C002C001C000123405E5828583F0D000D09B
:202B020001D002D003D004D005D007D00745F07073C007C007C005C004C003C002C001C081
:202B220000746FC0E07447C0E012313715811581D000D001D002D003D004D005D007E5194B
:202B420028F582E439F583E0FE7F00C007C005C004C003C002C001C000C006C0077474C057
:202B6200E07447C0E07480C0E0123567E58124FBF581D000D001D002D003D004D005D00715
:202B8200D0078046C007E5192AF582E43BF583E0FE7F00C007C005C004C003C002C001C0E6
:202BA20000C006C0077478C0E07447C0E07480C0E0123567E58124FBF581D000D001D002EF
:202BC200D003D004D005D007D0070519022ACCC007C005C004747EC0E07447C0E0123137FC
:202BE20015811581D004D005D00702261F743FB50A028003022DBBC0079047B675F080C006
:202C020007C005C00412228F90483C75F08012228FD004D005D00785180D8518157516003C
:202C220090154FE0F519A3E0F51A901617E0F512A3E0F513A3E0F5149013ABE0FAA3E0FBBD
:202C4200A3E0FFC007C005C004C00FC010C015C016C019C01AC012C013C014C002C003C0E5
:202C62000774D3C0E07448C0E07480C0E0123567E58124F1F581D004D005D007901743E08B
:202C8200F519A3E0F51A751501D007AA157B00C3EA9519EB951A4003022D2FC007E515752A
:202CA200F002A4244FF582741535F0F583E0FAA3E0FBE51575F003A4F51285F0132417F54F
:202CC20082E5133416F583E0F51BA3E0F51CA3E0F51DE51224ABF582E5133413F583E0F5D4
:202CE20012A3E0F513A3E0F514A9157F00C007C005C004C002C003C002C003C01BC01CC09B
:202D02001DC012C013C014C001C0077470C0E07449C0E07480C0E0123567E58124F1F5817F
:202D2200D004D005D0070515D007022C8D9013A5E0F51BA3E0F51C7A00C3EA950D4003028B
:202D4200261F8A00E8543F7021C007C005C004C002740AC0E0744AC0E01231371581158162
:202D6200D002D004D005D007804BC007EA251BF8E4351CF988828983E0FE7F00C007C0051E
:202D8200C004C002C001C000C006C007740CC0E0744AC0E07480C0E0123567E58124FBF563
:202DA20081D000D001D002D004D005D00788828983E4F0D0070A022D3B7440B50A02800370
:202DC20002261F9013A5E0FBA3E0FE7A008B828E838AF0C007C005C004122EA57411C0E09A
:202DE200744AC0E07480C0E0123567158115811581D004D005D007901743E0FBA3E0FE7A2F
:202E0200018A007900C3EB98EE994070C007EA75F003A424ABF582741335F0F583E0F8A38D
:202E2200E0F9A3E0FF888289838FF0C007C006C005C004C003C002122EA5D002D003D004A7
:202E4200D005D006D0078A017F00C007C006C005C004C003C002C001C0077433C0E0744ABC
:202E6200C0E0123137E58124FCF581D002D003D004D005D006D0070AD0078085C007C005CD
:202E8200C004745EC0E0744AC0E07480C0E0123567158115811581122390D004D005D00753
:032EA20002261FE6
:203FA900A00F0A200D202564200A00747269616C0A0D000A200D20456E746572206E756D47
:203FC900626572206F6620627974657320666F722062756666657220696E2072616E67653E
:203FE900206F6620333220616E6420333230300A000A200D205468652056616C75652065E2
:204009006E7465726564206973202564002570202570000A200D20425546464552203020A5
:2040290063616E6E6F7420626520616C6C6F63617465640A000A0D204255464645522030F9
:20404900206973207375636365737366756C6C7920616C6C6F6361746564207573696E6707
:20406900206D616C6C6F63206174206164647265737320257020616E6420656E6420616460
:2040890064726573732061732025700A0D000A200D2052652D656E746572206E756D6265A6
:2040A90072206F6620627974657320666F722062756666657220696E2072616E6765206F95
:2040C9006620333220616E642033323030000A200D204D656D6F7279206E6F7420616C6C1A
:2040E9006F636174656420696E20686561700A000A0D427566666572203120737563636593
:20410900737366756C6C7920616C6C6F6361746564207573696E67206D616C6C6F6320615C
:20412900742061646472657373202570207769746820656E64206164647265737320617419
:204149002025700A0D000A200D20427566666572203020636C65617265642C706C65617358
:204169006520656E74657220736D616C6C6572206275666665722073697A650A200D000ACD
:20418900200D202A2A2A2A2A2A2A2A2A2A2A2A2A2A2A2A2A2A2A2A2A2A2A2A2A2A2A2A2A07
:2041A9002A2A2A2A2A2A2A2A2A2A2A2A2A2A2A2A2A2A2A2A2A2A2A2A2A2A2A2A2A2A2A2AB6
:2041C9002A2A2A2A2A2A2A2A2A2A2A2A2A2A2A2A2A2A2A2A2A2A2A2A2A2A2A2A2A2A2A2A96
:2041E9002A2A2A2A2A2A2A2A2A2A200A000A200D2020202020202020202020202020504C55
:204209004541534520454E5445522053504543494649432043484152414354455220464F11
:204229005220464F4C4C4F57494E47204F5045524154494F4E5320202020202020200A2004
:204249000D000A200D202A2A2A2A2A2A2A2A2A2A2A2A2A2A2A2A2A2A2A2A2A2A2A2A2A2AAD
:204269002A2A2A2A2A2A2A2A2A2A2A2A2A2A2A2A2A2A2A2A2A2A2A2A2A2A2A2A2A2A2A2AF5
:204289002A2A2A2A2A2A2A2A2A2A2A2A2A2A2A2A2A2A2A2A2A2A2A2A2A2A2A2A2A2A2A2AD5
:2042A9002A2A2A2A2A2A2A2A2A2A2A2A0A200D000A200D20202020202020202020202020EF
:2042C9002020203129202020202020272B27202020202020202D20202043524541544520A1
:2042E9004E45572042554646455253202020202020202020202020202020202020202020FE
:20430900202020202020202020200A200D000A200D20202020202020202020202020202006
:20432900203229202020202020272D27202020202020202D20202044454C4554452041201D
:2043490042554646455220202020202020202020202020202020202020202020202020205A
:204369002020202020202020200A200D000A200D20202020202020202020202020202020A6
:2043890033292020202020276120746F207A272020202D20202053544F5245205448452031
:2043A9004C4F57455220434153452043484152414354455220202020202020202020202002
:2043C90020202020202020200A200D000A200D202020202020202020202020202020203432
:2043E90029202020202020273F2720202020202020202D202020494E464F524D4154494FB9
:204409004E2041424F5554204845415020414E4420454D5054592042554646455220302080
:2044290020202020202020200A200D000A200D2020202020202020202020202020202035D0
:2044490029202020202020273D2720202020202020202D2020205052494E542056414C556D
:20446900455320494E2042554646455220302020202020202020202020202020202020207A
:2044890020202020202020200A200D000A200D20202020202020202020202020202020366F
:2044A9002920202020202027402720202020202020202D2020204652454520414C4C204272
:2044C90055464645525320414E442052455354415254202020202020202020202020202010
:2044E900202020202020200A200D000A200D202A2A2A2A2A2A2A2A2A2A2A2A2A2A2A2A2A7B
:204509002A2A2A2A2A2A2A2A2A2A2A2A2A2A2A2A2A2A2A2A2A2A2A2A2A2A2A2A2A2A2A2A52
:204529002A2A2A2A2A2A2A2A2A2A2A2A2A2A2A2A2A2A2A2A2A2A2A2A2A2A2A2A2A2A2A2A32
:204549002A2A2A2A2A2A2A2A2A2A2A2A2A2A2A2A2A2A2A2A2A2A2A0A200D000A200D2042BC
:2045690075666665725F302073746F726573207468652076616C756520256320617420254B
:2045890070207769746820636F756E746572202564000A200D204275666665723020667521
:2045A9006C6C202C706C6561736520636C656172206275666665720A200D000A200D2045C0
:2045C9006E746572207468652073697A6520666F7220627566666572206265747765656ED2
:2045E90020333020616E6420333030206279746573203A0A200D000A200D20425546464592
:20460900522063616E6E6F7420626520616C6C6F63617465640A000A0D20425546464552F1
:20462900202564206973207375636365737366756C6C7920616C6C6F6361746564207573B6
:20464900696E67206D616C6C6F63206174206164647265737320257020617420642076615B
:204669006C75652069732025640A0D0061727261792069206861732076616C756520257039
:20468900202570000A200D204572726F722C706C65617365207075742076616C756520621D
:2046A90065747765656E20333020746F203330302062797465730A200D000A200D20456EA8
:2046C9007465722074686520627566666572206E756D62657220746F2062652064656C653E
:2046E900746564203A200A200D000A200D20436C656172696E6720627566666572206174B8
:204709002061646472657373202570000A200D206F7574206F6620626F756E64732C706C7E
:204729006561736520656E74657220636F72726563742076616C7565200A200D000A200DB7
:20474900205468652062756666657220302068617320666F6C6C6F77696E6720646174611E
:204769003A200A200D00200A200D0025703A002025782020000A200D2043616E6E6F7420A2
:204789007072696E7420736D616C6C20616C70686162657473206173206275666665722028
:2047A900697320656D707479200A200D000A200D202A2A2A2A2A2A2A2A2A2A2A2A2A2A2AA1
:2047C9002A2A2A2A2A2A2A2A2A2A2A2A2A2A2A2A2A2A2A2A2A2A2A2A2A2A2A2A44657461BA
:2047E900696C73206F66206275666665722061726520617320666F6C6C6F77733A2A2A2AAF
:204809002A2A2A2A2A2A2A2A2A2A2A2A2A2A2A2A2A2A2A2A2A2A2A2A2A2A2A2A2A2A2A2A4F
:204829002A2A2A2A2A2A2A2A2A2A2A2A2A2A200A200D000A200D20427566666572202320B8
:204849002020202020427566666572207374617274206164647265737320202020204275AA
:204869006666657220656E6420616464726573732020202020202020746F74616C2073690F
:204889007A6520616C6C6F6361746564202020202020206E6F2E206F662073746F726167D7
:2048A90065206368617261637465727320696E206275666665727320202020206672656504
:2048C9002073706163650A200D000A200D20202020302020202020202020202020202025C0
:2048E90070202020202020202020202020202020202020202020202020202025702020200A
:20490900202020202020202020202020202020202020256420202020202020202020202045
:20492900202020202020202020202020202020202020202564202020202020202020202025
:20494900202020202020202020202020202020202020202020256420202020202020202005
:2049690020200A200D20000A200D2020202564202020202020202020202020202025702002
:204989002020202020202020202020202020202020202020202020202025702020202020B9
:2049A9002020202020202020202020202020202025642020202020202020202020202020A5
:2049C9002020202020202020202020202020202020203020202020202020202020202020BE
:2049E900202020202020202020202020202020202020202564202020202020200A200D208E
:204A0900000A0025632020000A0D42756666657220302069732066726565642066726F6D04
:204A2900206D656D6F72790A0D000A200D2042756666657220256420697320667265656421
:204A49002066726F6D20746865206D656D6F7279200A200D000A200D202A2A2A2A2A2A2A8B
:204A69002A2A2A2A2A2A2A2A2A2A2A2A2A2A2A2A2A2A2A2A2A2A2A2A2A2A2A2A2A2A2A2AED
:204A89002A2A2A2A2A486561702073697A652069732066726565642A2A2A2A2A2A2A2A2A46
:204AA9002A2A2A2A2A2A2A2A2A2A2A2A2A2A2A2A2A2A2A2A2A2A2A2A2A2A2A2A2A2A2A2AAD
:0B4AC9002A2A2A2A2A2A200A200D008F
:014ADF0000D6
:202EA500AFF0AE83E582901745F0EEA3F0EFA3F0901745E0FDA3E0FEA3E0901745E0F5F079
:202EC500A3E045F070012290174AE4F0A3F0901755E0FBA3E0FC901748EBF0ECA3F0901704
:202EE5004C7455F07417A3F0901748E0FBA3E0FC4B60418B018C02C003C0048D008E04C3F2
:202F0500E998EA9CD004D003502A90174AEBF0ECA3F074022BFBE43CFC90174CEBF0ECA324
:202F2500F08B828C83E0FBA3E0FC901748EBF0ECA3F080B4901748E0FEA3E0FF901745E08E
:202F4500FBA3E0FCA3E0EB24FEFBEC34FFFC74022BFAE43CFD8A828D83EEF0EFA3F0901771
:202F65004CE0F8A3E0F988828983EBF0ECA3F08B828C83E0F8A3E0F9EEB50033EFB5012F22
:202F850088828983A3A3E0FEA3E0FF8A828D83EEF0EFA3F08B828C83E0FEA3E0FF8E828FD9
:202FA50083E0FEA3E0FF8B828C83EEF0EFA3F090174AE0FEA3E0FF4E603C8E828F83E0F878
:202FC500A3E0F9E8B5032FE9B5042B8B828C83E0FBA3E0FC8E828F83EBF0ECA3F074022E3E
:172FE500FEE43FFF8A828D83E0FAA3E0FD8E828F83EAF0EDA3F022A1
:06223500E478FFF6D8FD7D
:202FFC00AFF0AE83E58290174EF0EEA3F0EFA3F0901751E4F0A3F090174EE0FDA3E0FEA341
:20301C00E0FF8D828E838FF0123F89FCBC20028003BC09120DBD00010E90174EEDF0EEA3CC
:20303C00F0EFA3F080DC90174EEDF0EEA3F0EFA3F08D828E838FF0123F89FC901753E4BCC2
:20305C002D0104F0BC2D028003BC2B0E90174E74012DF0E43EA3F0EFA3F090174EE0FDA39C
:20307C00E0FEA3E0FF8D828E838FF0123F89FCBC3000405DEC24C64058901751E0FBA3E012
:20309C00FC90175DEBF0ECA3F090000AC007C006C0051233E5AB82AC83D005D006D0078D39
:2030BC00828E838FF0123F89FAA3AD82AE8390174EEDF0EEA3F0EFA3F08A017A00E924D054
:2030DC00F9EA34FFFA901751E92BF0EA3CA3F0809490174EEDF0EEA3F0EFA3F0901753E04C
:2030FC006011901751E0FEA3E0FFC3E49EFEE49FFF8008901751E0FEA3E0FF8E828F832202
:202213007901E94400601B7A01904ADF789F75A017E493F2A308B8000205A0D9F4DAF27591
:02223300A0FF0A
:1B311C0020F71130F6138883A88220F509F6A8837583002280FEF280F5F022B2
:20313700C020858120E52024FDF8868318868218E493A324DB600C2425600512322580F007
:2031570002323DD2D5E493A3C083C082B4731486F018868318868218123F896054A3123222
:203177002580F5B4630818E6181232258043B46417E630E74618E6F42401F608E6F43400A8
:20319700F6742D1232258033B4782D868318868218E4123216E583123215E583123216E525
:2031B70082123215E58212321630D5057430123225D082D083023147B475F6E6FA18E6F930
:2031D700187C107D27123200FF7CE87D03123200C4F5837C647D001232004283E975F00A2B
:2031F70084C445F0F582EF80A97B000BC3E99CF9EA9DFA50F61BE92CF9EA3DFAEB22C454AF
:203217000F700320D51FC2D52490D43440D4C083C082C0F0F582E8C0E0122262D0E0F8D058
:09323700F0D082D08322D02022C5
:203240009017557400F07404A3F0903FA9E493FE740193FF1EBEFF011FEE2400FEEF3404DD
:20326000FF900400EEF0EFA3F0901755E0FEA3E0FF8E828F83A3A3E4F0A3F022AF83E58275
:20328000901757F0EFA3F0901755E0F5F0A3E045F07003123240901757E0FEA3E0FF4E6042
:2032A0000E74022EFCE43FFDC3EC9EED9F50049000002290175774022EF0E43FA3F0901772
:2032C00057E0FEA3E0FFC3EE9404EF940050099017577404F0E4A3F0901755E0FEA3E0FFD9
:2032E000901759EEF0EFA3F090175B7455F07417A3F0901759E0FEA3E0FF4E70030233E15E
:203300008E828F83E0FCA3E0FD8C028D038E008F01EAC398FAEB99FB8A008B01901757E041
:20332000F51EA3E0F51FC3E8951EE9951F50030233BE7404251EF8E4351FF9C3EA98EB99F5
:20334000404C8E028F03E51E2AFAE51F3BFB8A828B83ECF0EDA3F074022AFCE43BFD8E8220
:203360008F83A3A3E0F8A3E0F98C828D83E8F0E9A3F090175BE0FCA3E0FD8C828D83EAF0D9
:20338000EBA3F08E828F83EAF0EBA3F0801C90175BE0FCA3E0FD8E828F83A3A3E0FAA3E076
:2033A000FB8C828D83EAF0EBA3F0901759E0FCA3E0FD74022CFCE43DFD8C828D83227402CE
:2033C0002EFEE43FFF90175BEEF0EFA3F08E828F83E0FEA3E0FF901759EEF0EFA3F0023227
:0533E000F29000002244
:2033E500AA83AB828BF090175DE0A4F8A9F08AF0E0A429F98BF0A3E0A429F5838882222229
:20340500AF83E582901761F0EFA3F0901761E0FEA3E0FF30E709C3E49EFCE49FFD80048E39
:20342500048F0590175FE0FEA3E0FF30E709C3E49EFAE49FFB80048E028F03901763EAF022
:20344500EBA3F08C828D8312346DAE82AF83901761E0A3E030E70CC3E49EFCE49FFD8C8259
:083465008D83228E828F8322E9
:20346D00AF83E582901765F0EFA3F0901767E4F0901765E0FEA3E0FF7D00901763E0FBA3D5
:20348D00E0FC235401FA7036EB2BFBEC33FC901763EBF0ECA3F0901763E0FBA3E0FCC3EE86
:2034AD009BEF9C5011ECC313CB13CBFC901763EBF0ECA3F080080D901767EDF080BC90174A
:2034CD0067E0FF901765E0FDA3E0FE901763E0FBA3E0FCC3ED9BEE9C400B901765EDC39B54
:2034ED00F0EE9CA3F0901763E0FDA3E0C313CD13CDFE901763EDF0EEA3F08F061FEE70C38A
:0C350D00901765E0FEA3E08E82F583229B
:20223B007800E84400600A790075A004E4F309D8FC789FE84413600C7914900400E4F0A3D5
:04225B00D8FCD9FAD8
:20351900C0208581207E008E83122262D02022AFF0AE83E582901769F0EEA3F0EFA3F0908B
:203539001769E0FDA3E0FEA3E0FF901768E0FC90177DE4F0A3F0A3F0901780EDF0EEA3F084
:20355900EFA3F0901783ECF0903519023670C020E581F52024FBFF90177DE4F0A3F0A3F0AD
:20357900E52024FBF8901780E6F008E6A3F008E6A3F0901783EFF0903519123670D0202266
:20359900E582901779F0E0FF90176FE0C0E0A3E0C0E0A3E0C0E01235B4800D90176DE0C0A4
:2035B900E0A3E0C0E08F8222158115811581901777E02401F0A3E03400F022E58290177A96
:2035D900F0E02430FF24C6500D74072FFF90176CE060034307208F82023599E58290177B95
:2035F900F0E0FFC4540FF582C0071235D4D00753070F8F820235D4E58290177CF090177274
:20361900E0FCA3E0FDA3E0FEA3E0FF901776E0FB752B2090177CE0F98B00E828F8EF235485
:203639000148FBEC2CFCED33FDEE33FEEF33FFC3EB994007EBC399FB430401E52B14FA8AFC
:203659002B70D5901772ECF0EDA3F0EEA3F0EFA3F0901776EBF022AF83E582901784F0EFAC
:20367900A3F0901784E0FEA3E0FF90176DEEF0EFA3F090177DE0FDA3E0FEA3E0FF90176F85
:20369900EDF0EEA3F0EFA3F0901777E4F0A3F0901780E0FDA3E0FEA3E0FF8D828E838FF006
:2036B900123F89FC90178074012DF0E43EA3F0EFA3F0EC7003023F65BC25028003023F5D22
:2036D900901786E4F0901787F0901788F0901789F090178AF090178BF090178CF090178DD9
:2036F900F090178FF0901790F0A3F090179214F0A3F0901780E0FDA3E0FEA3E0FF8D828E6D
:20371900838FF0123F89FBA3AD82AE83901780EDF0EEA3F0EFA3F0901796EBF0BB25088B24
:20373900821235990236A8BB30005003023809EB24C65003023809901792E0F521A3E0F59B
:203759002274FFB52163B52260C005C006C007901790E0FAA3E0FF90175DEAF0EFA3F09076
:20377900000AC005C0031233E5AE82AF83D003D0058B027D00EA2EFEED3FFFEE24D0FEEF50
:2037990034FFFF901790EEF0EFA3F0D007D006D005901790E0F5F0A3E045F060030237165F
:2037B9009017877401F0023716C005C006C00790175DE521F0E522A3F090000AC006C00503
:2037D900C0031233E5AA82AF83D003D005D0067E00EB2AFAEE3FFFEA24D0FAEF34FFFF90C5
:2037F9001792EAF0EFA3F0D007D006D005023716901796E0FBBB2E2FC005C006C0079017B1
:2038190092E0FAA3E0FFBAFF05BFFF028009D007D006D005023716D007D006D0059017920E
:20383900E4F0A3F0023716BB61004014EB2485400F90179674DF5BF090176C7401F080058E
:2038590090176CE4F0901796E0FBBB20028075BB2B028067BB2D028059BB4202806FBB4300
:2038790002807CBB4403023B00BB4603023B26BB4803023716BB4903023B00BB4A030237B1
:2038990016BB4C028050BB4F03023B0EBB5003023A6EBB53028077BB5403023716BB550395
:2038B900023B16BB5803023B1EBB5A03023716023B2E9017867401F00237169017887401D4
:2038D900F00237169017897401F002371690178B7401F002371690178C7401F0023716904F
:2038F900178BE0600E901783E014F9F0901796E7F0800F901783E024FEFFF08F019017962D
:20391900E7F0901796E0F582123599023B3D901783E024FDFFF08F01870509870609870766
:203939001919901772EDF0EEA3F0EFA3F08D828E838FF0123F71858221858322901792E077
:20395900FAA3E0FDBAFF0DBDFF0A901792E521F0E522A3F0901786E0704B901790E0FAA303
:20397900E0FDC3E5219AE5229D503A901790EAC39521F0ED9522A3F0901790E0FAA3E0FD6E
:203999008A068D071ABAFF011DEE4F6010758220C005C002123599D002D00580E39017908D
:2039B900EAF0EDA3F0901792E0F524A3E0F525901772E0FAA3E0FDA3E0FF8A828D838FF035
:2039D900123F89F523603CC3E4952474808525F063F08095F0502C152474FFB524021525BD
:2039F900852382123599901772E0FAA3E0FDA3E0FF0ABA00010D901772EAF0EDA3F0EFA3D8
:203A1900F080AC901786E07003023B3D901790E0FEA3E0FFC3E5219EE5229F4003023B3D16
:203A3900901790EEC39521F0EF9522A3F0901790E0FEA3E0FF8E028F051EBEFF011FEA4DB9
:203A59007003023B35758220C007C006123599D006D00780E0901783E024FDFDF08D0187AA
:203A7900260987270987281919901772E526F0E527A3F0E528A3F0901774E0FDBD8000409E
:203A9900089017967443F08020BD600040089017967450F08013BD40004008901796744959
:203AB900F080069017967458F0901796E0FDF582C00512359975823A1235997582301235C9
:203AD90099758278123599D005BD4902800EBD50028009901773E0F5821235F4901772E03D
:203AF900F5821235F4803D90178A7401F090178F740AF0802F90178F7408F0802790178FD6
:203B1900740AF0801F90178F7410F0801790178D7401F0800F8B821235998008901790EE7C
:203B3900F0EFA3F090178DE06071901783E024FCFFF08F0187030987050987060987071907
:203B59001919901772EBF0EDA3F0EEA3F0EFA3F090177274D4F0744AA3F07480A3F09017D3
:203B790072E0F526A3E0F527A3E0F52874012526FAE43527FBAF28901772EAF0EBA3F0EF54
:203B9900A3F08526828527838528F0123F89FF70030236A88F8212359980C390178FE0709A
:203BB900030236A890178BE06047901783E014F9F087077E007D007B00901772EFF0EEA3BC
:203BD900F0EDA3F0EBA3F090178AE06003023C80901772E0FBA3E0A3E0A3E07D007E007FB5
:203BF90000901772EBF0EDA3F0EEA3F0EFA3F0807690178CE06028901783E024FCFFF08FFC
:203C1900018703098705098706098707191919901772EBF0EDA3F0EEA3F0EFA3F080489024
:203C39001783E024FEFFF08F01870609870719EF3395E0FDFB901772EEF0EFA3F0EDA3F08B
:203C5900EBA3F090178AE0701E901772E0FBA3E0FDA3E0A3E07E007F00901772EBF0EDA333
:203C7900F0EEA3F0EFA3F090178AE06041901772E0FBA3E0FDA3E0FEA3E0FF30E72B901726
:203C990072E0FBA3E0FDA3E0FEA3E0FFC3E49BFBE49DFDE49EFEE49FFF901772EBF0EDA3FA
:203CB900F0EEA3F0EFA3F0800590178AE4F090178E7401F090178FE0F52475299C752A17B5
:203CD900E4F521F522901776E4F085248212361090178EE07026901776E0C4F5268529828F
:203CF900852A83E0FFE5264207852982852A83EFF0152974FFB52902152A800C901776E0AC
:203D1900FF852982852A83F00521E4B52102052290178EE0B40100E433F0901772E0FAA3C9
:203D3900E0FBA3E0FEA3E0FFEA4B4E4F709790179DE529F0E52AA3F0901794E521F0E52297
:203D5900A3F0901790E0F5F0A3E045F070099017907401F0E4A3F0901787E0FFE070479043
:203D79001786E0704185212985222A901790E0FAA3E0FBC007AF290F8F067F00C3EE9AEFD1
:203D99009BD0075019758220C007C003C002123599D002D003D0071ABAFF011B80D5901785
:203DB90090EAF0EBA3F090178AE0602075822DC007123599D007901790E024FFFDA3E034E1
:203DD900FFFE901790EDF0EEA3F08056901794E0F5F0A3E045F0604A901788E0602075827A
:203DF9002BC007123599D007901790E024FFFDA3E034FFFE901790EDF0EEA3F08024901736
:203E190089E0601E758220C007123599D007901790E024FFFDA3E034FFFE901790EDF0EE20
:203E3900A3F0901786E07048901794E0F529A3E0F52A901790E0FAA3E0FBC0078A068B07BE
:203E59001ABAFF011BC3E5299EE52A9FD0075053EF60067D307E0080047D207E008D82C0D5
:203E790007C003C002123599D002D003D00780CA901790E0FEA3E0FF901794E0F529A3E0A4
:203E9900F52AC3E5299EE52A9F500F901790EEC39529F0EF952AA3F08011901790E4F0A358
:203EB900F08008901790EAF0EBA3F090179DE0FEA3E0FF901794E0F529A3E0F52AAA29ADE3
:203ED9002A152974FFB52902152AEA4D604590178EE0B40100E433F090178EE070140EBEBD
:203EF90000010F8E828F83E0C4540FFD901776F0800E8E828F83E0FD53050F901776EDF078
:203F1900901776E0F582C007C0061235D4D006D00780AA901786E070030236A8901790E01E
:203F3900FEA3E0FF8E038F051EBEFF011FEB4D70030236A8758220C007C006123599D006E3
:183F5900D00780E08C821235990236A8901777E0FEA3E08E82F5832222
:0B4AD4003C4E4F20464C4F41543E002A
:183F7100AA82AB83123F896003A380F8C3E5829AF582E5839BF58322AE
:0D22060075812B123FA5E5826003022203C3
:1C3F890020F71430F6148883A88220F507E6A88375830022E280F7E49322E02247
:043FA50075820022FF
:00000001FF
