:03220000022206B1
:03225F0002220355
:032203000223941F
:1022620090000022AF83E5829013A0F0EFA3F0303C
:1022720099FD9013A0E0FEA3E0FF8E99C2998E8291
:102282008F832210980280FBAE997F008E828F830B
:1022920022AFF0AE83E5829013A2F0EEA3F0EFA39B
:1022A200F09013A2E0FDA3E0FEA3E0FF7B007C0020
:1022B2008D828E838FF01233B5FA60360DBD000128
:1022C2000E9013A2EDF0EEA3F0EFA3F08A017A00D4
:1022D20089828A83C007C006C005C004C0031222D7
:1022E20066D003D004D005D006D0070BBB00C10CCA
:1022F20080BE9013A2EDF0EEA3F0EFA3F00BBB00B3
:10230200010C8B828C83227E007F00C3EE9404EF4B
:10231200648094805049C007C006122285AC82AD09
:1023220083D006D007BC0D148E02EFFB3395E0FD7F
:102332008A828B838DF0E41227658023BC300040B3
:102342001EEC24C640198E02EFFB3395E0FD8A8213
:102352008B838DF0EC1227650EBE00AF0F80AC9020
:10236200000075F000122645AE82AF83C007C0069A
:10237200C006C00774D3C0E07433C0E07480C0E00C
:10238200122993E58124FBF581D006D0078E828F36
:1023920083229033DE75F080122293122309AE82DB
:1023A200AF83C007C006C006C0077418C0E074340B
:1023B200C0E07480C0E0122993E58124FBF581D04E
:1023C20006D0078E048F05C3741F9CE49D50718E46
:1023D200048F05C3EC9481ED940C50648E048F0538
:1023E200EC540F600280598E828F83C007C00612A0
:1023F20027DCAC82AD83D006D0079013A5ECF0EDBC
:10240200A3F0EC4D701390343275F080C007C00613
:10241200122293D006D00780387B00C007C006C0C6
:1024220004C005C0037454C0E07434C0E07480C0BA
:10243200E0122993E58124FAF581D006D0078011B4
:1024420090349775F080C007C006122293D006D050
:10245200078E048F05C3EC94D0ED940750328E8220
:102462008F831227DCAE82AF839013A7EEF0EFA327
:10247200F07D00C006C007C00574D7C0E07434C048
:10248200E07480C0E0122993E58124FAF581801C72
:102492009013A5E0FEA3E0FF7D008E828F838DF076
:1024A2001224EE90350475F0801222939013A7E067
:1024B200FEA3E0FF9013A7E0F5F0A3E045F0700B58
:1024C20090353A75F080122293801D7D00C006C0BF
:1024D20007C005745CC0E07435C0E07480C0E012CF
:0C24E2002993E58124FAF5819000002286
:1033D100A00F2F6E202F722025642F6E00456E7472
:1033E1006572206E756D626572206F6620627974F8
:1033F100657320666F722062756666657220696EFC
:103401002072616E6765206F6620333220616E64C1
:1034110020333230300A000A205468652056616C2E
:10342100756520656E746572656420697320256415
:10343100000A200D20425546464552203020636146
:103441006E6E6F7420626520616C6C6F6361746570
:10345100640A000A0D204255464645522030206933
:1034610073207375636365737366756C6C79206122
:103471006C6C6F6361746564207573696E67206D30
:10348100616C6C6F63206174206164647265737335
:103491002025700A0D000A200D2052652D656E74DD
:1034A1006572206E756D626572206F662062797437
:1034B100657320666F722062756666657220696E3B
:1034C1002072616E6765206F6620333220616E6401
:1034D1002033323030000A200D2042756666657255
:1034E1007320617265207375636365737366756CB0
:1034F1006C7920616C6C6F63617465642061742008
:103501002570000A200D2042756666657220302004
:10351100636C65617265642C706C656173652065AF
:103521006E74657220736D616C6C65722062756674
:103531006665722073697A65000A200D204D656DFC
:103541006F7279206E6F7420616C6C6F636174654A
:103551006420696E20686561700A000A0D42756613
:103561006665722031207375636365737366756C6C
:103571006C7920616C6C6F6361746564207573692B
:103581006E67206D616C6C6F63206174206164648F
:0A359100726573732025700A0D00A7
:0135A6000024
:1024EE00AFF0AE83E5829013A9F0EEA3F0EFA3F068
:1024FE009013A9E0FDA3E0FEA3E09013A9E0F5F090
:10250E00A3E045F07001229013AEE4F0A3F0901317
:10251E00BBE0FBA3E0FC9013ACEBF0ECA3F090134C
:10252E00B074BBF07413A3F09013ACE0FBA3E0FC0B
:10253E004B60418B018C02C003C0048D008E04C31E
:10254E00E998EA9CD004D003502A9013AEEBF0EC3D
:10255E00A3F074022BFBE43CFC9013B0EBF0ECA365
:10256E00F08B828C83E0FBA3E0FC9013ACEBF0ECE1
:10257E00A3F080B49013ACE0FEA3E0FF9013A9E0AB
:10258E00FBA3E0FCA3E0EB24FEFBEC34FFFC7402A7
:10259E002BFAE43CFD8A828D83EEF0EFA3F09013CC
:1025AE00B0E0F8A3E0F988828983EBF0ECA3F08B1E
:1025BE00828C83E0F8A3E0F9EEB50033EFB5012F7E
:1025CE0088828983A3A3E0FEA3E0FF8A828D83EE37
:1025DE00F0EFA3F08B828C83E0FEA3E0FF8E828F60
:1025EE0083E0FEA3E0FF8B828C83EEF0EFA3F090EE
:1025FE0013AEE0FEA3E0FF4E603C8E828F83E0F8C8
:10260E00A3E0F9E8B5032FE9B5042B8B828C83E0A8
:10261E00FBA3E0FC8E828F83EBF0ECA3F074022E12
:10262E00FEE43FFF8A828D83E0FAA3E0FD8E828F67
:07263E0083EAF0EDA3F02296
:06223500E478FFF6D8FD7D
:10264500AFF0AE83E5829013B2F0EEA3F0EFA3F006
:102655009013B5E4F0A3F09013B2E0FDA3E0FEA360
:10266500E0FF8D828E838FF01233B5FCBC20028093
:1026750003BC09120DBD00010E9013B2EDF0EEA3DF
:10268500F0EFA3F080DC9013B2EDF0EEA3F0EFA332
:10269500F08D828E838FF01233B5FC9013B7E4BCB6
:1026A5002D0104F0BC2D028003BC2B0E9013B274D7
:1026B500012DF0E43EA3F0EFA3F09013B2E0FDA3EB
:1026C500E0FEA3E0FF8D828E838FF01233B5FCBC54
:1026D5003000405DEC24C640589013B5E0FBA3E004
:1026E500FC9013B9EBF0ECA3F090000AC007C0060C
:1026F500C005122780AB82AC83D005D006D0078DEC
:10270500828E838FF01233B5FAA3AD82AE83901318
:10271500B2EDF0EEA3F0EFA3F08A017A00E924D040
:10272500F9EA34FFFA9013B5E92BF0EA3CA3F080FF
:10273500949013B2EDF0EEA3F0EFA3F09013B7E091
:1027450060119013B5E0FEA3E0FFC3E49EFEE49F95
:10275500FF80089013B5E0FEA3E0FF8E828F8322F1
:102213007901E94400601B7A019035A678FA75A02C
:1022230013E493F2A308B8000205A0D9F4DAF27517
:02223300A0FF0A
:1027650020F71130F6138883A88220F509F6A8838F
:102775007583002280FEF280F5F022AA83AB828B5E
:10278500F09013B9E0A4F8A9F08AF0E0A429F98B38
:10279500F0A3E0A429F583888222229013BB74005C
:1027A500F07404A3F09033D1E493FE740193FF1EFB
:1027B500BEFF011FEE2400FEEF3404FF900400EE7F
:1027C500F0EFA3F09013BBE0FEA3E0FF8E828F83B2
:1027D500A3A3E4F0A3F022AF83E5829013BDF0EF4D
:1027E500A3F09013BBE0F5F0A3E045F070031227CA
:1027F500A09013BDE0FEA3E0FF4E600E74022EFC18
:10280500E43FFDC3EC9EED9F500490000022901321
:10281500BD74022EF0E43FA3F09013BDE0FEA3E0EB
:10282500FFC3EE9404EF940050099013BD7404F0B7
:10283500E4A3F09013BBE0FEA3E0FF9013BFEEF01E
:10284500EFA3F09013C174BBF07413A3F09013BF02
:10285500E0FEA3E0FF4E70030229418E828F83E0E4
:10286500FCA3E0FD8C028D038E008F01EAC398FA6C
:10287500EB99FB8A008B019013BDE0F508A3E0F509
:1028850009C3E89508E99509500302291E74042532
:1028950008F8E43509F9C3EA98EB99404C8E028FA4
:1028A50003E5082AFAE5093BFB8A828B83ECF0ED08
:1028B500A3F074022AFCE43BFD8E828F83A3A3E080
:1028C500F8A3E0F98C828D83E8F0E9A3F09013C1B9
:1028D500E0FCA3E0FD8C828D83EAF0EBA3F08E8211
:1028E5008F83EAF0EBA3F0801C9013C1E0FCA3E01A
:1028F500FD8E828F83A3A3E0FAA3E0FB8C828D83F8
:10290500EAF0EBA3F09013BFE0FCA3E0FD74022C0A
:10291500FCE43DFD8C828D832274022EFEE43FFF94
:102925009013C1EEF0EFA3F08E828F83E0FEA3E05B
:10293500FF9013BFEEF0EFA3F002285290000022A3
:10223B007800E84400600A790075A004E4F309D83B
:10224B00FC78FAE8440F600C7910900400E4F0A3DA
:04225B00D8FCD9FAD8
:10294500C0148581147E008E83122266D01422AFB6
:10295500F0AE83E5829013C4F0EEA3F0EFA3F09000
:1029650013C4E0FDA3E0FEA3E0FF9013C3E0FC90D9
:1029750013D8E4F0A3F0A3F09013DBEDF0EEA3F091
:10298500EFA3F09013DEECF0902945022A9CC014C9
:10299500E581F51424FBFF9013D8E4F0A3F0A3F030
:1029A500E51424FBF89013DBE6F008E6A3F008E64F
:1029B500A3F09013DEEFF0902945122A9CD0142243
:1029C500E5829013D4F0E0FF9013CAE0C0E0A3E0E5
:1029D500C0E0A3E0C0E01229E0800D9013C8E0C07C
:1029E500E0A3E0C0E08F8222158115811581901347
:1029F500D2E02401F0A3E03400F022E5829013D563
:102A0500F0E02430FF24C6500D74072FFF9013C744
:102A1500E060034307208F820229C5E5829013D623
:102A2500F0E0FFC4540FF582C007122A00D0075307
:102A3500070F8F82022A00E5829013D7F09013CDFD
:102A4500E0FCA3E0FDA3E0FEA3E0FF9013D1E0FBD3
:102A55007515209013D7E0F98B00E828F8EF23547B
:102A65000148FBEC2CFCED33FDEE33FEEF33FFC3E9
:102A7500EB994007EBC399FB430401E51514FA8A6A
:102A85001570D59013CDECF0EDA3F0EEA3F0EFA308
:102A9500F09013D1EBF022AF83E5829013DFF0EFD6
:102AA500A3F09013DFE0FEA3E0FF9013C8EEF0EF74
:102AB500A3F09013D8E0FDA3E0FEA3E0FF9013CAB6
:102AC500EDF0EEA3F0EFA3F09013D2E4F0A3F090B5
:102AD50013DBE0FDA3E0FEA3E0FF8D828E838FF084
:102AE5001233B5FC9013DB74012DF0E43EA3F0EF37
:102AF500A3F0EC7003023391BC25028003023389F5
:102B05009013E1E4F09013E2F09013E3F09013E4F6
:102B1500F09013E5F09013E6F09013E7F09013E8CA
:102B2500F09013EAF09013EBF0A3F09013ED14F08E
:102B3500A3F09013DBE0FDA3E0FEA3E0FF8D828E02
:102B4500838FF01233B5FBA3AD82AE839013DBED1B
:102B5500F0EEA3F0EFA3F09013F1EBF0BB25088B9B
:102B6500821229C5022AD4BB30005003022C35EB52
:102B750024C65003022C359013EDE0F50AA3E0F5C9
:102B85000B74FFB50A63B50B60C005C006C007909E
:102B950013EBE0FAA3E0FF9013B9EAF0EFA3F0908E
:102BA500000AC005C003122780AE82AF83D003D0D0
:102BB500058B027D00EA2EFEED3FFFEE24D0FEEFF1
:102BC50034FFFF9013EBEEF0EFA3F0D007D006D063
:102BD500059013EBE0F5F0A3E045F06003022B420E
:102BE5009013E27401F0022B42C005C006C00790A5
:102BF50013B9E50AF0E50BA3F090000AC006C0057D
:102C0500C003122780AA82AF83D003D005D0067EE9
:102C150000EB2AFAEE3FFFEA24D0FAEF34FFFF90EB
:102C250013EDEAF0EFA3F0D007D006D005022B4252
:102C35009013F1E0FBBB2E2FC005C006C007901313
:102C4500EDE0FAA3E0FFBAFF05BFFF028009D00758
:102C5500D006D005022B42D007D006D0059013ED43
:102C6500E4F0A3F0022B42BB61004014EB24854045
:102C75000F9013F174DF5BF09013C77401F08005BA
:102C85009013C7E4F09013F1E0FBBB20028075BB05
:102C95002B028067BB2D028059BB4202806FBB436C
:102CA50002807CBB4403022F2CBB4603022F52BB80
:102CB5004803022B42BB4903022F2CBB4A03022BBC
:102CC50042BB4C028050BB4F03022F3ABB5003025C
:102CD5002E9ABB53028077BB5403022B42BB55038C
:102CE500022F42BB5803022F4ABB5A03022B420252
:102CF5002F5A9013E17401F0022B429013E37401F3
:102D0500F0022B429013E47401F0022B429013E67B
:102D15007401F0022B429013E77401F0022B4290EC
:102D250013E6E0600E9013DEE014F9F09013F1E77E
:102D3500F0800F9013DEE024FEFFF08F019013F179
:102D4500E7F09013F1E0F5821229C5022F6990137F
:102D5500DEE024FDFFF08F01870509870609870757
:102D650019199013CDEDF0EEA3F0EFA3F08D828E3F
:102D7500838FF012339D85820A85830B9013EDE0D6
:102D8500FAA3E0FDBAFF0DBDFF0A9013EDE50AF0C9
:102D9500E50BA3F09013E1E0704B9013EBE0FAA381
:102DA500E0FDC3E50A9AE50B9D503A9013EBEAC3A3
:102DB500950AF0ED950BA3F09013EBE0FAA3E0FD77
:102DC5008A068D071ABAFF011DEE4F601075822025
:102DD500C005C0021229C5D002D00580E39013EBCF
:102DE500EAF0EDA3F09013EDE0F50DA3E0F50E90FC
:102DF50013CDE0FAA3E0FDA3E0FF8A828D838FF077
:102E05001233B5F50C603CC3E4950D7480850EF066
:102E150063F08095F0502C150D74FFB50D02150E5D
:102E2500850C821229C59013CDE0FAA3E0FDA3E03D
:102E3500FF0ABA00010D9013CDEAF0EDA3F0EFA360
:102E4500F080AC9013E1E07003022F699013EBE082
:102E5500FEA3E0FFC3E50A9EE50B9F4003022F6931
:102E65009013EBEEC3950AF0EF950BA3F09013EBDF
:102E7500E0FEA3E0FF8E028F051EBEFF011FEA4D97
:102E85007003022F61758220C007C0061229C5D0C4
:102E950006D00780E09013DEE024FDFDF08D01876C
:102EA5000F09871009871119199013CDE50FF0E562
:102EB50010A3F0E511A3F09013CFE0FDBD80004015
:102EC500089013F17443F08020BD60004008901312
:102ED500F17450F08013BD400040089013F174491F
:102EE500F080069013F17458F09013F1E0FDF5822F
:102EF500C0051229C575823A1229C5758230122975
:102F0500C57582781229C5D005BD4902800EBD5010
:102F15000280099013CEE0F582122A209013CDE0AD
:102F2500F582122A20803D9013E57401F09013EA92
:102F3500740AF0802F9013EA7408F080279013EA42
:102F4500740AF0801F9013EA7410F080179013E84C
:102F55007401F0800F8B821229C580089013EBEE67
:102F6500F0EFA3F09013E8E060719013DEE024FC2D
:102F7500FFF08F0187030987050987060987071968
:102F850019199013CDEBF0EDA3F0EEA3F0EFA3F03C
:102F95009013CD749BF07435A3F07480A3F0901357
:102FA500CDE0F50FA3E0F510A3E0F5117401250FB1
:102FB500FAE43510FBAF119013CDEAF0EBA3F0EF77
:102FC500A3F0850F828510838511F01233B5FF704C
:102FD50003022AD48F821229C580C39013EAE070B8
:102FE50003022AD49013E6E060479013DEE014F95B
:102FF500F087077E007D007B009013CDEFF0EEA3F8
:10300500F0EDA3F0EBA3F09013E5E060030230AC24
:103015009013CDE0FBA3E0A3E0A3E07D007E007F5D
:10302500009013CDEBF0EDA3F0EEA3F0EFA3F0804D
:10303500769013E7E060289013DEE024FCFFF08F24
:103045000187030987050987060987071919199053
:1030550013CDEBF0EDA3F0EEA3F0EFA3F0804890D5
:1030650013DEE024FEFFF08F01870609870719EFBD
:103075003395E0FDFB9013CDEEF0EFA3F0EDA3F05B
:10308500EBA3F09013E5E0701E9013CDE0FBA3E0F9
:10309500FDA3E0A3E07E007F009013CDEBF0EDA350
:1030A500F0EEA3F0EFA3F09013E5E060419013CDAF
:1030B500E0FBA3E0FDA3E0FEA3E0FF30E72B9013C8
:1030C500CDE0FBA3E0FDA3E0FEA3E0FFC3E49BFB93
:1030D500E49DFDE49EFEE49FFF9013CDEBF0EDA390
:1030E500F0EEA3F0EFA3F080059013E5E4F0901364
:1030F500E97401F09013EAE0F50D7512F7751313F5
:10310500E4F50AF50B9013D1E4F0850D82122A3C03
:103115009013E9E070269013D1E0C4F50F85128273
:10312500851383E0FFE50F4207851282851383EF40
:10313500F0151274FFB512021513800C9013D1E02F
:10314500FF851282851383F0050AE4B50A02050B93
:103155009013E9E0B40100E433F09013CDE0FAA355
:10316500E0FBA3E0FEA3E0FFEA4B4E4F7097901300
:10317500F8E512F0E513A3F09013EFE50AF0E50B7F
:10318500A3F09013EBE0F5F0A3E045F07009901380
:10319500EB7401F0E4A3F09013E2E0FFE0704790D8
:1031A50013E1E07041850A12850B139013EBE0FAE9
:1031B500A3E0FBC007AF120F8F067F00C3EE9AEFA7
:1031C5009BD0075019758220C007C003C002122981
:1031D500C5D002D003D0071ABAFF011B80D59013C2
:1031E500EBEAF0EBA3F09013E5E0602075822DC0CB
:1031F500071229C5D0079013EBE024FFFDA3E034A7
:10320500FFFE9013EBEDF0EEA3F080569013EFE088
:10321500F5F0A3E045F0604A9013E3E06020758285
:103225002BC0071229C5D0079013EBE024FFFDA39F
:10323500E034FFFE9013EBEDF0EEA3F08024901345
:10324500E4E0601E758220C0071229C5D0079013DF
:10325500EBE024FFFDA3E034FFFE9013EBEDF0EE71
:10326500A3F09013E1E070489013EFE0F512A3E0AE
:10327500F5139013EBE0FAA3E0FBC0078A068B0772
:103285001ABAFF011BC3E5129EE5139FD0075053E1
:10329500EF60067D307E0080047D207E008D82C03B
:1032A50007C003C0021229C5D002D003D00780CAC7
:1032B5009013EBE0FEA3E0FF9013EFE0F512A3E01F
:1032C500F513C3E5129EE5139F500F9013EBEEC364
:1032D5009512F0EF9513A3F080119013EBE4F0A392
:1032E500F080089013EBEAF0EBA3F09013F8E0FE02
:1032F500A3E0FF9013EFE0F512A3E0F513AA12ADDA
:1033050013151274FFB512021513EA4D604590139B
:10331500E9E0B40100E433F09013E9E070140EBE67
:1033250000010F8E828F83E0C4540FFD9013D1F0FE
:10333500800E8E828F83E0FD53050F9013D1EDF043
:103345009013D1E0F582C007C006122A00D006D03E
:103355000780AA9013E1E07003022AD49013EBE0F2
:10336500FEA3E0FF8E038F051EBEFF011FEB4D7010
:1033750003022AD4758220C007C0061229C5D006CB
:10338500D00780E08C821229C5022AD49013D2E09E
:08339500FEA3E08E82F5832205
:0B359B003C4E4F20464C4F41543E0078
:10339D00AA82AB831233B56003A380F8C3E5829A8A
:0833AD00F582E5839BF5832204
:0D220600758115122262E582600302220339
:1033B50020F71430F6148883A88220F507E6A88341
:0C33C50075830022E280F7E49322E022EE
:00000001FF
