:03220000022206B1
:03225F0002220355
:032203000223862D
:1022620090000022AF83E5829013A0F0EFA3F0303C
:1022720099FD9013A0E0FEA3E0FF8E99C2998E8291
:102282008F832210980280FBAE997F008E828F830B
:1022920022AFF0AE83E5829013A2F0EEA3F0EFA39B
:1022A200F09013A2E0FDA3E0FEA3E0FF7B007C0020
:1022B2008D828E838FF0123352FA60360DBD00018B
:1022C2000E9013A2EDF0EEA3F0EFA3F08A017A00D4
:1022D20089828A83C007C006C005C004C0031222D7
:1022E20066D003D004D005D006D0070BBB00C10CCA
:1022F20080BE9013A2EDF0EEA3F0EFA3F00BBB00B3
:10230200010C8B828C83227E007F00C3EE9405EF4A
:1023120064809480503BC007C006122285AC82D0F4
:1023220006D007BC0D0EEE24A5F582EF3413F5831B
:10233200E4F0801DBC30004018EC24C64013EE24AB
:10234200A5F582EF3413F583ECF00EBE00BD0F80CD
:10235200BA9013A575F0001225FDAE82AF83C007B7
:10236200C006C006C0077470C0E07433C0E0748059
:10237200C0E0122930E58124FBF581D006D0078E1A
:10238200828F83227473C0E07433C0E07480C0E033
:10239200122930158115811581122309AE82AF836E
:1023A200C006C0077480C0E07433C0E07480C0E02F
:1023B200122930E58124FBF581900020122779AEA5
:1023C20082AF837D00EE4F701790339F75F080C00F
:1023D20007C006C005122293D005D006D007802779
:1023E200C007C006C005C006C007C00574B7C0E07C
:1023F2007433C0E07480C0E0122930E58124FAF51C
:1024020081D005D006D007900040C007C006C005A5
:10241200122779AB82AC83D005D006D0077A00EBC5
:102422004C70239033F975F080C007C006C005C018
:1024320004C003C002122293D002D003D004D005FC
:10244200D006D0078033C007C006C005C004C00351
:10245200C002C003C004C0027410C0E07434C0E003
:102462007480C0E0122930E58124FAF581D002D0CF
:1024720003D004D005D006D0078E828F838DF0C0A2
:1024820004C003C0021224A6D002D003D0048B825F
:102492008C838AF01224A690344F75F08012229316
:0424A2009000002284
:10336E00A00F256400456E746572206E756D6265E2
:10337E0072004E205448452056414C554520464F2C
:10338E00522042554646455220312049532025644D
:10339E00004255464645522030206E6F7420616CB7
:1033AE006C6F63617465640A000A0D4255464645AA
:1033BE00522030206973207375636365737366756D
:1033CE006C6C7920616C6C6F6361746564207573CD
:1033DE00696E67206D616C6C6F632061742061642F
:1033EE0064726573732025700A0D004D656D6F72E2
:1033FE0079206E6F7420616C6C6F63617465642EDE
:10340E000A000A0D42756666657220312073756377
:10341E006365737366756C6C7920616C6C6F636138
:10342E00746564207573696E67206D616C6C6F6373
:10343E0020617420616464726573732025700A0DB7
:10344E00000A200D204275666665727320617265F2
:10345E002066726565642066726F6D2068656170A6
:01346E00005D
:01347A000051
:1024A600AFF0AE83E5829013AAF0EEA3F0EFA3F0AF
:1024B6009013AAE0FDA3E0FEA3E09013AAE0F5F0D6
:1024C600A3E045F07001229013AFE4F0A3F090135F
:1024D600BBE0FBA3E0FC9013ADEBF0ECA3F0901394
:1024E600B174BBF07413A3F09013ADE0FBA3E0FC52
:1024F6004B60418B018C02C003C0048D008E04C367
:10250600E998EA9CD004D003502A9013AFEBF0EC84
:10251600A3F074022BFBE43CFC9013B1EBF0ECA3AC
:10252600F08B828C83E0FBA3E0FC9013ADEBF0EC28
:10253600A3F080B49013ADE0FEA3E0FF9013AAE0F1
:10254600FBA3E0FCA3E0EB24FEFBEC34FFFC7402EF
:102556002BFAE43CFD8A828D83EEF0EFA3F0901314
:10256600B1E0F8A3E0F988828983EBF0ECA3F08B65
:10257600828C83E0F8A3E0F9EEB50033EFB5012FC6
:1025860088828983A3A3E0FEA3E0FF8A828D83EE7F
:10259600F0EFA3F08B828C83E0FEA3E0FF8E828FA8
:1025A60083E0FEA3E0FF8B828C83EEF0EFA3F09036
:1025B60013AFE0FEA3E0FF4E603C8E828F83E0F80F
:1025C600A3E0F9E8B5032FE9B5042B8B828C83E0F1
:1025D600FBA3E0FC8E828F83EBF0ECA3F074022E5B
:1025E600FEE43FFF8A828D83E0FAA3E0FD8E828FB0
:0725F60083EAF0EDA3F022DF
:06223500E478FFF6D8FD7D
:1025FD00AFF0AE83E5829013B3F0EEA3F0EFA3F04E
:10260D009013B6E4F0A3F09013B3E0FDA3E0FEA3A6
:10261D00E0FF8D828E838FF0123352FCBC2002803E
:10262D0003BC09120DBD00010E9013B3EDF0EEA326
:10263D00F0EFA3F080DC9013B3EDF0EEA3F0EFA379
:10264D00F08D828E838FF0123352FC9013B8E4BC60
:10265D002D0104F0BC2D028003BC2B0E9013B3741E
:10266D00012DF0E43EA3F0EFA3F09013B3E0FDA332
:10267D00E0FEA3E0FF8D828E838FF0123352FCBCFF
:10268D003000405DEC24C640589013B6E0FBA3E04B
:10269D00FC9013B9EBF0ECA3F090000AC007C00654
:1026AD00C00512271DAB82AC83D005D006D0078D97
:1026BD00828E838FF0123352FAA3AD82AE839013C4
:1026CD00B3EDF0EEA3F0EFA3F08A017A00E924D088
:1026DD00F9EA34FFFA9013B6E92BF0EA3CA3F08047
:1026ED00949013B3EDF0EEA3F0EFA3F09013B8E0D8
:1026FD0060119013B6E0FEA3E0FFC3E49EFEE49FDD
:10270D00FF80089013B6E0FEA3E0FF8E828F832238
:102213007901E94400601B7A0190347A78FA75A059
:1022230013E493F2A308B8000205A0D9F4DAF27517
:02223300A0FF0A
:10271D00AA83AB828BF09013B9E0A4F8A9F08AF0EC
:10272D00E0A429F98BF0A3E0A429F5838882222265
:10273D009013BB7400F07404A3F090336EE493FE19
:10274D00740193FF1EBEFF011FEE2400FEEF340443
:10275D00FF900400EEF0EFA3F09013BBE0FEA3E0BA
:10276D00FF8E828F83A3A3E4F0A3F022AF83E582D3
:10277D009013BDF0EFA3F09013BBE0F5F0A3E0458F
:10278D00F0700312273D9013BDE0FEA3E0FF4E60F5
:10279D000E74022EFCE43FFDC3EC9EED9F500490A1
:1027AD000000229013BD74022EF0E43FA3F09013AD
:1027BD00BDE0FEA3E0FFC3EE9404EF94005009903A
:1027CD0013BD7404F0E4A3F09013BBE0FEA3E0FF8F
:1027DD009013BFEEF0EFA3F09013C174BBF0741320
:1027ED00A3F09013BFE0FEA3E0FF4E70030228DEBE
:1027FD008E828F83E0FCA3E0FD8C028D038E008F13
:10280D0001EAC398FAEB99FB8A008B019013BDE0A6
:10281D00F508A3E0F509C3E89508E9950950030209
:10282D0028BB74042508F8E43509F9C3EA98EB9937
:10283D00404C8E028F03E5082AFAE5093BFB8A829C
:10284D008B83ECF0EDA3F074022AFCE43BFD8E8249
:10285D008F83A3A3E0F8A3E0F98C828D83E8F0E9E0
:10286D00A3F09013C1E0FCA3E0FD8C828D83EAF010
:10287D00EBA3F08E828F83EAF0EBA3F0801C901314
:10288D00C1E0FCA3E0FD8E828F83A3A3E0FAA3E059
:10289D00FB8C828D83EAF0EBA3F09013BFE0FCA3D9
:1028AD00E0FD74022CFCE43DFD8C828D83227402CC
:1028BD002EFEE43FFF9013C1EEF0EFA3F08E828F5A
:1028CD0083E0FEA3E0FF9013BFEEF0EFA3F002272D
:0528DD00EF9000002255
:10223B007800E84400600A790075A004E4F309D83B
:10224B00FC78FAE8440F600C7910900400E4F0A3DA
:04225B00D8FCD9FAD8
:1028E200C0148581147E008E83122266D01422AF1A
:1028F200F0AE83E5829013C4F0EEA3F0EFA3F09064
:1029020013C4E0FDA3E0FEA3E0FF9013C3E0FC903C
:1029120013D8E4F0A3F0A3F09013DBEDF0EEA3F0F4
:10292200EFA3F09013DEECF09028E2022A39C014F3
:10293200E581F51424FBFF9013D8E4F0A3F0A3F093
:10294200E51424FBF89013DBE6F008E6A3F008E6B2
:10295200A3F09013DEEFF09028E2122A39D014226D
:10296200E5829013D4F0E0FF9013CAE0C0E0A3E048
:10297200C0E0A3E0C0E012297D800D9013C8E0C042
:10298200E0A3E0C0E08F82221581158115819013AA
:10299200D2E02401F0A3E03400F022E5829013D5C6
:1029A200F0E02430FF24C6500D74072FFF9013C7A8
:1029B200E060034307208F82022962E5829013D6EA
:1029C200F0E0FFC4540FF582C00712299DD00753CF
:1029D200070F8F8202299DE5829013D7F09013CDC5
:1029E200E0FCA3E0FDA3E0FEA3E0FF9013D1E0FB37
:1029F2007515209013D7E0F98B00E828F8EF2354DF
:102A02000148FBEC2CFCED33FDEE33FEEF33FFC34C
:102A1200EB994007EBC399FB430401E51514FA8ACD
:102A22001570D59013CDECF0EDA3F0EEA3F0EFA36B
:102A3200F09013D1EBF022AF83E5829013DFF0EF39
:102A4200A3F09013DFE0FEA3E0FF9013C8EEF0EFD7
:102A5200A3F09013D8E0FDA3E0FEA3E0FF9013CA19
:102A6200EDF0EEA3F0EFA3F09013D2E4F0A3F09018
:102A720013DBE0FDA3E0FEA3E0FF8D828E838FF0E7
:102A8200123352FC9013DB74012DF0E43EA3F0EFFD
:102A9200A3F0EC700302332EBC250280030233261E
:102AA2009013E1E4F09013E2F09013E3F09013E45A
:102AB200F09013E5F09013E6F09013E7F09013E82E
:102AC200F09013EAF09013EBF0A3F09013ED14F0F2
:102AD200A3F09013DBE0FDA3E0FEA3E0FF8D828E66
:102AE200838FF0123352FBA3AD82AE839013DBEDE2
:102AF200F0EEA3F0EFA3F09013F1EBF0BB25088BFF
:102B020082122962022A71BB30005003022BD2EBDF
:102B120024C65003022BD29013EDE0F50AA3E0F590
:102B22000B74FFB50A63B50B60C005C006C0079001
:102B320013EBE0FAA3E0FF9013B9EAF0EFA3F090F1
:102B4200000AC005C00312271DAE82AF83D003D096
:102B5200058B027D00EA2EFEED3FFFEE24D0FEEF54
:102B620034FFFF9013EBEEF0EFA3F0D007D006D0C6
:102B7200059013EBE0F5F0A3E045F06003022ADFD5
:102B82009013E27401F0022ADFC005C006C007906C
:102B920013B9E50AF0E50BA3F090000AC006C005E0
:102BA200C00312271DAA82AF83D003D005D0067EB0
:102BB20000EB2AFAEE3FFFEA24D0FAEF34FFFF904F
:102BC20013EDEAF0EFA3F0D007D006D005022ADF1A
:102BD2009013F1E0FBBB2E2FC005C006C007901377
:102BE200EDE0FAA3E0FFBAFF05BFFF028009D007BC
:102BF200D006D005022ADFD007D006D0059013ED0B
:102C0200E4F0A3F0022ADFBB61004014EB2485400C
:102C12000F9013F174DF5BF09013C77401F080051D
:102C22009013C7E4F09013F1E0FBBB20028075BB68
:102C32002B028067BB2D028059BB4202806FBB43CF
:102C420002807CBB4403022EC9BB4603022EEFBBAB
:102C52004803022ADFBB4903022EC9BB4A03022AE8
:102C6200DFBB4C028050BB4F03022ED7BB50030286
:102C72002E37BB53028077BB5403022ADFBB5503B6
:102C8200022EDFBB5803022EE7BB5A03022ADF02E1
:102C92002EF79013E17401F0022ADF9013E374011E
:102CA200F0022ADF9013E47401F0022ADF9013E6A7
:102CB2007401F0022ADF9013E77401F0022ADF9018
:102CC20013E6E0600E9013DEE014F9F09013F1E7E2
:102CD200F0800F9013DEE024FEFFF08F019013F1DD
:102CE200E7F09013F1E0F582122962022F069013A9
:102CF200DEE024FDFFF08F018705098706098707BB
:102D020019199013CDEDF0EEA3F0EFA3F08D828EA2
:102D1200838FF012333A85820A85830B9013EDE09C
:102D2200FAA3E0FDBAFF0DBDFF0A9013EDE50AF02C
:102D3200E50BA3F09013E1E0704B9013EBE0FAA3E4
:102D4200E0FDC3E50A9AE50B9D503A9013EBEAC306
:102D5200950AF0ED950BA3F09013EBE0FAA3E0FDDA
:102D62008A068D071ABAFF011DEE4F601075822088
:102D7200C005C002122962D002D00580E39013EB95
:102D8200EAF0EDA3F09013EDE0F50DA3E0F50E905F
:102D920013CDE0FAA3E0FDA3E0FF8A828D838FF0DA
:102DA200123352F50C603CC3E4950D7480850EF02D
:102DB20063F08095F0502C150D74FFB50D02150EC1
:102DC200850C821229629013CDE0FAA3E0FDA3E004
:102DD200FF0ABA00010D9013CDEAF0EDA3F0EFA3C4
:102DE200F080AC9013E1E07003022F069013EBE049
:102DF200FEA3E0FFC3E50A9EE50B9F4003022F06F8
:102E02009013EBEEC3950AF0EF950BA3F09013EB42
:102E1200E0FEA3E0FF8E028F051EBEFF011FEA4DFA
:102E22007003022EFE758220C007C006122962D0EE
:102E320006D00780E09013DEE024FDFDF08D0187CF
:102E42000F09871009871119199013CDE50FF0E5C5
:102E520010A3F0E511A3F09013CFE0FDBD80004078
:102E6200089013F17443F08020BD60004008901375
:102E7200F17450F08013BD400040089013F1744982
:102E8200F080069013F17458F09013F1E0FDF58292
:102E9200C00512296275823A12296275823012299E
:102EA20062758278122962D005BD4902800EBD503A
:102EB2000280099013CEE0F5821229BD9013CDE075
:102EC200F5821229BD803D9013E57401F09013EA5A
:102ED200740AF0802F9013EA7408F080279013EAA6
:102EE200740AF0801F9013EA7410F080179013E8B0
:102EF2007401F0800F8B8212296280089013EBEE2E
:102F0200F0EFA3F09013E8E060719013DEE024FC90
:102F1200FFF08F01870309870509870609870719CB
:102F220019199013CDEBF0EDA3F0EEA3F0EFA3F09F
:102F32009013CD746FF07434A3F07480A3F09013E7
:102F4200CDE0F50FA3E0F510A3E0F5117401250F14
:102F5200FAE43510FBAF119013CDEAF0EBA3F0EFDA
:102F6200A3F0850F828510838511F0123352FF7012
:102F720003022A718F8212296280C39013EAE070E1
:102F820003022A719013E6E060479013DEE014F921
:102F9200F087077E007D007B009013CDEFF0EEA35B
:102FA200F0EDA3F0EBA3F09013E5E06003023049EB
:102FB2009013CDE0FBA3E0A3E0A3E07D007E007FC1
:102FC200009013CDEBF0EDA3F0EEA3F0EFA3F080B1
:102FD200769013E7E060289013DEE024FCFFF08F88
:102FE20001870309870509870609870719191990B7
:102FF20013CDEBF0EDA3F0EEA3F0EFA3F080489039
:1030020013DEE024FEFFF08F01870609870719EF20
:103012003395E0FDFB9013CDEEF0EFA3F0EDA3F0BE
:10302200EBA3F09013E5E0701E9013CDE0FBA3E05C
:10303200FDA3E0A3E07E007F009013CDEBF0EDA3B3
:10304200F0EEA3F0EFA3F09013E5E060419013CD12
:10305200E0FBA3E0FDA3E0FEA3E0FF30E72B90132B
:10306200CDE0FBA3E0FDA3E0FEA3E0FFC3E49BFBF6
:10307200E49DFDE49EFEE49FFF9013CDEBF0EDA3F3
:10308200F0EEA3F0EFA3F080059013E5E4F09013C7
:10309200E97401F09013EAE0F50D7512F775131358
:1030A200E4F50AF50B9013D1E4F0850D821229D9CB
:1030B2009013E9E070269013D1E0C4F50F851282D7
:1030C200851383E0FFE50F4207851282851383EFA4
:1030D200F0151274FFB512021513800C9013D1E093
:1030E200FF851282851383F0050AE4B50A02050BF7
:1030F2009013E9E0B40100E433F09013CDE0FAA3B9
:10310200E0FBA3E0FEA3E0FFEA4B4E4F7097901363
:10311200F8E512F0E513A3F09013EFE50AF0E50BE2
:10312200A3F09013EBE0F5F0A3E045F070099013E3
:10313200EB7401F0E4A3F09013E2E0FFE07047903B
:1031420013E1E07041850A12850B139013EBE0FA4C
:10315200A3E0FBC007AF120F8F067F00C3EE9AEF0A
:103162009BD0075019758220C007C003C0021229E4
:1031720062D002D003D0071ABAFF011B80D5901388
:10318200EBEAF0EBA3F09013E5E0602075822DC02E
:1031920007122962D0079013EBE024FFFDA3E0346D
:1031A200FFFE9013EBEDF0EEA3F080569013EFE0EC
:1031B200F5F0A3E045F0604A9013E3E060207582E9
:1031C2002BC007122962D0079013EBE024FFFDA366
:1031D200E034FFFE9013EBEDF0EEA3F080249013A9
:1031E200E4E0601E758220C007122962D0079013A6
:1031F200EBE024FFFDA3E034FFFE9013EBEDF0EED5
:10320200A3F09013E1E070489013EFE0F512A3E011
:10321200F5139013EBE0FAA3E0FBC0078A068B07D5
:103222001ABAFF011BC3E5129EE5139FD007505344
:10323200EF60067D307E0080047D207E008D82C09E
:1032420007C003C002122962D002D003D00780CA8D
:103252009013EBE0FEA3E0FF9013EFE0F512A3E082
:10326200F513C3E5129EE5139F500F9013EBEEC3C7
:103272009512F0EF9513A3F080119013EBE4F0A3F5
:10328200F080089013EBEAF0EBA3F09013F8E0FE65
:10329200A3E0FF9013EFE0F512A3E0F513AA12AD3D
:1032A20013151274FFB512021513EA4D60459013FF
:1032B200E9E0B40100E433F09013E9E070140EBECB
:1032C20000010F8E828F83E0C4540FFD9013D1F062
:1032D200800E8E828F83E0FD53050F9013D1EDF0A7
:1032E2009013D1E0F582C007C00612299DD006D006
:1032F2000780AA9013E1E07003022A719013EBE0B9
:10330200FEA3E0FF8E038F051EBEFF011FEB4D7073
:1033120003022A71758220C007C006122962D006F4
:10332200D00780E08C82122962022A719013D2E0C7
:08333200FEA3E08E82F5832268
:0B346F003C4E4F20464C4F41543E00A5
:10333A00AA82AB831233526003A380F8C3E5829A50
:08334A00F582E5839BF5832267
:0D220600758115122262E582600302220339
:1033520020F71430F6148883A88220F507E6A883A4
:0C33620075830022E280F7E49322E02251
:00000001FF
