:03220000022206B1
:03225F0002220355
:0322030002239023
:20226200AF83E5829013A0F0EFA3F03099FD9013A0E0FEA3E0FF8E99C2998E828F832210CF
:20228200980280FBAE997F008E828F8322AFF0AE83E5829013A2F0EEA3F0EFA3F09013A269
:2022A200E0FDA3E0FEA3E0FF7B007C008D828E838FF0123F5BFA60360DBD00010E9013A24C
:2022C200EDF0EEA3F0EFA3F08A017A0089828A83C007C006C005C004C003122262D003D0ED
:2022E20004D005D006D0070BBB00C10C80BE9013A2EDF0EEA3F0EFA3F00BBB00010C8B8280
:202302008C83227E007F00C3EE9404EF648094805049C007C006122281AC82AD83D006D07E
:2023220007BC0D148E02EFFB3395E0FD8A828B838DF0E41230EE8023BC3000401EEC24C62A
:2023420040198E02EFFB3395E0FD8A828B838DF0EC1230EE0EBE00AF0F80AC90000075F0A5
:2023620000122FCEAE82AF83C007C006C006C007747DC0E0743FC0E07480C0E0123539E5F3
:202382008124FBF581D006D0078E828F83227486C0E0743FC0E07480C0E012353915811588
:2023A2008115819013A5E4F0A3F09013A7F0A3F09013A9E0F508A3E0F509903F8E75F0809C
:2023C20012228F122305AC82AD83C005C004C004C00574CCC0E0743FC0E07480C0E0123580
:2023E20039E58124FBF581D004D0058C028D03C3741F9AE49B40030225028C028D03C3EA3A
:202402009481EB940C40030225028C028D03EA540F60030225028C828D83C005C0041232CC
:202422004EAA82AB83D004D0059013A5EAF0EBA3F08A008B017F009013ABE8F0E9A3F0EF83
:20244200A3F0EC2AFEED3BFF8E0A8F0B750C008A828B83E075F002A4250AF8E50B35F0FEBA
:20246200AF0C901617E8F0EEA3F0EFA3F090154FECF0EDA3F08A068B078F017F00C004C002
:2024820005A808AC097D00C005C004C003C002C006C001C007C000C004C00574E8C0E0743E
:2024A2003FC0E07480C0E0123539E58124F7F581D002D003D004D005D005D004EA4B701381
:2024C200903FEE75F080C005C00412228FD004D005803E7F00C005C004C00AC00BC00CC07C
:2024E20002C003C0077410C0E07440C0E07480C0E0123539E58124F7F581D004D005801191
:2025020090406975F080C005C00412228FD004D0058C068D07C3EE94D0EF94074003022577
:20252200C98C828D83C005C00412324EAE82AF83D004D0059013A7EEF0EFA3F08E028F03C0
:202542008B017B009013AEEAF0E9A3F0EBA3F0EE4F70149040A975F080C005C00412228FE2
:20256200D004D0050225EDEC2EFAED3FFB8A0A8B0B750C008E828F83E075F002A4250AF882
:20258200E50B35F0FAAB0C90161AE8F0EAA3F0EBA3F0901551ECF0EDA3F07B00C005C0048A
:2025A200C00AC00BC00CC006C007C00374CBC0E07440C0E07480C0E0123539E58124F7F5AB
:2025C20081D004D00580249013A5E0FEA3E0FF7B008E828F838BF0C005C004122E7790415A
:2025E2002175F08012228FD004D0059013A5E0F5F0A3E045F070030223BC9013A7E0F5F03F
:20260200A3E045F070030223BC9017437402F0E4A3F07F00F5188C0F8D10751702C007903C
:20262200415A75F080C007C005C00412228F9041C875F08012228F90421D75F08012228F2D
:2026420090428B75F08012228F9042E975F08012228F90434875F08012228F9043A775F06E
:202662008012228F90440775F08012228F90446775F08012228F9044C675F08012228FD09D
:2026820004D005D007C005C004122281A882D004D005880A7F0088828F83C007C005C004FA
:2026A200122262D004D005D007C3E50A9461D007405BE50A24854055C0078C088D09A8180B
:2026C2007F00C3E89508EF9509D00750229013A5E0F8A3E0F9EF28F582E439F583E50AF0BD
:2026E2000F0518150F74FFB50F02151002261FC007C005C0047436C0E07445C0E0123109A4
:2027020015811581D004D005D00702261F742BB50A0280030228A6C00790FFFF7405F090C3
:20272200455F75F080C007C005C00412228F122305858208858309D004D005D007A808AFC2
:2027420009C3741D98E49FD007400302288EC007A808AF09C3E8942DEF9401D007400302F2
:20276200288EC007850882850983C005C00412324EA882AF83D004D005880D8F0ED007E5AC
:202782000D450E701890459B75F080C007C005C00412228FD004D005D00702261FC007A8B1
:2027A2000DAF0E88118F12751300AA0DAF0E8A148F15751600A8177F00C007C005C004C0FC
:2027C20011C012C013C014C015C016C000C00774BBC0E07445C0E07480C0E0123539E58199
:2027E20024F5F581D004D005D007E51775F003A4F51485F01524ABF582E5153413F583A886
:202802000DAA0E88118A12751300E511F0E512A3F0E513A3F0E5142417F582E5153416F555
:2028220083E508250DFBE509350EFF7A00EBF0EFA3F0EAA3F0E51775F002A4244FF5827410
:202842001535F0F583E508F0E509A3F0901743E02401F0A3E03400F0C007C005C004C003CD
:20286200C007C002C011C012C0137410C0E07446C0E07480C0E0123539E58124F7F581D0FE
:2028820004D005D0070517D00702261F90462875F080C007C005C00412228FD004D005D0DD
:2028A2000702261F742DB50A028003022A5B90465E75F080C007C005C00412228F122305F6
:2028C200AA82AB83D004D005D007C3E5179A5003022A43C007EA75F003A424ABF5147413E5
:2028E20035F0F515851482851583E0F8A3E0FBA3E0FF88828B838FF0C007C005C004C002EE
:20290200122E77D002D004D005D007851482851583E0F8A3E0FBA3E0FFC007C005C004C08C
:2029220002C000C003C007748EC0E07446C0E07480C0E0123539E58124FAF581D002D00499
:20294200D005D007901743E024FFFBA3E034FFFF901743EBF0EFA3F0901743E0F514A3E08F
:20296200F5158A11D007AA117B00C3EA9514EB9515400302261FC007E51175F003A4FAABC0
:20298200F024ABF50DEB3413F50EA9117E00740129F519E43EF51A90175DE519F0E51AA396
:2029A200F0900003C007C005C004C003C0021233B7858208858309D002D003D004D005D083
:2029C20007E50824ABF582E5093413F583E0F8A3E0FEA3E0FF850D82850E83E8F0EEA3F0B0
:2029E200EFA3F0EA2417FAEB3416FBE5082417F582E5093416F583E0F9A3E0FEA3E0FF8A4F
:202A0200828B83E9F0EEA3F0EFA3F0E51175F002A4244FFE741535F0FFE5192519FAE51AF4
:202A220033FBEA244FF582EB3415F583E0FAA3E0FB8E828F83EAF0EBA3F00511D0070229FC
:202A4200689046B075F080C007C005C00412228FD004D005D00702261F743DB50A028003D2
:202A6200022BC1C007C005C00474E1C0E07446C0E07480C0E0123539158115811581D0041D
:202A8200D005D007E518F5147003022BA39013A5E0FAA3E0FB8A008B01751900C3E51995A5
:202AA20014400302261FC007AE197F0090175F7411F0E4A3F08E828F83C007C005C004C045
:202AC20003C002C001C0001233D7E5828583F0D000D001D002D003D004D005D007D0074551
:202AE200F07073C007C007C005C004C003C002C001C000740AC0E07447C0E0123109158189
:202B02001581D000D001D002D003D004D005D007E51928F582E439F583E0FE7F00C007C041
:202B220005C004C003C002C001C000C006C007740FC0E07447C0E07480C0E0123539E5813F
:202B420024FBF581D000D001D002D003D004D005D007D0078046C007E5192AF582E43BF501
:202B620083E0FE7F00C007C005C004C003C002C001C000C006C0077413C0E07447C0E0749A
:202B820080C0E0123539E58124FBF581D000D001D002D003D004D005D007D0070519022AB1
:202BA2009EC007C005C0047419C0E07447C0E012310915811581D004D005D00702261F74EA
:202BC2003FB50A028003022D8DC00790475175F080C007C005C00412228F9047D775F0803A
:202BE20012228FD004D005D00785180D85181475150090154FE0F519A3E0F51A901617E09A
:202C0200F511A3E0F512A3E0F5139013ABE0FAA3E0FBA3E0FFC007C005C004C00FC010C0C0
:202C220014C015C019C01AC011C012C013C002C003C007746EC0E07448C0E07480C0E012B0
:202C42003539E58124F1F581D004D005D007901743E0F519A3E0F51A751401D007AA147B8F
:202C620000C3EA9519EB951A4003022D01C007E51475F002A4244FF582741535F0F583E02F
:202C8200FAA3E0FBE51475F003A4F51185F0122417F582E5123416F583E0F51BA3E0F51C39
:202CA200A3E0F51DE51124ABF582E5123413F583E0F511A3E0F512A3E0F513A9147F00C094
:202CC20007C005C004C002C003C002C003C01BC01CC01DC011C012C013C001C007740BC087
:202CE200E07449C0E07480C0E0123539E58124F1F581D004D005D0070514D007022C5F9003
:202D020013A5E0F51BA3E0F51C7A00C3EA950D400302261F8A00E8543F7021C007C005C040
:202D220004C00274A5C0E07449C0E012310915811581D002D004D005D007804BC007EA254A
:202D42001BF8E4351CF988828983E0FE7F00C007C005C004C002C001C000C006C00774A782
:202D6200C0E07449C0E07480C0E0123539E58124FBF581D000D001D002D004D005D00788CA
:202D8200828983E4F0D0070A022D0D7440B50A02800302261F9013A5E0FBA3E0FE7A008BCA
:202DA200828E838AF0C007C005C004122E7774ACC0E07449C0E07480C0E012353915811521
:202DC200811581D004D005D007901743E0FBA3E0FE7A018A007900C3EB98EE994070C00752
:202DE200EA75F003A424ABF582741335F0F583E0F8A3E0F9A3E0FF888289838FF0C007C07F
:202E020006C005C004C003C002122E77D002D003D004D005D006D0078A017F00C007C00653
:202E2200C005C004C003C002C001C00774CEC0E07449C0E0123109E58124FCF581D002D0D1
:202E420003D004D005D006D0070AD0078085C007C005C00474F9C0E07449C0E07480C0E0E3
:152E6200123539158115811581122390D004D005D00702261F8D
:203F7B00A00F0A200D202564200A00747269616C0A0D000A200D20456E746572206E756D75
:203F9B00626572206F6620627974657320666F722062756666657220696E2072616E67656C
:203FBB00206F6620333220616E6420333230300A000A200D205468652056616C7565206510
:203FDB006E7465726564206973202564002570202570000A200D20425546464552203020D4
:203FFB0063616E6E6F7420626520616C6C6F63617465640A000A0D20425546464552203028
:20401B00206973207375636365737366756C6C7920616C6C6F6361746564207573696E6735
:20403B00206D616C6C6F63206174206164647265737320257020616E6420656E642061648E
:20405B0064726573732061732025700A0D000A200D2052652D656E746572206E756D6265D4
:20407B0072206F6620627974657320666F722062756666657220696E2072616E6765206FC3
:20409B006620333220616E642033323030000A200D204D656D6F7279206E6F7420616C6C48
:2040BB006F636174656420696E20686561700A000A0D4275666665722031207375636365C1
:2040DB00737366756C6C7920616C6C6F6361746564207573696E67206D616C6C6F6320618B
:2040FB00742061646472657373202570207769746820656E64206164647265737320617448
:20411B002025700A0D000A200D20427566666572203020636C65617265642C706C65617386
:20413B006520656E74657220736D616C6C6572206275666665722073697A650A200D000AFB
:20415B00200D202A2A2A2A2A2A2A2A2A2A2A2A2A2A2A2A2A2A2A2A2A2A2A2A2A2A2A2A2A35
:20417B002A2A2A2A2A2A2A2A2A2A2A2A2A2A2A2A2A2A2A2A2A2A2A2A2A2A2A2A2A2A2A2AE4
:20419B002A2A2A2A2A2A2A2A2A2A2A2A2A2A2A2A2A2A2A2A2A2A2A2A2A2A2A2A2A2A2A2AC4
:2041BB002A2A2A2A2A2A2A2A2A2A200A000A200D2020202020202020202020202020504C83
:2041DB004541534520454E5445522053504543494649432043484152414354455220464F40
:2041FB005220464F4C4C4F57494E47204F5045524154494F4E5320202020202020200A2033
:20421B000D000A200D202A2A2A2A2A2A2A2A2A2A2A2A2A2A2A2A2A2A2A2A2A2A2A2A2A2ADB
:20423B002A2A2A2A2A2A2A2A2A2A2A2A2A2A2A2A2A2A2A2A2A2A2A2A2A2A2A2A2A2A2A2A23
:20425B002A2A2A2A2A2A2A2A2A2A2A2A2A2A2A2A2A2A2A2A2A2A2A2A2A2A2A2A2A2A2A2A03
:20427B002A2A2A2A2A2A2A2A2A2A2A2A0A200D000A200D202020202020202020202020201D
:20429B002020203129202020202020272B27202020202020202D20202043524541544520CF
:2042BB004E455720425546464552532020202020202020202020202020202020202020202C
:2042DB00202020202020202020200A200D000A200D20202020202020202020202020202035
:2042FB00203229202020202020272D27202020202020202D20202044454C4554452041204C
:20431B00425546464552202020202020202020202020202020202020202020202020202088
:20433B002020202020202020200A200D000A200D20202020202020202020202020202020D4
:20435B0033292020202020276120746F207A272020202D20202053544F524520544845205F
:20437B004C4F57455220434153452043484152414354455220202020202020202020202030
:20439B0020202020202020200A200D000A200D202020202020202020202020202020203460
:2043BB0029202020202020273F2720202020202020202D202020494E464F524D4154494FE7
:2043DB004E2041424F5554204845415020414E4420454D50545920425546464552203020AF
:2043FB0020202020202020200A200D000A200D2020202020202020202020202020202035FF
:20441B0029202020202020273D2720202020202020202D2020205052494E542056414C559B
:20443B00455320494E204255464645522030202020202020202020202020202020202020A8
:20445B0020202020202020200A200D000A200D20202020202020202020202020202020369D
:20447B002920202020202027402720202020202020202D2020204652454520414C4C2042A0
:20449B0055464645525320414E44205245535441525420202020202020202020202020203E
:2044BB00202020202020200A200D000A200D202A2A2A2A2A2A2A2A2A2A2A2A2A2A2A2A2AA9
:2044DB002A2A2A2A2A2A2A2A2A2A2A2A2A2A2A2A2A2A2A2A2A2A2A2A2A2A2A2A2A2A2A2A81
:2044FB002A2A2A2A2A2A2A2A2A2A2A2A2A2A2A2A2A2A2A2A2A2A2A2A2A2A2A2A2A2A2A2A61
:20451B002A2A2A2A2A2A2A2A2A2A2A2A2A2A2A2A2A2A2A2A2A2A2A0A200D000A200D2042EA
:20453B007566666572302066756C6C202C706C6561736520636C65617220627566666572BE
:20455B000A200D000A200D20456E746572207468652073697A6520666F72206275666665E9
:20457B0072206265747765656E20333020616E6420333030206279746573203A0A200D0043
:20459B000A200D204255464645522063616E6E6F7420626520616C6C6F63617465640A0092
:2045BB000A0D20425546464552202564206973207375636365737366756C6C7920616C6CAC
:2045DB006F6361746564207573696E67206D616C6C6F632061742061646472657373202532
:2045FB007020617420642076616C75652069732025640A0D006172726179206920686173BA
:20461B002076616C7565202570202570000A200D204572726F722C706C65617365207075CC
:20463B00742076616C7565206265747765656E20333020746F203330302062797465730A1A
:20465B00200D000A200D20456E7465722074686520627566666572206E756D626572207485
:20467B006F2062652064656C65746564203A200A200D000A200D20436C656172696E672085
:20469B006275666665722061742061646472657373202570000A200D206F7574206F662011
:2046BB00626F756E64732C706C6561736520656E74657220636F72726563742076616C7586
:2046DB0065200A200D000A200D205468652062756666657220302068617320666F6C6C6F09
:2046FB0077696E6720646174613A200A200D00200A200D0025703A002025782020000A2052
:20471B000D2043616E6E6F74207072696E7420736D616C6C20616C70686162657473206113
:20473B00732062756666657220697320656D707479200A200D000A200D202A2A2A2A2A2A5C
:20475B002A2A2A2A2A2A2A2A2A2A2A2A2A2A2A2A2A2A2A2A2A2A2A2A2A2A2A2A2A2A2A2AFE
:20477B002A2A2A2A2A44657461696C73206F66206275666665722061726520617320666FB6
:20479B006C6C6F77733A2A2A2A2A2A2A2A2A2A2A2A2A2A2A2A2A2A2A2A2A2A2A2A2A2A2A4F
:2047BB002A2A2A2A2A2A2A2A2A2A2A2A2A2A2A2A2A2A2A2A2A2A2A200A200D000A200D206A
:2047DB00427566666572202320202020202042756666657220737461727420616464726599
:2047FB007373202020202042756666657220656E6420616464726573732020202020202081
:20481B0020746F74616C2073697A6520616C6C6F6361746564202020202020206E6F2E208A
:20483B006F662073746F72616765206368617261637465727320696E20627566666572732F
:20485B002020202020667265652073706163650A200D000A200D2020202030202020202011
:20487B002020202020202020257020202020202020202020202020202020202020202020C8
:20489B0020202020257020202020202020202020202020202020202020202025642020205F
:2048BB00202020202020202020202020202020202020202020202020202020202564202094
:2048DB00202020202020202020202020202020202020202020202020202020202020256474
:2048FB0020202020202020202020200A200D20000A200D20202025642020202020202020C6
:20491B00202020202020257020202020202020202020202020202020202020202020202027
:20493B002020257020202020202020202020202020202020202020202025642020202020BE
:20495B0020202020202020202020202020202020202020202020202020202030202020202C
:20497B002020202020202020202020202020202020202020202020202020202025642020D3
:20499B0020202020200A200D20000A0025632020000A0D42756666657220302069732066F0
:2049BB00726565642066726F6D206D656D6F72790A0D000A200D204275666665722025643E
:2049DB002069732066726565642066726F6D20746865206D656D6F7279200A200D000A202B
:2049FB000D202A2A2A2A2A2A2A2A2A2A2A2A2A2A2A2A2A2A2A2A2A2A2A2A2A2A2A2A2A2A83
:204A1B002A2A2A2A2A2A2A2A2A2A2A2A2A2A486561702073697A65206973206672656564B4
:204A3B002A2A2A2A2A2A2A2A2A2A2A2A2A2A2A2A2A2A2A2A2A2A2A2A2A2A2A2A2A2A2A2A1B
:144A5B002A2A2A2A2A2A2A2A2A2A2A2A2A2A2A200A200D007A
:014A7A00003B
:202E7700AFF0AE83E582901745F0EEA3F0EFA3F0901745E0FDA3E0FEA3E0901745E0F5F0A7
:202E9700A3E045F070012290174AE4F0A3F0901755E0FBA3E0FC901748EBF0ECA3F0901732
:202EB7004C7455F07417A3F0901748E0FBA3E0FC4B60418B018C02C003C0048D008E04C320
:202ED700E998EA9CD004D003502A90174AEBF0ECA3F074022BFBE43CFC90174CEBF0ECA353
:202EF700F08B828C83E0FBA3E0FC901748EBF0ECA3F080B4901748E0FEA3E0FF901745E0BD
:202F1700FBA3E0FCA3E0EB24FEFBEC34FFFC74022BFAE43CFD8A828D83EEF0EFA3F090179F
:202F37004CE0F8A3E0F988828983EBF0ECA3F08B828C83E0F8A3E0F9EEB50033EFB5012F50
:202F570088828983A3A3E0FEA3E0FF8A828D83EEF0EFA3F08B828C83E0FEA3E0FF8E828F07
:202F770083E0FEA3E0FF8B828C83EEF0EFA3F090174AE0FEA3E0FF4E603C8E828F83E0F8A6
:202F9700A3E0F9E8B5032FE9B5042B8B828C83E0FBA3E0FC8E828F83EBF0ECA3F074022E6C
:172FB700FEE43FFF8A828D83E0FAA3E0FD8E828F83EAF0EDA3F022CF
:06223500E478FFF6D8FD7D
:202FCE00AFF0AE83E58290174EF0EEA3F0EFA3F0901751E4F0A3F090174EE0FDA3E0FEA36F
:202FEE00E0FF8D828E838FF0123F5BFCBC20028003BC09120DBD00010E90174EEDF0EEA329
:20300E00F0EFA3F080DC90174EEDF0EEA3F0EFA3F08D828E838FF0123F5BFC901753E4BC1E
:20302E002D0104F0BC2D028003BC2B0E90174E74012DF0E43EA3F0EFA3F090174EE0FDA3CA
:20304E00E0FEA3E0FF8D828E838FF0123F5BFCBC3000405DEC24C64058901751E0FBA3E06E
:20306E00FC90175DEBF0ECA3F090000AC007C006C0051233B7AB82AC83D005D006D0078D95
:20308E00828E838FF0123F5BFAA3AD82AE8390174EEDF0EEA3F0EFA3F08A017A00E924D0B0
:2030AE00F9EA34FFFA901751E92BF0EA3CA3F0809490174EEDF0EEA3F0EFA3F0901753E07A
:2030CE006011901751E0FEA3E0FFC3E49EFEE49FFF8008901751E0FEA3E0FF8E828F832230
:202213007901E94400601B7A01904A7A789F75A017E493F2A308B8000205A0D9F4DAF275F6
:02223300A0FF0A
:1B30EE0020F71130F6138883A88220F509F6A8837583002280FEF280F5F022E1
:20310900C020858120E52024FDF8868318868218E493A324DB600C242560051231F780F064
:2031290002320FD2D5E493A3C083C082B4731486F018868318868218123F5B6054A31231AD
:20314900F780F5B4630818E6181231F78043B46417E630E74618E6F42401F608E6F4340033
:20316900F6742D1231F78033B4782D868318868218E41231E8E5831231E7E5831231E8E50F
:20318900821231E7E5821231E830D50574301231F7D082D083023119B475F6E6FA18E6F919
:2031A900187C107D271231D2FF7CE87D031231D2C4F5837C647D001231D24283E975F00AE6
:2031C90084C445F0F582EF80A97B000BC3E99CF9EA9DFA50F61BE92CF9EA3DFAEB22C454DD
:2031E9000F700320D51FC2D52490D43440D4C083C082C0F0F582E8C0E0122262D0E0F8D087
:09320900F0D082D08322D02022F3
:203212009017557400F07404A3F0903F7BE493FE740193FF1EBEFF011FEE2400FEEF340439
:20323200FF900400EEF0EFA3F0901755E0FEA3E0FF8E828F83A3A3E4F0A3F022AF83E582A3
:20325200901757F0EFA3F0901755E0F5F0A3E045F07003123212901757E0FEA3E0FF4E609E
:203272000E74022EFCE43FFDC3EC9EED9F50049000002290175774022EF0E43FA3F09017A0
:2032920057E0FEA3E0FFC3EE9404EF940050099017577404F0E4A3F0901755E0FEA3E0FF07
:2032B200901759EEF0EFA3F090175B7455F07417A3F0901759E0FEA3E0FF4E70030233B3BA
:2032D2008E828F83E0FCA3E0FD8C028D038E008F01EAC398FAEB99FB8A008B01901757E070
:2032F200F51EA3E0F51FC3E8951EE9951F50030233907404251EF8E4351FF9C3EA98EB9952
:20331200404C8E028F03E51E2AFAE51F3BFB8A828B83ECF0EDA3F074022AFCE43BFD8E824E
:203332008F83A3A3E0F8A3E0F98C828D83E8F0E9A3F090175BE0FCA3E0FD8C828D83EAF007
:20335200EBA3F08E828F83EAF0EBA3F0801C90175BE0FCA3E0FD8E828F83A3A3E0FAA3E0A4
:20337200FB8C828D83EAF0EBA3F0901759E0FCA3E0FD74022CFCE43DFD8C828D83227402FC
:203392002EFEE43FFF90175BEEF0EFA3F08E828F83E0FEA3E0FF901759EEF0EFA3F0023255
:0533B200C490000022A0
:2033B700AA83AB828BF090175DE0A4F8A9F08AF0E0A429F98BF0A3E0A429F5838882222257
:2033D700AF83E582901761F0EFA3F0901761E0FEA3E0FF30E709C3E49EFCE49FFD80048E68
:2033F700048F0590175FE0FEA3E0FF30E709C3E49EFAE49FFB80048E028F03901763EAF051
:20341700EBA3F08C828D8312343FAE82AF83901761E0A3E030E70CC3E49EFCE49FFD8C82B5
:083437008D83228E828F832217
:20343F00AF83E582901765F0EFA3F0901767E4F0901765E0FEA3E0FF7D00901763E0FBA303
:20345F00E0FC235401FA7036EB2BFBEC33FC901763EBF0ECA3F0901763E0FBA3E0FCC3EEB4
:20347F009BEF9C5011ECC313CB13CBFC901763EBF0ECA3F080080D901767EDF080BC901778
:20349F0067E0FF901765E0FDA3E0FE901763E0FBA3E0FCC3ED9BEE9C400B901765EDC39B82
:2034BF00F0EE9CA3F0901763E0FDA3E0C313CD13CDFE901763EDF0EEA3F08F061FEE70C3B8
:0C34DF00901765E0FEA3E08E82F58322CA
:20223B007800E84400600A790075A004E4F309D8FC789FE84413600C7914900400E4F0A3D5
:04225B00D8FCD9FAD8
:2034EB00C0208581207E008E83122262D02022AFF0AE83E582901769F0EEA3F0EFA3F090BA
:20350B001769E0FDA3E0FEA3E0FF901768E0FC90177DE4F0A3F0A3F0901780EDF0EEA3F0B2
:20352B00EFA3F0901783ECF09034EB023642C020E581F52024FBFF90177DE4F0A3F0A3F038
:20354B00E52024FBF8901780E6F008E6A3F008E6A3F0901783EFF09034EB123642D02022F1
:20356B00E582901779F0E0FF90176FE0C0E0A3E0C0E0A3E0C0E0123586800D90176DE0C000
:20358B00E0A3E0C0E08F8222158115811581901777E02401F0A3E03400F022E58290177AC4
:2035AB00F0E02430FF24C6500D74072FFF90176CE060034307208F8202356BE58290177BF1
:2035CB00F0E0FFC4540FF582C0071235A6D00753070F8F820235A6E58290177CF0901772FE
:2035EB00E0FCA3E0FDA3E0FEA3E0FF901776E0FB752B2090177CE0F98B00E828F8EF2354B4
:20360B000148FBEC2CFCED33FDEE33FEEF33FFC3EB994007EBC399FB430401E52B14FA8A2A
:20362B002B70D5901772ECF0EDA3F0EEA3F0EFA3F0901776EBF022AF83E582901784F0EFDA
:20364B00A3F0901784E0FEA3E0FF90176DEEF0EFA3F090177DE0FDA3E0FEA3E0FF90176FB3
:20366B00EDF0EEA3F0EFA3F0901777E4F0A3F0901780E0FDA3E0FEA3E0FF8D828E838FF034
:20368B00123F5BFC90178074012DF0E43EA3F0EFA3F0EC7003023F37BC25028003023F2FDA
:2036AB00901786E4F0901787F0901788F0901789F090178AF090178BF090178CF090178D07
:2036CB00F090178FF0901790F0A3F090179214F0A3F0901780E0FDA3E0FEA3E0FF8D828E9B
:2036EB00838FF0123F5BFBA3AD82AE83901780EDF0EEA3F0EFA3F0901796EBF0BB25088B81
:20370B008212356B02367ABB300050030237DBEB24C650030237DB901792E0F521A3E0F583
:20372B002274FFB52163B52260C005C006C007901790E0FAA3E0FF90175DEAF0EFA3F090A4
:20374B00000AC005C0031233B7AE82AF83D003D0058B027D00EA2EFEED3FFFEE24D0FEEFAC
:20376B0034FFFF901790EEF0EFA3F0D007D006D005901790E0F5F0A3E045F060030236E8BC
:20378B009017877401F00236E8C005C006C00790175DE521F0E522A3F090000AC006C00560
:2037AB00C0031233B7AA82AF83D003D005D0067E00EB2AFAEE3FFFEA24D0FAEF34FFFF9021
:2037CB001792EAF0EFA3F0D007D006D0050236E8901796E0FBBB2E2FC005C006C00790170E
:2037EB0092E0FAA3E0FFBAFF05BFFF028009D007D006D0050236E8D007D006D0059017926C
:20380B00E4F0A3F00236E8BB61004014EB2485400F90179674DF5BF090176C7401F08005EB
:20382B0090176CE4F0901796E0FBBB20028075BB2B028067BB2D028059BB4202806FBB432E
:20384B0002807CBB4403023AD2BB4603023AF8BB48030236E8BB4903023AD2BB4A0302369C
:20386B00E8BB4C028050BB4F03023AE0BB5003023A40BB53028077BB54030236E8BB55037D
:20388B00023AE8BB5803023AF0BB5A030236E8023B009017867401F00236E89017887401EC
:2038AB00F00236E89017897401F00236E890178B7401F00236E890178C7401F00236E89039
:2038CB00178BE0600E901783E014F9F0901796E7F0800F901783E024FEFFF08F019017965B
:2038EB00E7F0901796E0F58212356B023B0F901783E024FDFFF08F018705098706098707F1
:20390B001919901772EDF0EEA3F0EFA3F08D828E838FF0123F43858221858322901792E0D3
:20392B00FAA3E0FDBAFF0DBDFF0A901792E521F0E522A3F0901786E0704B901790E0FAA331
:20394B00E0FDC3E5219AE5229D503A901790EAC39521F0ED9522A3F0901790E0FAA3E0FD9C
:20396B008A068D071ABAFF011DEE4F6010758220C005C00212356BD002D00580E3901790E9
:20398B00EAF0EDA3F0901792E0F524A3E0F525901772E0FAA3E0FDA3E0FF8A828D838FF063
:2039AB00123F5BF523603CC3E4952474808525F063F08095F0502C152474FFB52402152519
:2039CB0085238212356B901772E0FAA3E0FDA3E0FF0ABA00010D901772EAF0EDA3F0EFA334
:2039EB00F080AC901786E07003023B0F901790E0FEA3E0FFC3E5219EE5229F4003023B0FA1
:203A0B00901790EEC39521F0EF9522A3F0901790E0FEA3E0FF8E028F051EBEFF011FEA4DE7
:203A2B007003023B07758220C007C00612356BD006D00780E0901783E024FDFDF08D018734
:203A4B00260987270987281919901772E526F0E527A3F0E528A3F0901774E0FDBD800040CC
:203A6B00089017967443F08020BD600040089017967450F08013BD40004008901796744987
:203A8B00F080069017967458F0901796E0FDF582C00512356B75823A12356B758230123553
:203AAB006B75827812356BD005BD4902800EBD50028009901773E0F5821235C6901772E0F5
:203ACB00F5821235C6803D90178A7401F090178F740AF0802F90178F7408F0802790178F32
:203AEB00740AF0801F90178F7410F0801790178D7401F0800F8B8212356B8008901790EED9
:203B0B00F0EFA3F090178DE06071901783E024FCFFF08F0187030987050987060987071935
:203B2B001919901772EBF0EDA3F0EEA3F0EFA3F0901772746FF0744AA3F07480A3F0901766
:203B4B0072E0F526A3E0F527A3E0F52874012526FAE43527FBAF28901772EAF0EBA3F0EF82
:203B6B00A3F08526828527838528F0123F5BFF700302367A8F8212356B80C390178FE07052
:203B8B000302367A90178BE06047901783E014F9F087077E007D007B00901772EFF0EEA318
:203BAB00F0EDA3F0EBA3F090178AE06003023C52901772E0FBA3E0A3E0A3E07D007E007F11
:203BCB0000901772EBF0EDA3F0EEA3F0EFA3F0807690178CE06028901783E024FCFFF08F2A
:203BEB00018703098705098706098707191919901772EBF0EDA3F0EEA3F0EFA3F080489053
:203C0B001783E024FEFFF08F01870609870719EF3395E0FDFB901772EEF0EFA3F0EDA3F0B9
:203C2B00EBA3F090178AE0701E901772E0FBA3E0FDA3E0A3E07E007F00901772EBF0EDA361
:203C4B00F0EEA3F0EFA3F090178AE06041901772E0FBA3E0FDA3E0FEA3E0FF30E72B901754
:203C6B0072E0FBA3E0FDA3E0FEA3E0FFC3E49BFBE49DFDE49EFEE49FFF901772EBF0EDA328
:203C8B00F0EEA3F0EFA3F0800590178AE4F090178E7401F090178FE0F52475299C752A17E3
:203CAB00E4F521F522901776E4F08524821235E290178EE07026901776E0C4F526852982EC
:203CCB00852A83E0FFE5264207852982852A83EFF0152974FFB52902152A800C901776E0DA
:203CEB00FF852982852A83F00521E4B52102052290178EE0B40100E433F0901772E0FAA3F8
:203D0B00E0FBA3E0FEA3E0FFEA4B4E4F709790179DE529F0E52AA3F0901794E521F0E522C5
:203D2B00A3F0901790E0F5F0A3E045F070099017907401F0E4A3F0901787E0FFE070479071
:203D4B001786E0704185212985222A901790E0FAA3E0FBC007AF290F8F067F00C3EE9AEFFF
:203D6B009BD0075019758220C007C003C00212356BD002D003D0071ABAFF011B80D59017E1
:203D8B0090EAF0EBA3F090178AE0602075822DC00712356BD007901790E024FFFDA3E0343D
:203DAB00FFFE901790EDF0EEA3F08056901794E0F5F0A3E045F0604A901788E060207582A8
:203DCB002BC00712356BD007901790E024FFFDA3E034FFFE901790EDF0EEA3F08024901792
:203DEB0089E0601E758220C00712356BD007901790E024FFFDA3E034FFFE901790EDF0EE7D
:203E0B00A3F0901786E07048901794E0F529A3E0F52A901790E0FAA3E0FBC0078A068B07EC
:203E2B001ABAFF011BC3E5299EE52A9FD0075053EF60067D307E0080047D207E008D82C003
:203E4B0007C003C00212356BD002D003D00780CA901790E0FEA3E0FF901794E0F529A3E000
:203E6B00F52AC3E5299EE52A9F500F901790EEC39529F0EF952AA3F08011901790E4F0A386
:203E8B00F08008901790EAF0EBA3F090179DE0FEA3E0FF901794E0F529A3E0F52AAA29AD11
:203EAB002A152974FFB52902152AEA4D604590178EE0B40100E433F090178EE070140EBEEB
:203ECB0000010F8E828F83E0C4540FFD901776F0800E8E828F83E0FD53050F901776EDF0A6
:203EEB00901776E0F582C007C0061235A6D006D00780AA901786E0700302367A901790E0A9
:203F0B00FEA3E0FF8E038F051EBEFF011FEB4D700302367A758220C007C00612356BD0066D
:183F2B00D00780E08C8212356B02367A901777E0FEA3E08E82F58322AC
:0B4A6F003C4E4F20464C4F41543E008F
:183F4300AA82AB83123F5B6003A380F8C3E5829AF582E5839BF583220A
:0D22060075812B123F77E5826003022203F1
:1C3F5B0020F71430F6148883A88220F507E6A88375830022E280F7E49322E02275
:043F7700758200222D
:00000001FF
