:03220000022206B1
:03225F0002220355
:032203000223941F
:1022620090000022AF83E5829013A0F0EFA3F0303C
:1022720099FD9013A0E0FEA3E0FF8E99C2998E8291
:102282008F832210980280FBAE997F008E828F830B
:1022920022AFF0AE83E5829013A2F0EEA3F0EFA39B
:1022A200F09013A2E0FDA3E0FEA3E0FF7B007C0020
:1022B2008D828E838FF0123C1FFA60360DBD0001B5
:1022C2000E9013A2EDF0EEA3F0EFA3F08A017A00D4
:1022D20089828A83C007C006C005C004C0031222D7
:1022E20066D003D004D005D006D0070BBB00C10CCA
:1022F20080BE9013A2EDF0EEA3F0EFA3F00BBB00B3
:10230200010C8B828C83227E007F00C3EE9404EF4B
:10231200648094805049C007C006122285AC82AD09
:1023220083D006D007BC0D148E02EFFB3395E0FD7F
:102332008A828B838DF0E4122EC68023BC3000404B
:102342001EEC24C640198E02EFFB3395E0FD8A8213
:102352008B838DF0EC122EC60EBE00AF0F80AC90B8
:10236200000075F000122DA6AE82AF83C007C00632
:10237200C006C007743DC0E0743CC0E07480C0E099
:102382001231FDE58124FBF581D006D0078E828FC4
:1023920083229013A5E4F0A3F09013A7F0A3F0F525
:1023A200089013A9E0F509A3E0F50A903C4675F000
:1023B20080122293122309AC82AD83C005C004C0EF
:1023C20004C0057484C0E0743CC0E07480C0E012B4
:1023D20031FDE58124FBF581D004D0058C028D030B
:1023E200C3741F9AE49B40030224F38C028D03C33F
:1023F200EA9481EB940C40030224F38C028D03EAED
:10240200540F60030224F38C828D83C005C0041232
:102412003026AA82AB83D004D0059013A5EAF0EB54
:10242200A3F08A008B017F009013ABE8F0E9A3F0E0
:10243200EFA3F0EC2AFEED3BFF8E0B8F0C750D0027
:102442008A828B83E075F002A4250BF8E50C35F047
:10245200FEAF0D901617E8F0EEA3F0EFA3F0901583
:102462004FECF0EDA3F08A068B078F017F00C004CA
:10247200C005A809AC0A7D00C005C004C003C002A3
:10248200C006C001C007C000C004C00574A0C0E0FF
:10249200743CC0E07480C0E01231FDE58124F7F5A0
:1024A20081D002D003D004D005D005D004EA4B700D
:1024B20013903CA675F080C005C004122293D0048C
:1024C200D005803E7F00C005C004C00BC00CC00D0B
:1024D200C002C003C00774C8C0E0743CC0E074808E
:1024E200C0E01231FDE58124F7F581D004D00580EA
:1024F20011903D2175F080C005C004122293D004D2
:10250200D0058C068D07C3EE94D0EF9407400302EA
:1025120025A98C828D83C005C004123026AE82AFFD
:1025220083D004D0059013A7EEF0EFA3F08E028FB4
:10253200038B017B009013AEEAF0E9A3F0EBA3F06A
:10254200EE4F700B903D6175F0801222938074EC17
:102552002EFAED3FFB8A0B8B0C750D008E828F835A
:10256200E075F002A4250BF8E50C35F0FAAB0D90FE
:10257200161AE8F0EAA3F0EBA3F0901551ECF0ED97
:10258200A3F07D00C00BC00CC00DC006C007C00583
:102592007483C0E0743DC0E07480C0E01231FDE598
:1025A2008124F7F581801C9013A5E0FEA3E0FF7D56
:1025B200008E828F838DF0122C4F903DD975F08062
:1025C2001222939013A5E0F5F0A3E045F070030208
:1025D20023AD9013A7E0F5F0A3E045F070030223CA
:1025E200AD901743E4F09017447402F0E4A3F07541
:1025F2000B02903E1275F080122293903E6875F0A5
:1026020080122293903EBD75F080122293903F1269
:1026120075F080122293903F7075F0801222939091
:102622003FCF75F08012229390402E75F0801222D7
:102632009390408E75F0801222939040EE75F08058
:1026420012229390414D75F080122293122285AD91
:10265200828D047E008C828E83C006C005C0041267
:102662002266D004D005D006BD6100405CED248511
:1026720040579013A5E0FAA3E0FBE5082AF582E4AF
:102682003BF583EDF0E50804F508E5082AF582E458
:102692003BF583E0FB7A007443C0E07417C0E0E4CA
:1026A200C0E0C003C002C004C00674A3C0E074410D
:1026B200C0E07480C0E01231FDE58124F6F581901E
:1026C2001743E02401F00225F4BD2B028003022807
:1026D2000E9041DA75F080122293122309AC82AE79
:1026E200838C028E03C3741D9AE49B40030228026A
:1026F2008C028E03C3EA942DEB940140030228025C
:102702008C828E83C006C004123026AA82AB83D08C
:1027120004D006EA4B700C90421675F08012229398
:102722000225F48A008B01880E890F7510008A0138
:102732008B0789118F12751300A90B7F00C006C089
:1027420004C003C002C00EC00FC010C011C012C02E
:1027520013C001C0077436C0E07442C0E07480C088
:10276200E01231FDE58124F5F581D002D003D004D9
:10277200D006E50B75F003A4F51185F01224ABF534
:1027820082E5123413F5838A008B07880E8F0F754A
:102792001000E50EF0E50FA3F0E510A3F0E511241B
:1027A20017F582E5123416F583EC2AFAEE3BFB7F2D
:1027B20000EAF0EBA3F0EFA3F0E50B75F002A4241E
:1027C2004FF582741535F0F583ECF0EEA3F0901717
:1027D20044E02401F0A3E03400F0C002C003C007CB
:1027E200C00EC00FC010748BC0E07442C0E0748091
:1027F200C0E01231FDE58124F7F581050B0225F4D5
:102802009042A375F0801222930225F4BD2D02801E
:102812000302298A9042D975F08012229312230969
:10282200AE82AF83C3E50B9E500302297EEE75F0A4
:1028320003A424ABFC741335F0FF8C828F83E0F980
:10284200A3E0FAA3E0FB89828A838BF0C007C0066B
:10285200C004122C4FD004D006D0078C828F83E0A4
:10286200FCA3E0FFA3E0FBC006C004C007C00374E2
:1028720009C0E07443C0E07480C0E01231FDE5811C
:1028820024FAF581D006901744E024FFFCA3E0343B
:10289200FFFF901744ECF0EFA3F0901744E0FCA385
:1028A200E0FF8E027B00C3EA9CEB9F40030225F40B
:1028B200C004C007EE75F003A4FAABF024ABF51127
:1028C200EB3413F5128E047F0074012CF509E43FFA
:1028D200F50A90175EE509F0E50AA3F0900003C03F
:1028E20007C006C004C003C00212318F85820E8564
:1028F200830FD002D003D004D006D007E50E24AB5C
:10290200F582E50F3413F583E0F8A3E0F9A3E0FFC5
:10291200851182851283E8F0E9A3F0EFA3F0EA249F
:1029220017FAEB3416FBE50E2417F582E50F341681
:10293200F583E0F9A3E0FCA3E0FF8A828B83E9F050
:10294200ECA3F0EFA3F0EE75F002A4244FFC741593
:1029520035F0FFE5092509FAE50A33FBEA244FF5CC
:1029620082EB3415F583E0FAA3E0FB8C828F83EAD5
:10297200F0EBA3F00ED007D0040228A490432B75ED
:10298200F0801222930225F4BD3D028003022A2E1A
:10299200745CC0E07443C0E07480C0E01231FD1585
:1029A2008115811581901743E0606F9013A5E0FEB9
:1029B200A3E0FF7C00901743E0FBC3EC9B400302C3
:1029C20025F48C02EA540F701DC007C006C00474BF
:1029D20085C0E07443C0E0122EE115811581D00458
:1029E200D006D0078031EC2EF582E43FF583E0FB80
:1029F2007A00C007C006C004C003C0027489C0E0E8
:102A02007443C0E07480C0E01231FDE58124FBF51F
:102A120081D004D006D0070C809B7494C0E074432C
:102A2200C0E0122EE1158115810225F4BD3F02801E
:102A320003022BBB9043CC75F08012229390445238
:102A420075F080122293901743E0FF8F0E750F00EE
:102A520090154FE0F511A3E0F512901617E0F8A3D8
:102A6200E0F9A3E0FA9013ABE0FBA3E0FCA3E0FFE4
:102A7200C00EC00FC011C012C000C001C002C0030E
:102A8200C004C00774D7C0E07444C0E07480C0E0E2
:102A92001231FDE58124F3F581901744E0FEA3E0B5
:102AA200FF7C018C027B00C3EA9EEB9F4003022B5A
:102AB2003CC006C007EC75F002A4244FF5827415E1
:102AC20035F0F583E0F511A3E0F512EC75F003A4FF
:102AD200F8A9F02417F582E93416F583E0FBA3E0A8
:102AE200FEA3E0FFE824ABF582E93413F583E0F5B9
:102AF2000EA3E0F50FA3E0F5108C017A00C007C029
:102B020006C004C011C012C003C006C007C00EC078
:102B12000FC010C001C0027450C0E07445C0E07420
:102B220080C0E01231FDE58124F3F581D004D006A6
:102B3200D0070CD007D006022AA59013A5E0FEA369
:102B4200E0FF7C00901743E0FBC3EC9B40030225AF
:102B5200F48C02EA543F701DC007C006C00474C45E
:102B6200C0E07445C0E0122EE115811581D004D079
:102B720006D0078041EC2EFAE43FFB8A828B83E089
:102B8200F87900C007C006C004C003C002C000C07C
:102B92000174C6C0E07445C0E07480C0E01231FD2B
:102BA200E58124FBF581D002D003D004D006D00702
:102BB2008A828B83E4F00C808BBD40028003022565
:102BC200F49013A5E0FEA3E0FF7D008E828F838D3B
:102BD200F0122C4F901744E0FEA3E0FF7D018D031D
:102BE2007C00C3EE9BEF9C404CED75F003A424AB3C
:102BF200F582741335F0F583E0FAA3E0FBA3E0FC61
:102C02008A828B838CF0C007C006C005122C4FD07D
:102C1200058D037C00C005C003C00474CBC0E07402
:102C220045C0E0122EE1E58124FCF581D005D006F5
:102C3200D0070D80A974EEC0E07445C0E07480C076
:0D2C4200E01231FD1581158115810225F488
:103C3B00A00F0A200D202564200A000A200D204524
:103C4B006E746572206E756D626572206F66206290
:103C5B007974657320666F72206275666665722073
:103C6B00696E2072616E6765206F6620333220614A
:103C7B006E6420333230300A000A200D2054686500
:103C8B002056616C756520656E746572656420697C
:103C9B0073202564002570202570000A200D20421A
:103CAB00554646455220302063616E6E6F7420621C
:103CBB006520616C6C6F63617465640A000A0D208A
:103CCB004255464645522030206973207375636315
:103CDB0065737366756C6C7920616C6C6F63617462
:103CEB006564207573696E67206D616C6C6F632002
:103CFB006174206164647265737320257020616E3A
:103D0B006420656E642061646472657373206173F3
:103D1B002025700A0D000A200D2052652D656E744A
:103D2B006572206E756D626572206F6620627974A4
:103D3B00657320666F722062756666657220696EA8
:103D4B002072616E6765206F6620333220616E646E
:103D5B002033323030000A200D204D656D6F7279A3
:103D6B00206E6F7420616C6C6F6361746564206985
:103D7B006E20686561700A000A0D42756666657291
:103D8B002031207375636365737366756C6C792072
:103D9B00616C6C6F6361746564207573696E672009
:103DAB006D616C6C6F632061742061646472657308
:103DBB0073202570207769746820656E64206164B8
:103DCB0064726573732061742025700A0D000A20DC
:103DDB000D20427566666572203020636C656172DA
:103DEB0065642C706C6561736520656E74657220FB
:103DFB00736D616C6C65722062756666657220739B
:103E0B00697A650A200D000A200D202A2A2A2A2AFF
:103E1B002A2A2A2A2A2A2A2A2A2A2A2A2A2A2A2AF7
:103E2B002A2A2A2A2A2A2A2A2A2A2A2A2A2A2A2AE7
:103E3B002A2A2A2A2A2A2A2A2A2A2A2A2A2A2A2AD7
:103E4B002A2A2A2A2A2A2A2A2A2A2A2A2A2A2A2AC7
:103E5B002A2A2A2A2A2A2A2A2A2A200A000A200D52
:103E6B002020202020202020202020202020504CEB
:103E7B004541534520454E544552205350454349E7
:103E8B004649432043484152414354455220464FF3
:103E9B005220464F4C4C4F57494E47204F5045529E
:103EAB004154494F4E5320202020202020200A200F
:103EBB000D000A200D202A2A2A2A2A2A2A2A2A2AEF
:103ECB002A2A2A2A2A2A2A2A2A2A2A2A2A2A2A2A47
:103EDB002A2A2A2A2A2A2A2A2A2A2A2A2A2A2A2A37
:103EEB002A2A2A2A2A2A2A2A2A2A2A2A2A2A2A2A27
:103EFB002A2A2A2A2A2A2A2A2A2A2A2A2A2A2A2A17
:103F0B002A2A2A0A200D000A200D202020202020FA
:103F1B00202020202020202020203129202020207C
:103F2B002020272B27202020202020202D20202060
:103F3B00435245415445204E455720425546464530
:103F4B005253202020202020202020202020202001
:103F5B002020202020202020202020202020202056
:103F6B00200A200D000A200D2020202020202020B8
:103F7B00202020202020202032292020202020201B
:103F8B00272D27202020202020202D2020204445B5
:103F9B004C45544520412042554646455220202051
:103FAB002020202020202020202020202020202006
:103FBB0020202020202020202020202020202020F6
:103FCB000A200D000A200D20202020202020202058
:103FDB002020202020202033292020202020276172
:103FEB0020746F207A272020202D20202053544F1F
:103FFB00524520544845204C4F574552204341537E
:10400B004520434841524143544552202020202013
:10401B002020202020202020202020202020200AAB
:10402B00200D000A200D20202020202020202020E1
:10403B002020202020203429202020202020273F32
:10404B002720202020202020202D202020494E46D4
:10405B004F524D4154494F4E2041424F55542048E9
:10406B0045415020414E4420454D50545920425516
:10407B004646455220302020202020202020200A98
:10408B00200D000A200D2020202020202020202081
:10409B002020202020203529202020202020273DD3
:1040AB002720202020202020202D20202050524966
:1040BB004E542056414C55455320494E20425546AF
:1040CB004645522030202020202020202020202058
:1040DB002020202020202020202020202020200AEB
:1040EB00200D000A200D2020202020202020202021
:1040FB00202020202020362920202020202027406F
:10410B002720202020202020202D20202046524513
:10411B004520414C4C204255464645525320414E7A
:10412B00442052455354415254202020202020201B
:10413B0020202020202020202020202020200A208A
:10414B000D000A200D202A2A2A2A2A2A2A2A2A2A5C
:10415B002A2A2A2A2A2A2A2A2A2A2A2A2A2A2A2AB4
:10416B002A2A2A2A2A2A2A2A2A2A2A2A2A2A2A2AA4
:10417B002A2A2A2A2A2A2A2A2A2A2A2A2A2A2A2A94
:10418B002A2A2A2A2A2A2A2A2A2A2A2A2A2A2A2A84
:10419B002A2A2A2A0A200D000A200D20427566665B
:1041AB0065725F302073746F72657320746865205D
:1041BB0076616C75652025632061742025702077EE
:1041CB0069746820636F756E746572202564000ACC
:1041DB00200D20456E746572207468652073697AB2
:1041EB006520666F72206275666665722062657403
:1041FB007765656E20333020616E6420333030205C
:10420B006279746573203A0A200D000A200D204252
:10421B0055464645522063616E6E6F742062652071
:10422B00616C6C6F63617465640A000A0D20425502
:10423B004646455220256420697320737563636578
:10424B00737366756C6C7920616C6C6F63617465EC
:10425B0064207573696E67206D616C6C6F63206190
:10426B0074206164647265737320257020617420FF
:10427B00642076616C75652069732025640A0D00D6
:10428B0061727261792069206861732076616C7547
:10429B0065202570202570000A200D204572726F55
:1042AB00722C706C65617365207075742076616C0F
:1042BB007565206265747765656E20333020746F89
:1042CB00203330302062797465730A200D000A2088
:1042DB000D20456E74657220746865206275666684
:1042EB006572206E756D62657220746F2062652039
:1042FB0064656C65746564203A200A200D000A2001
:10430B000D20436C656172696E6720627566666528
:10431B007220617420616464726573732025700070
:10432B000A200D206F7574206F6620626F756E64A6
:10433B00732C706C6561736520656E746572206398
:10434B006F72726563742076616C7565200A200D3F
:10435B00000A200D20546865206275666665722020
:10436B00302068617320666F6C6C6F77696E6720A5
:10437B00646174613A200A200D00200A20000A2093
:10438B000D202578200A200D000A200D2043616E98
:10439B006E6F74207072696E7420736D616C6C201B
:1043AB00616C7068616265747320617320627566FD
:1043BB0066657220697320656D707479200A200D13
:1043CB00000A200D202A2A2A2A2A2A2A2A2A2A2ABD
:1043DB002A2A2A2A2A2A2A2A2A2A2A2A2A2A2A2A32
:1043EB002A2A2A2A2A2A2A2A2A2A2A2A2A2A2A2A22
:1043FB0044657461696C73206F66206275666665CF
:10440B00722061726520617320666F6C6C6F7773BD
:10441B003A2A2A2A2A2A2A2A2A2A2A2A2A2A2A2AE1
:10442B002A2A2A2A2A2A2A2A2A2A2A2A2A2A2A2AE1
:10443B002A2A2A2A2A2A2A2A2A2A2A2A2A2A2A2AD1
:10444B002A2A200A200D000A200D20427566666577
:10445B007220232020202020204275666665722062
:10446B0073746172742061646472657373202020AD
:10447B00202042756666657220656E6420616464F7
:10448B00726573732020202020202020746F7461AC
:10449B006C2073697A6520616C6C6F636174656401
:1044AB00202020202020206E6F2E206F662073741A
:1044BB006F726167652063686172616374657273A3
:1044CB0020696E2062756666657273000A200D2086
:1044DB0020202030202020202020202020202020C1
:1044EB00202020257020202020202020202020206C
:1044FB0020202020202020202020202020202025AC
:10450B007020202020202020202020202020202050
:10451B002020202020202564202020202020202047
:10452B002020202020202020202020202020202080
:10453B002020202020202025642020202020202027
:10454B000A200D20000A200D202020202564202089
:10455B0020202020202020202020202020257020FB
:10456B002020202020202020202020202020202040
:10457B0020202020202020202025702020202020DB
:10458B002020202020202020202020202020202020
:10459B0025642020202020202020202020202020C7
:1045AB002020202020202020202020202020202000
:1045BB00202030200A200D20000A00256320200037
:1045CB004275666665722025642069732066726584
:1045DB0065642066726F6D20746865206D656D6F04
:1045EB007279000A200D202A2A2A2A2A2A2A2A2A04
:1045FB002A2A2A2A2A2A2A2A2A2A2A2A2A2A2A2A10
:10460B002A2A2A2A2A2A2A2A2A2A2A2A2A2A2A2AFF
:10461B002A2A2A486561702073697A65206973209C
:10462B0066726565642A2A2A2A2A2A2A2A2A2A2AAB
:10463B002A2A2A2A2A2A2A2A2A2A2A2A2A2A2A2ACF
:10464B002A2A2A2A2A2A2A2A2A2A2A2A2A2A2A2ABF
:09465B002A2A2A2A200A200D0057
:01466F00004A
:102C4F00AFF0AE83E582901746F0EEA3F0EFA3F05E
:102C5F00901746E0FDA3E0FEA3E0901746E0F5F0E5
:102C6F00A3E045F070012290174BE4F0A3F090170A
:102C7F0056E0FBA3E0FC901749EBF0ECA3F09017A4
:102C8F004D7456F07417A3F0901749E0FBA3E0FCC6
:102C9F004B60418B018C02C003C0048D008E04C3B6
:102CAF00E998EA9CD004D003502A90174BEBF0EC34
:102CBF00A3F074022BFBE43CFC90174DEBF0ECA35C
:102CCF00F08B828C83E0FBA3E0FC901749EBF0ECD8
:102CDF00A3F080B4901749E0FEA3E0FF901746E001
:102CEF00FBA3E0FCA3E0EB24FEFBEC34FFFC74023F
:102CFF002BFAE43CFD8A828D83EEF0EFA3F0901760
:102D0F004DE0F8A3E0F988828983EBF0ECA3F08B18
:102D1F00828C83E0F8A3E0F9EEB50033EFB5012F15
:102D2F0088828983A3A3E0FEA3E0FF8A828D83EECE
:102D3F00F0EFA3F08B828C83E0FEA3E0FF8E828FF7
:102D4F0083E0FEA3E0FF8B828C83EEF0EFA3F09085
:102D5F00174BE0FEA3E0FF4E603C8E828F83E0F8BE
:102D6F00A3E0F9E8B5032FE9B5042B8B828C83E040
:102D7F00FBA3E0FC8E828F83EBF0ECA3F074022EAA
:102D8F00FEE43FFF8A828D83E0FAA3E0FD8E828FFF
:072D9F0083EAF0EDA3F0222E
:06223500E478FFF6D8FD7D
:102DA600AFF0AE83E58290174FF0EEA3F0EFA3F0FD
:102DB600901752E4F0A3F090174FE0FDA3E0FEA3B6
:102DC600E0FF8D828E838FF0123C1FFCBC200280B8
:102DD60003BC09120DBD00010E90174FEDF0EEA3D6
:102DE600F0EFA3F080DC90174FEDF0EEA3F0EFA329
:102DF600F08D828E838FF0123C1FFC901754E4BC3A
:102E06002D0104F0BC2D028003BC2B0E90174F74CD
:102E1600012DF0E43EA3F0EFA3F090174FE0FDA3E1
:102E2600E0FEA3E0FF8D828E838FF0123C1FFCBC78
:102E36003000405DEC24C64058901752E0FBA3E0FA
:102E4600FC90175EEBF0ECA3F090000AC007C006FA
:102E5600C00512318FAB82AC83D005D006D0078D6A
:102E6600828E838FF0123C1FFAA3AD82AE83901739
:102E76004FEDF0EEA3F0EFA3F08A017A00E924D03B
:102E8600F9EA34FFFA901752E92BF0EA3CA3F080F6
:102E96009490174FEDF0EEA3F0EFA3F0901754E0E7
:102EA6006011901752E0FEA3E0FFC3E49EFEE49F8C
:102EB600FF8008901752E0FEA3E0FF8E828F8322E8
:102213007901E94400601B7A0190466F789775A0B5
:1022230017E493F2A308B8000205A0D9F4DAF27513
:02223300A0FF0A
:102EC60020F71130F6138883A88220F509F6A88327
:102ED6007583002280FEF280F5F022C016858116E9
:102EE600E51624FDF8868318868218E493A324DB6E
:102EF600600C24256005122FCF80F0022FE7D2D573
:102F0600E493A3C083C082B4731486F01886831832
:102F1600868218123C1F6054A3122FCF80F5B4632B
:102F26000818E618122FCF8043B46417E630E74638
:102F360018E6F42401F608E6F43400F6742D122F90
:102F4600CF8033B4782D868318868218E4122FC07A
:102F5600E583122FBFE583122FC0E582122FBFE54E
:102F660082122FC030D5057430122FCFD082D08375
:102F7600022EF1B475F6E6FA18E6F9187C107D27EC
:102F8600122FAAFF7CE87D03122FAAC4F5837C6466
:102F96007D00122FAA4283E975F00A84C445F0F534
:102FA60082EF80A97B000BC3E99CF9EA9DFA50F6F3
:102FB6001BE92CF9EA3DFAEB22C4540F700320D525
:102FC6001FC2D52490D43440D4C083C082C0F0F54B
:102FD60082E8C0E0122266D0E0F8D0F0D082D0833A
:102FE60022D016229017567400F07404A3F0903C79
:102FF6003BE493FE740193FF1EBEFF011FEE240007
:10300600FEEF3404FF900400EEF0EFA3F0901756A5
:10301600E0FEA3E0FF8E828F83A3A3E4F0A3F02259
:10302600AF83E582901758F0EFA3F0901756E0F5BE
:10303600F0A3E045F07003122FEA901758E0FEA3C4
:10304600E0FF4E600E74022EFCE43FFDC3EC9EEDE5
:103056009F50049000002290175874022EF0E43F0F
:10306600A3F0901758E0FEA3E0FFC3EE9404EF949C
:103076000050099017587404F0E4A3F0901756E036
:10308600FEA3E0FF90175AEEF0EFA3F090175C74E2
:1030960056F07417A3F090175AE0FEA3E0FF4E70A7
:1030A6000302318B8E828F83E0FCA3E0FD8C028DC0
:1030B600038E008F01EAC398FAEB99FB8A008B0115
:1030C600901758E0F514A3E0F515C3E89514E995B3
:1030D60015500302316874042514F8E43515F9C354
:1030E600EA98EB99404C8E028F03E5142AFAE5150F
:1030F6003BFB8A828B83ECF0EDA3F074022AFCE49E
:103106003BFD8E828F83A3A3E0F8A3E0F98C828D2A
:1031160083E8F0E9A3F090175CE0FCA3E0FD8C8265
:103126008D83EAF0EBA3F08E828F83EAF0EBA3F0B7
:10313600801C90175CE0FCA3E0FD8E828F83A3A326
:10314600E0FAA3E0FB8C828D83EAF0EBA3F0901704
:103156005AE0FCA3E0FD74022CFCE43DFD8C828D5C
:10316600832274022EFEE43FFF90175CEEF0EFA37D
:10317600F08E828F83E0FEA3E0FF90175AEEF0EF09
:10318600A3F002309C90000022AA83AB828BF090C1
:10319600175EE0A4F8A9F08AF0E0A429F98BF0A361
:0931A600E0A429F58388822222AD
:10223B007800E84400600A790075A004E4F309D83B
:10224B00FC7897E84413600C7914900400E4F0A335
:04225B00D8FCD9FAD8
:1031AF00C0168581167E008E83122266D01622AF3E
:1031BF00F0AE83E582901761F0EEA3F0EFA3F090ED
:1031CF001761E0FDA3E0FEA3E0FF901760E0FC9025
:1031DF001775E4F0A3F0A3F0901778EDF0EEA3F0DD
:1031EF00EFA3F090177BECF09031AF023306C016CF
:1031FF00E581F51624FBFF901775E4F0A3F0A3F01B
:10320F00E51624FBF8901778E6F008E6A3F008E639
:10321F00A3F090177BEFF09031AF123306D0162248
:10322F00E582901771F0E0FF901767E0C0E0A3E030
:10323F00C0E0A3E0C0E012324A800D901765E0C0F5
:10324F00E0A3E0C0E08F82221581158115819017D0
:10325F006FE02401F0A3E03400F022E582901772B2
:10326F00F0E02430FF24C6500D74072FFF90176431
:10327F00E060034307208F8202322FE5829017739D
:10328F00F0E0FFC4540FF582C00712326AD0075323
:10329F00070F8F8202326AE582901774F090176AD7
:1032AF00E0FCA3E0FDA3E0FEA3E0FF90176EE0FBC0
:1032BF00752120901774E0F98B00E828F8EF23545C
:1032CF000148FBEC2CFCED33FDEE33FEEF33FFC377
:1032DF00EB994007EBC399FB430401E52114FA8AEC
:1032EF002170D590176AECF0EDA3F0EEA3F0EFA3E9
:1032FF00F090176EEBF022AF83E58290177CF0EF22
:10330F00A3F090177CE0FEA3E0FF901765EEF0EFBF
:10331F00A3F0901775E0FDA3E0FEA3E0FF90176701
:10332F00EDF0EEA3F0EFA3F090176FE4F0A3F090A1
:10333F001778E0FDA3E0FEA3E0FF8D828E838FF070
:10334F00123C1FFC90177874012DF0E43EA3F0EFB0
:10335F00A3F0EC7003023BFBBC25028003023BF39E
:10336F0090177EE4F090177FF0901780F090178100
:10337F00F0901782F0901783F0901784F0901785D4
:10338F00F0901787F0901788F0A3F090178A14F039
:10339F00A3F0901778E0FDA3E0FEA3E0FF8D828EEF
:1033AF00838FF0123C1FFBA3AD82AE83901778ED95
:1033BF00F0EEA3F0EFA3F090178EEBF0BB25088B88
:1033CF008212322F02333EBB3000500302349FEB88
:1033DF0024C6500302349F90178AE0F517A3E0F537
:1033EF001874FFB51763B51860C005C006C0079005
:1033FF001788E0FAA3E0FF90175EEAF0EFA3F090D2
:10340F00000AC005C00312318FAE82AF83D003D044
:10341F00058B027D00EA2EFEED3FFFEE24D0FEEF7E
:10342F0034FFFF901788EEF0EFA3F0D007D006D04F
:10343F0005901788E0F5F0A3E045F060030233AC88
:10344F0090177F7401F00233ACC005C006C007901F
:10345F00175EE517F0E518A3F090000AC006C00547
:10346F00C00312318FAA82AF83D003D005D0067E5E
:10347F0000EB2AFAEE3FFFEA24D0FAEF34FFFF9079
:10348F00178AEAF0EFA3F0D007D006D0050233ACCD
:10349F0090178EE0FBBB2E2FC005C006C0079017FC
:1034AF008AE0FAA3E0FFBAFF05BFFF028009D00749
:1034BF00D006D0050233ACD007D006D00590178ABE
:1034CF00E4F0A3F00233ACBB61004014EB24854061
:1034DF000F90178E74DF5BF09017647401F0800506
:1034EF00901764E4F090178EE0FBBB20028075BB51
:1034FF002B028067BB2D028059BB4202806FBB43FA
:10350F0002807CBB4403023796BB46030237BCBB29
:10351F0048030233ACBB4903023796BB4A0302335D
:10352F00ACBB4C028050BB4F030237A4BB5003020D
:10353F003704BB53028077BB54030233ACBB550334
:10354F000237ACBB58030237B4BB5A030233AC0289
:10355F0037C490177E7401F00233AC90178074015A
:10356F00F00233AC9017817401F00233AC901783E3
:10357F007401F00233AC9017847401F00233AC90F5
:10358F001783E0600E90177BE014F9F090178EE729
:10359F00F0800F90177BE024FEFFF08F0190178EC5
:1035AF00E7F090178EE0F58212322F0237D3901783
:1035BF007BE024FDFFF08F01870509870609870748
:1035CF00191990176AEDF0EEA3F0EFA3F08D828E2C
:1035DF00838FF0123C0785821785831890178AE036
:1035EF00FAA3E0FDBAFF0DBDFF0A90178AE517F0A9
:1035FF00E518A3F090177EE0704B901788E0FAA3C0
:10360F00E0FDC3E5179AE5189D503A901788EAC375
:10361F009517F0ED9518A3F0901788E0FAA3E0FD49
:10362F008A068D071ABAFF011DEE4F6010758220B2
:10363F00C005C00212322FD002D00580E390178848
:10364F00EAF0EDA3F090178AE0F51AA3E0F51B90CE
:10365F00176AE0FAA3E0FDA3E0FF8A828D838FF063
:10366F00123C1FF519603CC3E4951A7480851BF05A
:10367F0063F08095F0502C151A74FFB51A02151BC4
:10368F0085198212322F90176AE0FAA3E0FDA3E0AA
:10369F00FF0ABA00010D90176AEAF0EDA3F0EFA34D
:1036AF00F080AC90177EE070030237D3901788E05C
:1036BF00FEA3E0FFC3E5179EE5189F40030237D333
:1036CF00901788EEC39517F0EF9518A3F090178811
:1036DF00E0FEA3E0FF8E028F051EBEFF011FEA4D25
:1036EF0070030237CB758220C007C00612322FD06D
:1036FF0006D00780E090177BE024FDFDF08D018759
:10370F001C09871D09871E191990176AE51CF0E51A
:10371F001DA3F0E51EA3F090176CE0FDBD800040E7
:10372F000890178E7443F08020BD600040089017FA
:10373F008E7450F08013BD4000400890178E74496E
:10374F00F0800690178E7458F090178EE0FDF5827A
:10375F00C00512322F75823A12322F758230123213
:10376F002F75827812322FD005BD4902800EBD50C1
:10377F0002800990176BE0F58212328A90176AE087
:10378F00F58212328A803D9017827401F09017876C
:10379F00740AF0802F9017877408F080279017878E
:1037AF00740AF0801F9017877410F0801790178598
:1037BF007401F0800F8B8212322F8008901788EEE1
:1037CF00F0EFA3F0901785E0607190177BE024FC79
:1037DF00FFF08F01870309870509870609870719F6
:1037EF00191990176AEBF0EDA3F0EEA3F0EFA3F029
:1037FF0090176A7464F07446A3F07480A3F0901766
:10380F006AE0F51CA3E0F51DA3E0F51E7401251C6D
:10381F00FAE4351DFBAF1E90176AEAF0EBA3F0EF49
:10382F00A3F0851C82851D83851EF0123C1FFF703F
:10383F000302333E8F8212322F80C3901787E070BE
:10384F000302333E901783E0604790177BE014F933
:10385F00F087077E007D007B0090176AEFF0EEA3E4
:10386F00F0EDA3F0EBA3F0901782E060030239169E
:10387F0090176AE0FBA3E0A3E0A3E07D007E007F4A
:10388F000090176AEBF0EDA3F0EEA3F0EFA3F0803A
:10389F0076901784E0602890177BE024FCFFF08F70
:1038AF0001870309870509870609870719191990E1
:1038BF00176AEBF0EDA3F0EEA3F0EFA3F0804890C2
:1038CF00177BE024FEFFF08F01870609870719EFAA
:1038DF003395E0FDFB90176AEEF0EFA3F0EDA3F048
:1038EF00EBA3F0901782E0701E90176AE0FBA3E045
:1038FF00FDA3E0A3E07E007F0090176AEBF0EDA33D
:10390F00F0EEA3F0EFA3F0901782E0604190176AFA
:10391F00E0FBA3E0FDA3E0FEA3E0FF30E72B901751
:10392F006AE0FBA3E0FDA3E0FEA3E0FFC3E49BFB83
:10393F00E49DFDE49EFEE49FFF90176AEBF0EDA37C
:10394F00F0EEA3F0EFA3F08005901782E4F090174C
:10395F00867401F0901787E0F51A751F947520177C
:10396F00E4F517F51890176EE4F0851A821232A657
:10397F00901786E0702690176EE0C4F51C851F82A5
:10398F00852083E0FFE51C4207851F82852083EF9A
:10399F00F0151F74FFB51F021520800C90176EE0F5
:1039AF00FF851F82852083F00517E4B517020518E0
:1039BF00901786E0B40100E433F090176AE0FAA3A1
:1039CF00E0FBA3E0FEA3E0FFEA4B4E4F709790178A
:1039DF0095E51FF0E520A3F090178CE517F0E5189B
:1039EF00A3F0901788E0F5F0A3E045F07009901769
:1039FF00887401F0E4A3F090177FE0FFE070479028
:103A0F00177EE0704185171F851820901788E0FA00
:103A1F00A3E0FBC007AF1F0F8F067F00C3EE9AEF27
:103A2F009BD0075019758220C007C003C002123205
:103A3F002FD002D003D0071ABAFF011B80D59017E1
:103A4F0088EAF0EBA3F0901782E0602075822DC01A
:103A5F000712322FD007901788E024FFFDA3E03420
:103A6F00FFFE901788EDF0EEA3F0805690178CE0D4
:103A7F00F5F0A3E045F0604A901780E06020758272
:103A8F002BC00712322FD007901788E024FFFDA319
:103A9F00E034FFFE901788EDF0EEA3F0802490172E
:103AAF0081E0601E758220C00712322FD007901759
:103ABF0088E024FFFDA3E034FFFE901788EDF0EEC1
:103ACF00A3F090177EE0704890178CE0F51FA3E0ED
:103ADF00F520901788E0FAA3E0FBC0078A068B0752
:103AEF001ABAFF011BC3E51F9EE5209FD007505355
:103AFF00EF60067D307E0080047D207E008D82C0C9
:103B0F0007C003C00212322FD002D003D00780CAE1
:103B1F00901788E0FEA3E0FF90178CE0F51FA3E05D
:103B2F00F520C3E51F9EE5209F500F901788EEC329
:103B3F00951FF0EF9520A3F08011901788E4F0A364
:103B4F00F08008901788EAF0EBA3F0901795E0FE4D
:103B5F00A3E0FF90178CE0F51FA3E0F520AA1FAD9F
:103B6F0020151F74FFB51F021520EA4D60459017F1
:103B7F0086E0B40100E433F0901786E070140EBEB7
:103B8F0000010F8E828F83E0C4540FFD90176EF0EB
:103B9F00800E8E828F83E0FD53050F90176EEDF030
:103BAF0090176EE0F582C007C00612326AD006D0B9
:103BBF000780AA90177EE0700302333E901788E0CB
:103BCF00FEA3E0FF8E038F051EBEFF011FEB4D709E
:103BDF000302333E758220C007C00612322FD00673
:103BEF00D00780E08C8212322F02333E90176FE0A5
:083BFF00FEA3E08E82F5832293
:0B4664003C4E4F20464C4F41543E009E
:103C0700AA82AB83123C1F6003A380F8C3E5829AA4
:083C1700F582E5839BF5832291
:0D220600758121122262E58260030222032D
:103C1F0020F71430F6148883A88220F507E6A883CE
:0C3C2F0075830022E280F7E49322E0227B
:00000001FF
