:03220000022206B1
:03225F0002220355
:032203000223941F
:1022620090000022AF83E5829013A0F0EFA3F0303C
:1022720099FD9013A0E0FEA3E0FF8E99C2998E8291
:102282008F832210980280FBAE997F008E828F830B
:1022920022AFF0AE83E5829013A2F0EEA3F0EFA39B
:1022A200F09013A2E0FDA3E0FEA3E0FF7B007C0020
:1022B2008D828E838FF0123C01FA60360DBD0001D3
:1022C2000E9013A2EDF0EEA3F0EFA3F08A017A00D4
:1022D20089828A83C007C006C005C004C0031222D7
:1022E20066D003D004D005D006D0070BBB00C10CCA
:1022F20080BE9013A2EDF0EEA3F0EFA3F00BBB00B3
:10230200010C8B828C83227E007F00C3EE9404EF4B
:10231200648094805049C007C006122285AC82AD09
:1023220083D006D007BC0D148E02EFFB3395E0FD7F
:102332008A828B838DF0E4122EA88023BC30004069
:102342001EEC24C640198E02EFFB3395E0FD8A8213
:102352008B838DF0EC122EA80EBE00AF0F80AC90D6
:10236200000075F000122D88AE82AF83C007C00650
:10237200C006C007741FC0E0743CC0E07480C0E0B7
:102382001231DFE58124FBF581D006D0078E828FE2
:1023920083229013A5E4F0A3F09013A7F0A3F0F525
:1023A20008903C2875F080122293122309AE82AF66
:1023B20083C007C006C006C0077466C0E0743CC094
:1023C200E07480C0E01231DFE58124FBF581D006A4
:1023D200D0078E048F05C3741F9CE49D4003022422
:1023E200F38E048F05C3EC9481ED940C4003022418
:1023F200F38E048F05EC540F60030224F38E828F58
:1024020083C007C006123028AC82AD83D006D00745
:102412009013A5ECF0EDA3F09013A9ECF0EDA3F06E
:102422008C028D038B017B009013ABEAF0E9A3F0E1
:10243200EBA3F0EE2CFAEF3DFB8A098B0A750B0039
:102442008C828D83E075F002A42509F8E50A35F047
:10245200FAAB0B901617E8F0EAA3F0EBA3F0901595
:102462004FEEF0EFA3F08C028D038B017B00C006D0
:10247200C0078C008D077E00C007C006C005C004DF
:10248200C002C001C003C000C007C0067482C0E021
:10249200743CC0E07480C0E01231DFE58124F7F5BE
:1024A20081D004D005D006D007D007D006EC4D70FD
:1024B20013903C8875F080C007C006122293D006A4
:1024C200D007803E7B00C007C006C009C00AC00B0F
:1024D200C004C005C00374AAC0E0743CC0E07480AC
:1024E200C0E01231DFE58124F7F581D006D0078004
:1024F20011903D0375F080C007C006122293D006EA
:10250200D0078E048F05C3EC94D0ED9407400302EC
:1025120025A98E828F83C007C006123028AC82ADF7
:1025220083D006D0079013A7ECF0EDA3F08C028DB8
:10253200038B017B009013AEEAF0E9A3F0EBA3F06A
:10254200EC4D700B903D4375F0801222938074EE37
:102552002CFAEF3DFB8A098B0A750B008C828D8366
:10256200E075F002A42509F8E50A35F0FAAB0B9004
:10257200161AE8F0EAA3F0EBA3F0901551EEF0EF93
:10258200A3F07F00C009C00AC00BC004C005C00789
:102592007465C0E0743DC0E07480C0E01231DFE5D4
:1025A2008124F7F581801C9013A5E0FEA3E0FF7D56
:1025B200008E828F838DF0122C31903DBB75F0809E
:1025C2001222939013A5E0F5F0A3E045F070030208
:1025D20023A39013A7E0F5F0A3E045F070030223D4
:1025E200A3E4FEFFF516F517FAFB7902C002C00359
:1025F200903DF475F080C007C006C003C002C00160
:10260200122293903E4A75F080122293903E9F755B
:10261200F080122293903EF475F080122293903F44
:102622005275F080122293903FB175F0801222937E
:1026320090401075F08012229390407075F08012D5
:1026420022939040D075F08012229390412F75F022
:1026520080122293D001D002D003C002C001122204
:1026620085A882AB83D001D002880985090C750D3B
:1026720000850C82850D83C003C002C00112226650
:10268200D001D002D003D006D0070516E4B5160259
:102692000517C3E5099461D003D0024068E5092417
:1026A200854062C002C0039013A5E0F8A3E0FBE5F9
:1026B2000828F582E43BF583E509F0E50804F5080E
:1026C2000EBE00010F7A00C007C006C003C002C0E0
:1026D20001C016C017C000C003C002C00CC00D74F8
:1026E20085C0E07441C0E07480C0E01231DFE58152
:1026F20024F6F581D001D002D003D006D007D00352
:10270200D0020225EE742BB5090280030228BE0A0C
:10271200BA00010B9041BC75F080C007C006C0032F
:10272200C002C00112229312230985820C85830DF7
:10273200D001D002D003D006D007A80CAD0DC374CF
:102742001D98E49D400302289EC002C003A80CAB62
:102752000DC3E8942DEB9401D003D002400302286C
:102762009EC002C003850C82850D83C007C006C0CF
:1027720002C001123028A882AB83D001D002D00659
:10278200D007880E8B0FD003D002E50E450F7020C4
:102792009041F875F080C007C006C003C002C001B6
:1027A200122293D001D002D003D006D0070225EE28
:1027B200C002C003A80EAB0F88108B11751200AABD
:1027C2000EAB0F8A138B1475150089027B00C007AC
:1027D200C006C003C002C001C010C011C012C013A5
:1027E200C014C015C002C0037418C0E07442C0E037
:1027F2007480C0E01231DFE58124F5F581D001D08B
:1028020002D003E975F003A4F51385F01424ABF5A7
:1028120082E5143413F583A80EAB0F88108B117563
:102822001200E510F0E511A3F0E512A3F0E5132480
:1028320017F582E5143416F583E50C250EFCE50D3B
:10284200350FFB7D00ECF0EBA3F0EDA3F0E975F0A2
:1028520002A4244FF582741535F0F583E50CF0E5FA
:102862000DA3F0C003C002C001C004C003C005C074
:1028720010C011C012746DC0E07442C0E07480C018
:10288200E01231DFE58124F7F581D001D002D003D7
:10289200D006D00709D003D0020225EE90428575FA
:1028A200F080C007C006C003C002C001122293D04C
:1028B20001D002D003D006D0070225EE742DB5094F
:1028C20002800302298B9042BB75F080C007C006CC
:1028D200C003C002C001122293122309AC82D001AC
:1028E200D002D003D006D007C3EC99507CC002C0FE
:1028F20003EC75F003A424ABFC741335F0FD8C8259
:102902008D83E0F8A3E0FAA3E0FBC007C006C00590
:10291200C004C003C002C001C000C002C00374EB07
:10292200C0E07442C0E07480C0E01231DFE581246F
:10293200FAF581D001D002D003D004D0058C828D6B
:1029420083E0FCA3E0FDA3E0FB8C828D838BF0C0CF
:1029520003C002C001122C31D001D002D003D00634
:10296200D007D003D0020225EE90430D75F080C04F
:1029720007C006C003C002C001122293D001D002D8
:10298200D003D006D0070225EE743DB509028003BC
:10299200022AECC007C006C003C002C001743EC0D8
:1029A200E07443C0E07480C0E01231DF158115810C
:1029B2001581D001D002D003D006D0078E0E8F0F22
:1029C200EE4F7003022AC6901743E4F09013A9E079
:1029D200F513A3E0F514851310851411C002C0038A
:1029E200901743E0F8FA7B00C3E50E9AE50F9BD0FF
:1029F20003D00250030225EEC002C0038802EA544B
:102A02000F6006D003D002806CD003D002C002C097
:102A120003C007C006C003C002C001C0007467C083
:102A2200E07443C0E07480C0E01231DF158115818B
:102A32001581D000D001D002D003E82510FAE43588
:102A420011FB7D00C003C002C001C002C003C0056B
:102A5200746AC0E07443C0E07480C0E01231DFE504
:102A62008124FAF581D001D002D003D006D007D05C
:102A720003D0028045E82513F582E43514F583E09E
:102A8200FD7C00C007C006C003C002C001C000C078
:102A920005C004746FC0E07443C0E07480C0E012EB
:102AA20031DFE58124FBF581D000D001D002D003D3
:102AB200D006D007901743E804F0901743E02401B2
:102AC200F00229DEC007C006C003C002C00174764E
:102AD200C0E07443C0E0122EC315811581D001D02D
:102AE20002D003D006D0070225EE743FB50902805A
:102AF200030225EEC001C007C006C003C002C00128
:102B020074AEC0E07443C0E0122EC31581158190EB
:102B120043D875F080122293D001D002D003D006A0
:102B2200D00790154FE0F513A3E0F514901617E0C7
:102B3200F510A3E0F511A3E0F5129013ABE0F9A3B1
:102B4200E0FCA3E0FDC007C006C003C002C001C094
:102B520006C007C013C014C010C011C012C001C00B
:102B620004C005745BC0E07444C0E07480C0E0122D
:102B720031DFE58124F3F581D001D002D003D00604
:102B8200D0078A138B14751001D001AC107D00C3DD
:102B9200E5139CE5149D50030225EEC002C003E537
:102BA2001075F002A4244FF582741535F0F583E018
:102BB200F50EA3E0F50FE51075F003A4F8ABF024D1
:102BC20017F582EB3416F583E0F509A3E0F50AA3C5
:102BD200E0F50BE824ABF582EB3413F583E0F8A3C0
:102BE200E0FBA3E0FDAA107C00C007C006C003C042
:102BF20002C001C00EC00FC009C00AC00BC000C095
:102C020003C005C002C00474D2C0E07444C0E074C2
:102C120080C0E01231DFE58124F3F581D001D002DA
:0F2C2200D003D006D0070510D003D002022B8DAF
:103C1D00A00F0A200D202564200A000A200D204542
:103C2D006E746572206E756D626572206F662062AE
:103C3D007974657320666F72206275666665722091
:103C4D00696E2072616E6765206F66203332206168
:103C5D006E6420333230300A000A200D205468651E
:103C6D002056616C756520656E746572656420699A
:103C7D0073202564002570202570000A200D204238
:103C8D00554646455220302063616E6E6F7420623A
:103C9D006520616C6C6F63617465640A000A0D20A8
:103CAD004255464645522030206973207375636333
:103CBD0065737366756C6C7920616C6C6F63617480
:103CCD006564207573696E67206D616C6C6F632020
:103CDD006174206164647265737320257020616E58
:103CED006420656E64206164647265737320617312
:103CFD002025700A0D000A200D2052652D656E7469
:103D0D006572206E756D626572206F6620627974C2
:103D1D00657320666F722062756666657220696EC6
:103D2D002072616E6765206F6620333220616E648C
:103D3D002033323030000A200D204D656D6F7279C1
:103D4D00206E6F7420616C6C6F63617465642069A3
:103D5D006E20686561700A000A0D427566666572AF
:103D6D002031207375636365737366756C6C792090
:103D7D00616C6C6F6361746564207573696E672027
:103D8D006D616C6C6F632061742061646472657326
:103D9D0073202570207769746820656E64206164D6
:103DAD0064726573732061742025700A0D000A20FA
:103DBD000D20427566666572203020636C656172F8
:103DCD0065642C706C6561736520656E7465722019
:103DDD00736D616C6C6572206275666665722073B9
:103DED00697A650A200D000A200D202A2A2A2A2A1E
:103DFD002A2A2A2A2A2A2A2A2A2A2A2A2A2A2A2A16
:103E0D002A2A2A2A2A2A2A2A2A2A2A2A2A2A2A2A05
:103E1D002A2A2A2A2A2A2A2A2A2A2A2A2A2A2A2AF5
:103E2D002A2A2A2A2A2A2A2A2A2A2A2A2A2A2A2AE5
:103E3D002A2A2A2A2A2A2A2A2A2A200A000A200D70
:103E4D002020202020202020202020202020504C09
:103E5D004541534520454E54455220535045434905
:103E6D004649432043484152414354455220464F11
:103E7D005220464F4C4C4F57494E47204F504552BC
:103E8D004154494F4E5320202020202020200A202D
:103E9D000D000A200D202A2A2A2A2A2A2A2A2A2A0D
:103EAD002A2A2A2A2A2A2A2A2A2A2A2A2A2A2A2A65
:103EBD002A2A2A2A2A2A2A2A2A2A2A2A2A2A2A2A55
:103ECD002A2A2A2A2A2A2A2A2A2A2A2A2A2A2A2A45
:103EDD002A2A2A2A2A2A2A2A2A2A2A2A2A2A2A2A35
:103EED002A2A2A0A200D000A200D20202020202019
:103EFD00202020202020202020203129202020209B
:103F0D002020272B27202020202020202D2020207E
:103F1D00435245415445204E45572042554646454E
:103F2D00525320202020202020202020202020201F
:103F3D002020202020202020202020202020202074
:103F4D00200A200D000A200D2020202020202020D6
:103F5D002020202020202020322920202020202039
:103F6D00272D27202020202020202D2020204445D3
:103F7D004C4554452041204255464645522020206F
:103F8D002020202020202020202020202020202024
:103F9D002020202020202020202020202020202014
:103FAD000A200D000A200D20202020202020202076
:103FBD002020202020202033292020202020276190
:103FCD0020746F207A272020202D20202053544F3D
:103FDD00524520544845204C4F574552204341539C
:103FED004520434841524143544552202020202032
:103FFD002020202020202020202020202020200ACA
:10400D00200D000A200D20202020202020202020FF
:10401D002020202020203429202020202020273F50
:10402D002720202020202020202D202020494E46F2
:10403D004F524D4154494F4E2041424F5554204807
:10404D0045415020414E4420454D50545920425534
:10405D004646455220302020202020202020200AB6
:10406D00200D000A200D202020202020202020209F
:10407D002020202020203529202020202020273DF1
:10408D002720202020202020202D20202050524984
:10409D004E542056414C55455320494E20425546CD
:1040AD004645522030202020202020202020202076
:1040BD002020202020202020202020202020200A09
:1040CD00200D000A200D202020202020202020203F
:1040DD00202020202020362920202020202027408D
:1040ED002720202020202020202D20202046524532
:1040FD004520414C4C204255464645525320414E99
:10410D004420524553544152542020202020202039
:10411D0020202020202020202020202020200A20A8
:10412D000D000A200D202A2A2A2A2A2A2A2A2A2A7A
:10413D002A2A2A2A2A2A2A2A2A2A2A2A2A2A2A2AD2
:10414D002A2A2A2A2A2A2A2A2A2A2A2A2A2A2A2AC2
:10415D002A2A2A2A2A2A2A2A2A2A2A2A2A2A2A2AB2
:10416D002A2A2A2A2A2A2A2A2A2A2A2A2A2A2A2AA2
:10417D002A2A2A2A0A200D000A200D204275666679
:10418D0065725F302073746F72657320746865207B
:10419D0076616C756520256320617420257020770C
:1041AD0069746820636F756E746572202564000AEA
:1041BD00200D20456E746572207468652073697AD0
:1041CD006520666F72206275666665722062657421
:1041DD007765656E20333020616E6420333030207A
:1041ED006279746573203A0A200D000A200D204271
:1041FD0055464645522063616E6E6F742062652090
:10420D00616C6C6F63617465640A000A0D20425520
:10421D004646455220256420697320737563636596
:10422D00737366756C6C7920616C6C6F636174650A
:10423D0064207573696E67206D616C6C6F632061AE
:10424D00742061646472657373202570206174201D
:10425D00642076616C75652069732025640A0D00F4
:10426D0061727261792069206861732076616C7565
:10427D0065202570202570000A200D204572726F73
:10428D00722C706C65617365207075742076616C2D
:10429D007565206265747765656E20333020746FA7
:1042AD00203330302062797465730A200D000A20A6
:1042BD000D20456E746572207468652062756666A2
:1042CD006572206E756D62657220746F2062652057
:1042DD0064656C65746564203A200A200D000A201F
:1042ED000D20436C656172696E6720627566666547
:1042FD00722061742061646472657373202570008F
:10430D000A200D206F7574206F6620626F756E64C4
:10431D00732C706C6561736520656E7465722063B6
:10432D006F72726563742076616C7565200A200D5D
:10433D00000A200D2054686520627566666572203E
:10434D00302068617320666F6C6C6F77696E6720C3
:10435D00646174613A200A200D000A0D0025703A3F
:10436D0020000D202578200D000A200D2063616EA0
:10437D006E6F74207072696E7420736D616C6C2039
:10438D00616C70686162657473206173206275661B
:10439D0066657220697320656D707479200A200D31
:1043AD00000A200D2044657461696C73206F6620CE
:1043BD006275666665722061726520617320666F35
:1043CD006C6C6F77733A200A200D000A200D204285
:1043DD0075666665722023202020202020204275DE
:1043ED0066666572207374617274206164647265AF
:1043FD007373202020202020204275666665722070
:10440D00656E6420616464726573732020202020C2
:10441D0020746F74616C2073697A6520616C6C6FA8
:10442D006361746564202020206E6F2E206F6620DE
:10443D0073746F726167652063686172616374651F
:10444D00727320696E2062756666657273000A204C
:10445D000D20302020202020202020202020202052
:10446D0020202025702020202020202020202020EA
:10447D00202020202020202020202020202020252A
:10448D0070202020202020202020202020202020CF
:10449D0020202020202025642020202020202020C6
:1044AD0020202020202020202020202020202020FF
:1044BD0020202020202020256420202020202020A6
:1044CD000A200D20000A200D202564202020202008
:1044DD00202020202020202020202570202020207A
:1044ED0020202020202020202020202020202020BF
:1044FD00202020202020257020202020202020205A
:10450D002020202020202020202020202025642055
:10451D00202020202020202020202020202020208E
:10452D00202020202020202020202020202030206E
:05453D000A200D200022
:01454D00006D
:102C3100AFF0AE83E582901744F0EEA3F0EFA3F07E
:102C4100901744E0FDA3E0FEA3E0901744E0F5F007
:102C5100A3E045F0700122901749E4F0A3F090172A
:102C610056E0FBA3E0FC901747EBF0ECA3F09017C4
:102C71004B7456F07417A3F0901747E0FBA3E0FCE8
:102C81004B60418B018C02C003C0048D008E04C3D4
:102C9100E998EA9CD004D003502A901749EBF0EC54
:102CA100A3F074022BFBE43CFC90174BEBF0ECA37C
:102CB100F08B828C83E0FBA3E0FC901747EBF0ECF8
:102CC100A3F080B4901747E0FEA3E0FF901744E023
:102CD100FBA3E0FCA3E0EB24FEFBEC34FFFC74025D
:102CE1002BFAE43CFD8A828D83EEF0EFA3F090177E
:102CF1004BE0F8A3E0F988828983EBF0ECA3F08B39
:102D0100828C83E0F8A3E0F9EEB50033EFB5012F33
:102D110088828983A3A3E0FEA3E0FF8A828D83EEEC
:102D2100F0EFA3F08B828C83E0FEA3E0FF8E828F15
:102D310083E0FEA3E0FF8B828C83EEF0EFA3F090A3
:102D41001749E0FEA3E0FF4E603C8E828F83E0F8DE
:102D5100A3E0F9E8B5032FE9B5042B8B828C83E05E
:102D6100FBA3E0FC8E828F83EBF0ECA3F074022EC8
:102D7100FEE43FFF8A828D83E0FAA3E0FD8E828F1D
:072D810083EAF0EDA3F0224C
:06223500E478FFF6D8FD7D
:102D8800AFF0AE83E58290174DF0EEA3F0EFA3F01D
:102D9800901750E4F0A3F090174DE0FDA3E0FEA3D8
:102DA800E0FF8D828E838FF0123C01FCBC200280F4
:102DB80003BC09120DBD00010E90174DEDF0EEA3F6
:102DC800F0EFA3F080DC90174DEDF0EEA3F0EFA349
:102DD800F08D828E838FF0123C01FC901752E4BC78
:102DE8002D0104F0BC2D028003BC2B0E90174D74EE
:102DF800012DF0E43EA3F0EFA3F090174DE0FDA302
:102E0800E0FEA3E0FF8D828E838FF0123C01FCBCB4
:102E18003000405DEC24C64058901750E0FBA3E01A
:102E2800FC901754EBF0ECA3F090000AC007C00622
:102E3800C005122FCCAB82AC83D005D006D0078D4D
:102E4800828E838FF0123C01FAA3AD82AE83901775
:102E58004DEDF0EEA3F0EFA3F08A017A00E924D05B
:102E6800F9EA34FFFA901750E92BF0EA3CA3F08016
:102E78009490174DEDF0EEA3F0EFA3F0901752E009
:102E88006011901750E0FEA3E0FFC3E49EFEE49FAC
:102E9800FF8008901750E0FEA3E0FF8E828F832208
:102213007901E94400601B7A0190454D789575A0DA
:1022230017E493F2A308B8000205A0D9F4DAF27513
:02223300A0FF0A
:102EA80020F71130F6138883A88220F509F6A88345
:102EB8007583002280FEF280F5F022C01A85811AFF
:102EC800E51A24FDF8868318868218E493A324DB88
:102ED800600C24256005122FB180F0022FC9D2D5CD
:102EE800E493A3C083C082B4731486F01886831851
:102EF800868218123C016054A3122FB180F5B46386
:102F08000818E618122FB18043B46417E630E74674
:102F180018E6F42401F608E6F43400F6742D122FAE
:102F2800B18033B4782D868318868218E4122FA2D4
:102F3800E583122FA1E583122FA2E582122FA1E5C6
:102F480082122FA230D5057430122FB1D082D083CF
:102F5800022ED3B475F6E6FA18E6F9187C107D2728
:102F6800122F8CFF7CE87D03122F8CC4F5837C64C0
:102F78007D00122F8C4283E975F00A84C445F0F570
:102F880082EF80A97B000BC3E99CF9EA9DFA50F611
:102F98001BE92CF9EA3DFAEB22C4540F700320D543
:102FA8001FC2D52490D43440D4C083C082C0F0F569
:102FB80082E8C0E0122266D0E0F8D0F0D082D08358
:102FC80022D01A22AA83AB828BF0901754E0A4F87F
:102FD800A9F08AF0E0A429F98BF0A3E0A429F583ED
:102FE800888222229017567400F07404A3F0903C53
:102FF8001DE493FE740193FF1EBEFF011FEE240023
:10300800FEEF3404FF900400EEF0EFA3F0901756A3
:10301800E0FEA3E0FF8E828F83A3A3E4F0A3F02257
:10302800AF83E582901758F0EFA3F0901756E0F5BC
:10303800F0A3E045F07003122FEC901758E0FEA3C0
:10304800E0FF4E600E74022EFCE43FFDC3EC9EEDE3
:103058009F50049000002290175874022EF0E43F0D
:10306800A3F0901758E0FEA3E0FFC3EE9404EF949A
:103078000050099017587404F0E4A3F0901756E034
:10308800FEA3E0FF90175AEEF0EFA3F090175C74E0
:1030980056F07417A3F090175AE0FEA3E0FF4E70A5
:1030A8000302318D8E828F83E0FCA3E0FD8C028DBC
:1030B800038E008F01EAC398FAEB99FB8A008B0113
:1030C800901758E0F518A3E0F519C3E89518E995A5
:1030D80019500302316A74042518F8E43519F9C344
:1030E800EA98EB99404C8E028F03E5182AFAE51905
:1030F8003BFB8A828B83ECF0EDA3F074022AFCE49C
:103108003BFD8E828F83A3A3E0F8A3E0F98C828D28
:1031180083E8F0E9A3F090175CE0FCA3E0FD8C8263
:103128008D83EAF0EBA3F08E828F83EAF0EBA3F0B5
:10313800801C90175CE0FCA3E0FD8E828F83A3A324
:10314800E0FAA3E0FB8C828D83EAF0EBA3F0901702
:103158005AE0FCA3E0FD74022CFCE43DFD8C828D5A
:10316800832274022EFEE43FFF90175CEEF0EFA37B
:10317800F08E828F83E0FEA3E0FF90175AEEF0EF07
:09318800A3F002309E9000002229
:10223B007800E84400600A790075A004E4F309D83B
:10224B00FC7895E84413600C7914900400E4F0A337
:04225B00D8FCD9FAD8
:10319100C01A85811A7E008E83122266D01A22AF50
:1031A100F0AE83E58290175FF0EEA3F0EFA3F0900D
:1031B100175FE0FDA3E0FEA3E0FF90175EE0FC9047
:1031C1001773E4F0A3F0A3F0901776EDF0EEA3F0FF
:1031D100EFA3F0901779ECF09031910232E8C01A28
:1031E100E581F51A24FBFF901773E4F0A3F0A3F037
:1031F100E51A24FBF8901776E6F008E6A3F008E656
:10320100A3F0901779EFF09031911232E8D01A22A1
:10321100E58290176FF0E0FF901765E0C0E0A3E052
:10322100C0E0A3E0C0E012322C800D901763E0C033
:10323100E0A3E0C0E08F82221581158115819017EE
:103241006DE02401F0A3E03400F022E582901770D4
:10325100F0E02430FF24C6500D74072FFF90176251
:10326100E060034307208F82023211E582901771DB
:10327100F0E0FFC4540FF582C00712324CD007535F
:10328100070F8F8202324CE582901772F090176817
:10329100E0FCA3E0FDA3E0FEA3E0FF90176CE0FBE0
:1032A100752520901772E0F98B00E828F8EF235478
:1032B1000148FBEC2CFCED33FDEE33FEEF33FFC395
:1032C100EB994007EBC399FB430401E52514FA8A06
:1032D1002570D5901768ECF0EDA3F0EEA3F0EFA305
:1032E100F090176CEBF022AF83E58290177AF0EF44
:1032F100A3F090177AE0FEA3E0FF901763EEF0EFE2
:10330100A3F0901773E0FDA3E0FEA3E0FF90176523
:10331100EDF0EEA3F0EFA3F090176DE4F0A3F090C1
:103321001776E0FDA3E0FEA3E0FF8D828E838FF090
:10333100123C01FC90177674012DF0E43EA3F0EFEE
:10334100A3F0EC7003023BDDBC25028003023BD5F8
:1033510090177CE4F090177DF090177EF090177F26
:10336100F0901780F0901781F0901782F0901783FA
:10337100F0901785F0901786F0A3F090178814F05D
:10338100A3F0901776E0FDA3E0FEA3E0FF8D828E0F
:10339100838FF0123C01FBA3AD82AE83901776EDD3
:1033A100F0EEA3F0EFA3F090178CEBF0BB25088BA8
:1033B10082123211023320BB30005003023481EB00
:1033C10024C65003023481901788E0F51BA3E0F571
:1033D1001C74FFB51B63B51C60C005C006C0079017
:1033E1001786E0FAA3E0FF901754EAF0EFA3F090FC
:1033F100000AC005C003122FCCAE82AF83D003D028
:10340100058B027D00EA2EFEED3FFFEE24D0FEEF9C
:1034110034FFFF901786EEF0EFA3F0D007D006D06F
:1034210005901786E0F5F0A3E045F0600302338EC6
:1034310090177D7401F002338EC005C006C007905D
:103441001754E51BF0E51CA3F090000AC006C00567
:10345100C003122FCCAA82AF83D003D005D0067E41
:1034610000EB2AFAEE3FFFEA24D0FAEF34FFFF9097
:103471001788EAF0EFA3F0D007D006D00502338E0B
:1034810090178CE0FBBB2E2FC005C006C00790171C
:1034910088E0FAA3E0FFBAFF05BFFF028009D00769
:1034A100D006D00502338ED007D006D005901788FC
:1034B100E4F0A3F002338EBB61004014EB2485409D
:1034C1000F90178C74DF5BF09017627401F0800528
:1034D100901762E4F090178CE0FBBB20028075BB73
:1034E1002B028067BB2D028059BB4202806FBB4318
:1034F10002807CBB4403023778BB460302379EBB84
:10350100480302338EBB4903023778BB4A030233B7
:103511008EBB4C028050BB4F03023786BB50030267
:1035210036E6BB53028077BB540302338EBB55038F
:1035310002378EBB5803023796BB5A0302338E0201
:1035410037A690177C7401F002338E90177E7401B8
:10355100F002338E90177F7401F002338E90178141
:103561007401F002338E9017827401F002338E9051
:103571001781E0600E901779E014F9F090178CE74D
:10358100F0800F901779E024FEFFF08F0190178CE7
:10359100E7F090178CE0F5821232110237B59017DF
:1035A10079E024FDFFF08F01870509870609870768
:1035B1001919901768EDF0EEA3F0EFA3F08D828E4C
:1035C100838FF0123BE985821B85831C901788E06D
:1035D100FAA3E0FDBAFF0DBDFF0A901788E51BF0C5
:1035E100E51CA3F090177CE0704B901786E0FAA3DE
:1035F100E0FDC3E51B9AE51C9D503A901786EAC38E
:10360100951BF0ED951CA3F0901786E0FAA3E0FD61
:103611008A068D071ABAFF011DEE4F6010758220D0
:10362100C005C002123211D002D00580E390178686
:10363100EAF0EDA3F0901788E0F51EA3E0F51F90E6
:103641001768E0FAA3E0FDA3E0FF8A828D838FF083
:10365100123C01F51D603CC3E4951E7480851FF08A
:1036610063F08095F0502C151E74FFB51E02151FD6
:10367100851D82123211901768E0FAA3E0FDA3E0E4
:10368100FF0ABA00010D901768EAF0EDA3F0EFA36D
:10369100F080AC90177CE070030237B5901786E09C
:1036A100FEA3E0FFC3E51B9EE51C9F40030237B567
:1036B100901786EEC3951BF0EF951CA3F09017862B
:1036C100E0FEA3E0FF8E028F051EBEFF011FEA4D43
:1036D10070030237AD758220C007C006123211D0C7
:1036E10006D00780E0901779E024FDFDF08D018779
:1036F100200987210987221919901768E520F0E52B
:1037010021A3F0E522A3F090176AE0FDBD800040FF
:103711000890178C7443F08020BD6000400890171A
:103721008C7450F08013BD4000400890178C744990
:10373100F0800690178C7458F090178CE0FDF5829C
:10374100C00512321175823A12321175823012326D
:1037510011758278123211D005BD4902800EBD501B
:10376100028009901769E0F58212326C901768E0C7
:10377100F58212326C803D9017807401F0901785AC
:10378100740AF0802F9017857408F08027901785B0
:10379100740AF0801F9017857410F08017901783BA
:1037A1007401F0800F8B821232118008901786EE1F
:1037B100F0EFA3F0901783E06071901779E024FC9B
:1037C100FFF08F0187030987050987060987071914
:1037D1001919901768EBF0EDA3F0EEA3F0EFA3F049
:1037E1009017687442F07445A3F07480A3F09017A9
:1037F10068E0F520A3E0F521A3E0F522740125207E
:10380100FAE43521FBAF22901768EAF0EBA3F0EF61
:10381100A3F08520828521838522F0123C01FF706F
:10382100030233208F8212321180C3901785E0701A
:1038310003023320901781E06047901779E014F973
:10384100F087077E007D007B00901768EFF0EEA304
:10385100F0EDA3F0EBA3F0901780E060030238F8DD
:10386100901768E0FBA3E0A3E0A3E07D007E007F6A
:1038710000901768EBF0EDA3F0EEA3F0EFA3F0805A
:1038810076901782E06028901779E024FCFFF08F92
:1038910001870309870509870609870719191990FF
:1038A1001768EBF0EDA3F0EEA3F0EFA3F0804890E2
:1038B1001779E024FEFFF08F01870609870719EFCA
:1038C1003395E0FDFB901768EEF0EFA3F0EDA3F068
:1038D100EBA3F0901780E0701E901768E0FBA3E067
:1038E100FDA3E0A3E07E007F00901768EBF0EDA35D
:1038F100F0EEA3F0EFA3F0901780E060419017681D
:10390100E0FBA3E0FDA3E0FEA3E0FF30E72B90176F
:1039110068E0FBA3E0FDA3E0FEA3E0FFC3E49BFBA3
:10392100E49DFDE49EFEE49FFF901768EBF0EDA39C
:10393100F0EEA3F0EFA3F08005901780E4F090176C
:10394100847401F0901785E0F51E75239275241794
:10395100E4F51BF51C90176CE4F0851E8212328889
:10396100901784E0702690176CE0C4F520852382BF
:10397100852483E0FFE5204207852382852483EFA8
:10398100F0152374FFB523021524800C90176CE009
:10399100FF852382852483F0051BE4B51B02051CEA
:1039A100901784E0B40100E433F0901768E0FAA3C3
:1039B100E0FBA3E0FEA3E0FFEA4B4E4F70979017A8
:1039C10093E523F0E524A3F090178AE51BF0E51CAD
:1039D100A3F0901786E0F5F0A3E045F07009901789
:1039E100867401F0E4A3F090177DE0FFE07047904A
:1039F100177CE07041851B23851C24901786E0FA13
:103A0100A3E0FBC007AF230F8F067F00C3EE9AEF41
:103A11009BD0075019758220C007C003C002123223
:103A210011D002D003D0071ABAFF011B80D590171D
:103A310086EAF0EBA3F0901780E0602075822DC03C
:103A410007123211D007901786E024FFFDA3E0345E
:103A5100FFFE901786EDF0EEA3F0805690178AE0F6
:103A6100F5F0A3E045F0604A90177EE06020758292
:103A71002BC007123211D007901786E024FFFDA357
:103A8100E034FFFE901786EDF0EEA3F0802490174E
:103A91007FE0601E758220C007123211D007901797
:103AA10086E024FFFDA3E034FFFE901786EDF0EEE3
:103AB100A3F090177CE0704890178AE0F523A3E00B
:103AC100F524901786E0FAA3E0FBC0078A068B076E
:103AD1001ABAFF011BC3E5239EE5249FD00750536B
:103AE100EF60067D307E0080047D207E008D82C0E7
:103AF10007C003C002123211D002D003D00780CA1E
:103B0100901786E0FEA3E0FF90178AE0F523A3E07B
:103B1100F524C3E5239EE5249F500F901786EEC33D
:103B21009523F0EF9524A3F08011901786E4F0A37C
:103B3100F08008901786EAF0EBA3F0901793E0FE6F
:103B4100A3E0FF90178AE0F523A3E0F524AA23ADB3
:103B510024152374FFB523021524EA4D60459017FF
:103B610084E0B40100E433F0901784E070140EBED9
:103B710000010F8E828F83E0C4540FFD90176CF00B
:103B8100800E8E828F83E0FD53050F90176CEDF050
:103B910090176CE0F582C007C00612324CD006D0F7
:103BA1000780AA90177CE07003023320901786E00B
:103BB100FEA3E0FF8E038F051EBEFF011FEB4D70BC
:103BC10003023320758220C007C006123211D006CD
:103BD100D00780E08C8212321102332090176DE001
:083BE100FEA3E08E82F58322B1
:0B4542003C4E4F20464C4F41543E00C1
:103BE900AA82AB83123C016003A380F8C3E5829AE1
:083BF900F582E5839BF58322B0
:0D220600758125122262E582600302220329
:103C010020F71430F6148883A88220F507E6A883EC
:0C3C110075830022E280F7E49322E02299
:00000001FF
